{"contracts/BasicDutchAuction.sol":{"BasicDutchAuction":{"abi":[{"inputs":[{"internalType":"uint256","name":"_reservePrice","type":"uint256"},{"internalType":"uint256","name":"_numBlocksAuctionOpen","type":"uint256"},{"internalType":"uint256","name":"_offerPriceDecrement","type":"uint256"}],"stateMutability":"nonpayable","type":"constructor"},{"inputs":[],"name":"auctionEndBlock","outputs":[{"internalType":"uint256","name":"","type":"uint256"}],"stateMutability":"view","type":"function"},{"inputs":[],"name":"bid","outputs":[{"internalType":"address","name":"","type":"address"}],"stateMutability":"payable","type":"function"},{"inputs":[],"name":"currentPrice","outputs":[{"internalType":"uint256","name":"","type":"uint256"}],"stateMutability":"view","type":"function"},{"inputs":[],"name":"initialPrice","outputs":[{"internalType":"uint256","name":"","type":"uint256"}],"stateMutability":"view","type":"function"},{"inputs":[],"name":"numBlocksAuctionOpen","outputs":[{"internalType":"uint256","name":"","type":"uint256"}],"stateMutability":"view","type":"function"},{"inputs":[],"name":"offerPriceDecrement","outputs":[{"internalType":"uint256","name":"","type":"uint256"}],"stateMutability":"view","type":"function"},{"inputs":[],"name":"reservePrice","outputs":[{"internalType":"uint256","name":"","type":"uint256"}],"stateMutability":"view","type":"function"},{"inputs":[],"name":"seller","outputs":[{"internalType":"address","name":"","type":"address"}],"stateMutability":"view","type":"function"},{"inputs":[],"name":"winner","outputs":[{"internalType":"address","name":"","type":"address"}],"stateMutability":"view","type":"function"}],"evm":{"bytecode":{"linkReferences":{},"object":"60806040523480156200001157600080fd5b5060405162000c7d38038062000c7d833981810160405281019062000037919062000235565b62000053677ddf6620da4a658d60c01b620001f260201b60201c565b6200006f674106b766eba0138860c01b620001f260201b60201c565b336000806101000a81548173ffffffffffffffffffffffffffffffffffffffff021916908373ffffffffffffffffffffffffffffffffffffffff160217905550620000cb6737a272169e95264f60c01b620001f260201b60201c565b82600181905550620000ee67d776311ee5e7556f60c01b620001f260201b60201c565b8160028190555062000111677583306b4c11c0bf60c01b620001f260201b60201c565b8060038190555062000134673a15e15b5fbcd73760c01b620001f260201b60201c565b600354600254620001469190620002c0565b6001546200015591906200030b565b6004819055506200017767364ad5615da41ba460c01b620001f260201b60201c565b6004546005819055506200019c6749023f8ea564ac9c60c01b620001f260201b60201c565b60025443620001ac91906200030b565b600781905550620001ce67e354403a4e0e4ef960c01b620001f260201b60201c565b6000600860006101000a81548160ff02191690831515021790555050505062000346565b50565b600080fd5b6000819050919050565b6200020f81620001fa565b81146200021b57600080fd5b50565b6000815190506200022f8162000204565b92915050565b600080600060608486031215620002515762000250620001f5565b5b600062000261868287016200021e565b935050602062000274868287016200021e565b925050604062000287868287016200021e565b9150509250925092565b7f4e487b7100000000000000000000000000000000000000000000000000000000600052601160045260246000fd5b6000620002cd82620001fa565b9150620002da83620001fa565b9250828202620002ea81620001fa565b9150828204841483151762000304576200030362000291565b5b5092915050565b60006200031882620001fa565b91506200032583620001fa565b925082820190508082111562000340576200033f62000291565b5b92915050565b61092780620003566000396000f3fe6080604052600436106100865760003560e01c80633103ea62116100595780633103ea621461012a5780639d1b464a14610155578063d3642a8814610180578063db2e1eed146101ab578063dfbf53ae146101d657610086565b806307d52fa81461008b57806308551a53146100b65780631998aeef146100e15780631d0806ae146100ff575b600080fd5b34801561009757600080fd5b506100a0610201565b6040516100ad9190610634565b60405180910390f35b3480156100c257600080fd5b506100cb610207565b6040516100d89190610690565b60405180910390f35b6100e961022b565b6040516100f69190610690565b60405180910390f35b34801561010b57600080fd5b506101146105d4565b6040516101219190610634565b60405180910390f35b34801561013657600080fd5b5061013f6105da565b60405161014c9190610634565b60405180910390f35b34801561016157600080fd5b5061016a6105e0565b6040516101779190610634565b60405180910390f35b34801561018c57600080fd5b506101956105e6565b6040516101a29190610634565b60405180910390f35b3480156101b757600080fd5b506101c06105ec565b6040516101cd9190610634565b60405180910390f35b3480156101e257600080fd5b506101eb6105f2565b6040516101f89190610690565b60405180910390f35b60075481565b60008054906101000a900473ffffffffffffffffffffffffffffffffffffffff1681565b600061024167a1680a6eebee9d9660c01b610618565b61025567bc83f7442736e23160c01b610618565b61026967efd7c71de1f5b62a60c01b610618565b61027d67e94a3551f1276eb960c01b610618565b6007544311156102c2576040517f08c379a00000000000000000000000000000000000000000000000000000000081526004016102b990610708565b60405180910390fd5b6102d6679cde1a08afa8c55d60c01b610618565b6102ea6783f1b32aac887d4160c01b610618565b6102fe673a275ae43e62792060c01b610618565b60006003546002546007546103139190610757565b4361031e9190610757565b610328919061078b565b6004546103359190610757565b905061034b6738435c59c67a01cf60c01b610618565b61035f67dfc87a732d4b411960c01b610618565b61037367640ed5da8579dc0b60c01b610618565b803410156103b6576040517f08c379a00000000000000000000000000000000000000000000000000000000081526004016103ad9061083f565b60405180910390fd5b6103ca673093b23ff6e3212c60c01b610618565b6103de67c5fc896fa251206760c01b610618565b6103f267533bdf3e75fc330360c01b610618565b610406670abd588accdd028e60c01b610618565b60001515600860009054906101000a900460ff1615151461045c576040517f08c379a0000000000000000000000000000000000000000000000000000000008152600401610453906108d1565b60405180910390fd5b61047067dccdf487ca72b53660c01b610618565b6104846729e5d2884ebc0f6d60c01b610618565b33600660006101000a81548173ffffffffffffffffffffffffffffffffffffffff021916908373ffffffffffffffffffffffffffffffffffffffff1602179055506104d967c6c7fc0156a199a660c01b610618565b6001600860006101000a81548160ff021916908315150217905550610508674d8ef6ee323dc74460c01b610618565b61051c6784a67d943060c75860c01b610618565b60008054906101000a900473ffffffffffffffffffffffffffffffffffffffff1673ffffffffffffffffffffffffffffffffffffffff166108fc349081150290604051600060405180830381858888f19350505050158015610582573d6000803e3d6000fd5b50610597673d60099a81dc441360c01b610618565b6105ab679940060e163abe1860c01b610618565b600660009054906101000a900473ffffffffffffffffffffffffffffffffffffffff1691505090565b60045481565b60025481565b60055481565b60035481565b60015481565b600660009054906101000a900473ffffffffffffffffffffffffffffffffffffffff1681565b50565b6000819050919050565b61062e8161061b565b82525050565b60006020820190506106496000830184610625565b92915050565b600073ffffffffffffffffffffffffffffffffffffffff82169050919050565b600061067a8261064f565b9050919050565b61068a8161066f565b82525050565b60006020820190506106a56000830184610681565b92915050565b600082825260208201905092915050565b7f41756374696f6e2068617320616c726561647920656e6465642e000000000000600082015250565b60006106f2601a836106ab565b91506106fd826106bc565b602082019050919050565b60006020820190508181036000830152610721816106e5565b9050919050565b7f4e487b7100000000000000000000000000000000000000000000000000000000600052601160045260246000fd5b60006107628261061b565b915061076d8361061b565b925082820390508181111561078557610784610728565b5b92915050565b60006107968261061b565b91506107a18361061b565b92508282026107af8161061b565b915082820484148315176107c6576107c5610728565b5b5092915050565b7f4269642076616c7565206973206c6f776572207468616e207468652063616c6360008201527f756c617465642070726963652e00000000000000000000000000000000000000602082015250565b6000610829602d836106ab565b9150610834826107cd565b604082019050919050565b600060208201905081810360008301526108588161081c565b9050919050565b7f41756374696f6e2068617320616c726561647920636c6f73656420616e64207760008201527f696e6e657220686173206265656e2064657465726d696e65642e000000000000602082015250565b60006108bb603a836106ab565b91506108c68261085f565b604082019050919050565b600060208201905081810360008301526108ea816108ae565b905091905056fea26469706673582212202dc109e52e70cba08c24c862f598755f6fd93c3c0a7ce1d3e5bfdf7820af239e64736f6c63430008110033","opcodes":"PUSH1 0x80 PUSH1 0x40 MSTORE CALLVALUE DUP1 ISZERO PUSH3 0x11 JUMPI PUSH1 0x0 DUP1 REVERT JUMPDEST POP PUSH1 0x40 MLOAD PUSH3 0xC7D CODESIZE SUB DUP1 PUSH3 0xC7D DUP4 CODECOPY DUP2 DUP2 ADD PUSH1 0x40 MSTORE DUP2 ADD SWAP1 PUSH3 0x37 SWAP2 SWAP1 PUSH3 0x235 JUMP JUMPDEST PUSH3 0x53 PUSH8 0x7DDF6620DA4A658D PUSH1 0xC0 SHL PUSH3 0x1F2 PUSH1 0x20 SHL PUSH1 0x20 SHR JUMP JUMPDEST PUSH3 0x6F PUSH8 0x4106B766EBA01388 PUSH1 0xC0 SHL PUSH3 0x1F2 PUSH1 0x20 SHL PUSH1 0x20 SHR JUMP JUMPDEST CALLER PUSH1 0x0 DUP1 PUSH2 0x100 EXP DUP2 SLOAD DUP2 PUSH20 0xFFFFFFFFFFFFFFFFFFFFFFFFFFFFFFFFFFFFFFFF MUL NOT AND SWAP1 DUP4 PUSH20 0xFFFFFFFFFFFFFFFFFFFFFFFFFFFFFFFFFFFFFFFF AND MUL OR SWAP1 SSTORE POP PUSH3 0xCB PUSH8 0x37A272169E95264F PUSH1 0xC0 SHL PUSH3 0x1F2 PUSH1 0x20 SHL PUSH1 0x20 SHR JUMP JUMPDEST DUP3 PUSH1 0x1 DUP2 SWAP1 SSTORE POP PUSH3 0xEE PUSH8 0xD776311EE5E7556F PUSH1 0xC0 SHL PUSH3 0x1F2 PUSH1 0x20 SHL PUSH1 0x20 SHR JUMP JUMPDEST DUP2 PUSH1 0x2 DUP2 SWAP1 SSTORE POP PUSH3 0x111 PUSH8 0x7583306B4C11C0BF PUSH1 0xC0 SHL PUSH3 0x1F2 PUSH1 0x20 SHL PUSH1 0x20 SHR JUMP JUMPDEST DUP1 PUSH1 0x3 DUP2 SWAP1 SSTORE POP PUSH3 0x134 PUSH8 0x3A15E15B5FBCD737 PUSH1 0xC0 SHL PUSH3 0x1F2 PUSH1 0x20 SHL PUSH1 0x20 SHR JUMP JUMPDEST PUSH1 0x3 SLOAD PUSH1 0x2 SLOAD PUSH3 0x146 SWAP2 SWAP1 PUSH3 0x2C0 JUMP JUMPDEST PUSH1 0x1 SLOAD PUSH3 0x155 SWAP2 SWAP1 PUSH3 0x30B JUMP JUMPDEST PUSH1 0x4 DUP2 SWAP1 SSTORE POP PUSH3 0x177 PUSH8 0x364AD5615DA41BA4 PUSH1 0xC0 SHL PUSH3 0x1F2 PUSH1 0x20 SHL PUSH1 0x20 SHR JUMP JUMPDEST PUSH1 0x4 SLOAD PUSH1 0x5 DUP2 SWAP1 SSTORE POP PUSH3 0x19C PUSH8 0x49023F8EA564AC9C PUSH1 0xC0 SHL PUSH3 0x1F2 PUSH1 0x20 SHL PUSH1 0x20 SHR JUMP JUMPDEST PUSH1 0x2 SLOAD NUMBER PUSH3 0x1AC SWAP2 SWAP1 PUSH3 0x30B JUMP JUMPDEST PUSH1 0x7 DUP2 SWAP1 SSTORE POP PUSH3 0x1CE PUSH8 0xE354403A4E0E4EF9 PUSH1 0xC0 SHL PUSH3 0x1F2 PUSH1 0x20 SHL PUSH1 0x20 SHR JUMP JUMPDEST PUSH1 0x0 PUSH1 0x8 PUSH1 0x0 PUSH2 0x100 EXP DUP2 SLOAD DUP2 PUSH1 0xFF MUL NOT AND SWAP1 DUP4 ISZERO ISZERO MUL OR SWAP1 SSTORE POP POP POP POP PUSH3 0x346 JUMP JUMPDEST POP JUMP JUMPDEST PUSH1 0x0 DUP1 REVERT JUMPDEST PUSH1 0x0 DUP2 SWAP1 POP SWAP2 SWAP1 POP JUMP JUMPDEST PUSH3 0x20F DUP2 PUSH3 0x1FA JUMP JUMPDEST DUP2 EQ PUSH3 0x21B JUMPI PUSH1 0x0 DUP1 REVERT JUMPDEST POP JUMP JUMPDEST PUSH1 0x0 DUP2 MLOAD SWAP1 POP PUSH3 0x22F DUP2 PUSH3 0x204 JUMP JUMPDEST SWAP3 SWAP2 POP POP JUMP JUMPDEST PUSH1 0x0 DUP1 PUSH1 0x0 PUSH1 0x60 DUP5 DUP7 SUB SLT ISZERO PUSH3 0x251 JUMPI PUSH3 0x250 PUSH3 0x1F5 JUMP JUMPDEST JUMPDEST PUSH1 0x0 PUSH3 0x261 DUP7 DUP3 DUP8 ADD PUSH3 0x21E JUMP JUMPDEST SWAP4 POP POP PUSH1 0x20 PUSH3 0x274 DUP7 DUP3 DUP8 ADD PUSH3 0x21E JUMP JUMPDEST SWAP3 POP POP PUSH1 0x40 PUSH3 0x287 DUP7 DUP3 DUP8 ADD PUSH3 0x21E JUMP JUMPDEST SWAP2 POP POP SWAP3 POP SWAP3 POP SWAP3 JUMP JUMPDEST PUSH32 0x4E487B7100000000000000000000000000000000000000000000000000000000 PUSH1 0x0 MSTORE PUSH1 0x11 PUSH1 0x4 MSTORE PUSH1 0x24 PUSH1 0x0 REVERT JUMPDEST PUSH1 0x0 PUSH3 0x2CD DUP3 PUSH3 0x1FA JUMP JUMPDEST SWAP2 POP PUSH3 0x2DA DUP4 PUSH3 0x1FA JUMP JUMPDEST SWAP3 POP DUP3 DUP3 MUL PUSH3 0x2EA DUP2 PUSH3 0x1FA JUMP JUMPDEST SWAP2 POP DUP3 DUP3 DIV DUP5 EQ DUP4 ISZERO OR PUSH3 0x304 JUMPI PUSH3 0x303 PUSH3 0x291 JUMP JUMPDEST JUMPDEST POP SWAP3 SWAP2 POP POP JUMP JUMPDEST PUSH1 0x0 PUSH3 0x318 DUP3 PUSH3 0x1FA JUMP JUMPDEST SWAP2 POP PUSH3 0x325 DUP4 PUSH3 0x1FA JUMP JUMPDEST SWAP3 POP DUP3 DUP3 ADD SWAP1 POP DUP1 DUP3 GT ISZERO PUSH3 0x340 JUMPI PUSH3 0x33F PUSH3 0x291 JUMP JUMPDEST JUMPDEST SWAP3 SWAP2 POP POP JUMP JUMPDEST PUSH2 0x927 DUP1 PUSH3 0x356 PUSH1 0x0 CODECOPY PUSH1 0x0 RETURN INVALID PUSH1 0x80 PUSH1 0x40 MSTORE PUSH1 0x4 CALLDATASIZE LT PUSH2 0x86 JUMPI PUSH1 0x0 CALLDATALOAD PUSH1 0xE0 SHR DUP1 PUSH4 0x3103EA62 GT PUSH2 0x59 JUMPI DUP1 PUSH4 0x3103EA62 EQ PUSH2 0x12A JUMPI DUP1 PUSH4 0x9D1B464A EQ PUSH2 0x155 JUMPI DUP1 PUSH4 0xD3642A88 EQ PUSH2 0x180 JUMPI DUP1 PUSH4 0xDB2E1EED EQ PUSH2 0x1AB JUMPI DUP1 PUSH4 0xDFBF53AE EQ PUSH2 0x1D6 JUMPI PUSH2 0x86 JUMP JUMPDEST DUP1 PUSH4 0x7D52FA8 EQ PUSH2 0x8B JUMPI DUP1 PUSH4 0x8551A53 EQ PUSH2 0xB6 JUMPI DUP1 PUSH4 0x1998AEEF EQ PUSH2 0xE1 JUMPI DUP1 PUSH4 0x1D0806AE EQ PUSH2 0xFF JUMPI JUMPDEST PUSH1 0x0 DUP1 REVERT JUMPDEST CALLVALUE DUP1 ISZERO PUSH2 0x97 JUMPI PUSH1 0x0 DUP1 REVERT JUMPDEST POP PUSH2 0xA0 PUSH2 0x201 JUMP JUMPDEST PUSH1 0x40 MLOAD PUSH2 0xAD SWAP2 SWAP1 PUSH2 0x634 JUMP JUMPDEST PUSH1 0x40 MLOAD DUP1 SWAP2 SUB SWAP1 RETURN JUMPDEST CALLVALUE DUP1 ISZERO PUSH2 0xC2 JUMPI PUSH1 0x0 DUP1 REVERT JUMPDEST POP PUSH2 0xCB PUSH2 0x207 JUMP JUMPDEST PUSH1 0x40 MLOAD PUSH2 0xD8 SWAP2 SWAP1 PUSH2 0x690 JUMP JUMPDEST PUSH1 0x40 MLOAD DUP1 SWAP2 SUB SWAP1 RETURN JUMPDEST PUSH2 0xE9 PUSH2 0x22B JUMP JUMPDEST PUSH1 0x40 MLOAD PUSH2 0xF6 SWAP2 SWAP1 PUSH2 0x690 JUMP JUMPDEST PUSH1 0x40 MLOAD DUP1 SWAP2 SUB SWAP1 RETURN JUMPDEST CALLVALUE DUP1 ISZERO PUSH2 0x10B JUMPI PUSH1 0x0 DUP1 REVERT JUMPDEST POP PUSH2 0x114 PUSH2 0x5D4 JUMP JUMPDEST PUSH1 0x40 MLOAD PUSH2 0x121 SWAP2 SWAP1 PUSH2 0x634 JUMP JUMPDEST PUSH1 0x40 MLOAD DUP1 SWAP2 SUB SWAP1 RETURN JUMPDEST CALLVALUE DUP1 ISZERO PUSH2 0x136 JUMPI PUSH1 0x0 DUP1 REVERT JUMPDEST POP PUSH2 0x13F PUSH2 0x5DA JUMP JUMPDEST PUSH1 0x40 MLOAD PUSH2 0x14C SWAP2 SWAP1 PUSH2 0x634 JUMP JUMPDEST PUSH1 0x40 MLOAD DUP1 SWAP2 SUB SWAP1 RETURN JUMPDEST CALLVALUE DUP1 ISZERO PUSH2 0x161 JUMPI PUSH1 0x0 DUP1 REVERT JUMPDEST POP PUSH2 0x16A PUSH2 0x5E0 JUMP JUMPDEST PUSH1 0x40 MLOAD PUSH2 0x177 SWAP2 SWAP1 PUSH2 0x634 JUMP JUMPDEST PUSH1 0x40 MLOAD DUP1 SWAP2 SUB SWAP1 RETURN JUMPDEST CALLVALUE DUP1 ISZERO PUSH2 0x18C JUMPI PUSH1 0x0 DUP1 REVERT JUMPDEST POP PUSH2 0x195 PUSH2 0x5E6 JUMP JUMPDEST PUSH1 0x40 MLOAD PUSH2 0x1A2 SWAP2 SWAP1 PUSH2 0x634 JUMP JUMPDEST PUSH1 0x40 MLOAD DUP1 SWAP2 SUB SWAP1 RETURN JUMPDEST CALLVALUE DUP1 ISZERO PUSH2 0x1B7 JUMPI PUSH1 0x0 DUP1 REVERT JUMPDEST POP PUSH2 0x1C0 PUSH2 0x5EC JUMP JUMPDEST PUSH1 0x40 MLOAD PUSH2 0x1CD SWAP2 SWAP1 PUSH2 0x634 JUMP JUMPDEST PUSH1 0x40 MLOAD DUP1 SWAP2 SUB SWAP1 RETURN JUMPDEST CALLVALUE DUP1 ISZERO PUSH2 0x1E2 JUMPI PUSH1 0x0 DUP1 REVERT JUMPDEST POP PUSH2 0x1EB PUSH2 0x5F2 JUMP JUMPDEST PUSH1 0x40 MLOAD PUSH2 0x1F8 SWAP2 SWAP1 PUSH2 0x690 JUMP JUMPDEST PUSH1 0x40 MLOAD DUP1 SWAP2 SUB SWAP1 RETURN JUMPDEST PUSH1 0x7 SLOAD DUP2 JUMP JUMPDEST PUSH1 0x0 DUP1 SLOAD SWAP1 PUSH2 0x100 EXP SWAP1 DIV PUSH20 0xFFFFFFFFFFFFFFFFFFFFFFFFFFFFFFFFFFFFFFFF AND DUP2 JUMP JUMPDEST PUSH1 0x0 PUSH2 0x241 PUSH8 0xA1680A6EEBEE9D96 PUSH1 0xC0 SHL PUSH2 0x618 JUMP JUMPDEST PUSH2 0x255 PUSH8 0xBC83F7442736E231 PUSH1 0xC0 SHL PUSH2 0x618 JUMP JUMPDEST PUSH2 0x269 PUSH8 0xEFD7C71DE1F5B62A PUSH1 0xC0 SHL PUSH2 0x618 JUMP JUMPDEST PUSH2 0x27D PUSH8 0xE94A3551F1276EB9 PUSH1 0xC0 SHL PUSH2 0x618 JUMP JUMPDEST PUSH1 0x7 SLOAD NUMBER GT ISZERO PUSH2 0x2C2 JUMPI PUSH1 0x40 MLOAD PUSH32 0x8C379A000000000000000000000000000000000000000000000000000000000 DUP2 MSTORE PUSH1 0x4 ADD PUSH2 0x2B9 SWAP1 PUSH2 0x708 JUMP JUMPDEST PUSH1 0x40 MLOAD DUP1 SWAP2 SUB SWAP1 REVERT JUMPDEST PUSH2 0x2D6 PUSH8 0x9CDE1A08AFA8C55D PUSH1 0xC0 SHL PUSH2 0x618 JUMP JUMPDEST PUSH2 0x2EA PUSH8 0x83F1B32AAC887D41 PUSH1 0xC0 SHL PUSH2 0x618 JUMP JUMPDEST PUSH2 0x2FE PUSH8 0x3A275AE43E627920 PUSH1 0xC0 SHL PUSH2 0x618 JUMP JUMPDEST PUSH1 0x0 PUSH1 0x3 SLOAD PUSH1 0x2 SLOAD PUSH1 0x7 SLOAD PUSH2 0x313 SWAP2 SWAP1 PUSH2 0x757 JUMP JUMPDEST NUMBER PUSH2 0x31E SWAP2 SWAP1 PUSH2 0x757 JUMP JUMPDEST PUSH2 0x328 SWAP2 SWAP1 PUSH2 0x78B JUMP JUMPDEST PUSH1 0x4 SLOAD PUSH2 0x335 SWAP2 SWAP1 PUSH2 0x757 JUMP JUMPDEST SWAP1 POP PUSH2 0x34B PUSH8 0x38435C59C67A01CF PUSH1 0xC0 SHL PUSH2 0x618 JUMP JUMPDEST PUSH2 0x35F PUSH8 0xDFC87A732D4B4119 PUSH1 0xC0 SHL PUSH2 0x618 JUMP JUMPDEST PUSH2 0x373 PUSH8 0x640ED5DA8579DC0B PUSH1 0xC0 SHL PUSH2 0x618 JUMP JUMPDEST DUP1 CALLVALUE LT ISZERO PUSH2 0x3B6 JUMPI PUSH1 0x40 MLOAD PUSH32 0x8C379A000000000000000000000000000000000000000000000000000000000 DUP2 MSTORE PUSH1 0x4 ADD PUSH2 0x3AD SWAP1 PUSH2 0x83F JUMP JUMPDEST PUSH1 0x40 MLOAD DUP1 SWAP2 SUB SWAP1 REVERT JUMPDEST PUSH2 0x3CA PUSH8 0x3093B23FF6E3212C PUSH1 0xC0 SHL PUSH2 0x618 JUMP JUMPDEST PUSH2 0x3DE PUSH8 0xC5FC896FA2512067 PUSH1 0xC0 SHL PUSH2 0x618 JUMP JUMPDEST PUSH2 0x3F2 PUSH8 0x533BDF3E75FC3303 PUSH1 0xC0 SHL PUSH2 0x618 JUMP JUMPDEST PUSH2 0x406 PUSH8 0xABD588ACCDD028E PUSH1 0xC0 SHL PUSH2 0x618 JUMP JUMPDEST PUSH1 0x0 ISZERO ISZERO PUSH1 0x8 PUSH1 0x0 SWAP1 SLOAD SWAP1 PUSH2 0x100 EXP SWAP1 DIV PUSH1 0xFF AND ISZERO ISZERO EQ PUSH2 0x45C JUMPI PUSH1 0x40 MLOAD PUSH32 0x8C379A000000000000000000000000000000000000000000000000000000000 DUP2 MSTORE PUSH1 0x4 ADD PUSH2 0x453 SWAP1 PUSH2 0x8D1 JUMP JUMPDEST PUSH1 0x40 MLOAD DUP1 SWAP2 SUB SWAP1 REVERT JUMPDEST PUSH2 0x470 PUSH8 0xDCCDF487CA72B536 PUSH1 0xC0 SHL PUSH2 0x618 JUMP JUMPDEST PUSH2 0x484 PUSH8 0x29E5D2884EBC0F6D PUSH1 0xC0 SHL PUSH2 0x618 JUMP JUMPDEST CALLER PUSH1 0x6 PUSH1 0x0 PUSH2 0x100 EXP DUP2 SLOAD DUP2 PUSH20 0xFFFFFFFFFFFFFFFFFFFFFFFFFFFFFFFFFFFFFFFF MUL NOT AND SWAP1 DUP4 PUSH20 0xFFFFFFFFFFFFFFFFFFFFFFFFFFFFFFFFFFFFFFFF AND MUL OR SWAP1 SSTORE POP PUSH2 0x4D9 PUSH8 0xC6C7FC0156A199A6 PUSH1 0xC0 SHL PUSH2 0x618 JUMP JUMPDEST PUSH1 0x1 PUSH1 0x8 PUSH1 0x0 PUSH2 0x100 EXP DUP2 SLOAD DUP2 PUSH1 0xFF MUL NOT AND SWAP1 DUP4 ISZERO ISZERO MUL OR SWAP1 SSTORE POP PUSH2 0x508 PUSH8 0x4D8EF6EE323DC744 PUSH1 0xC0 SHL PUSH2 0x618 JUMP JUMPDEST PUSH2 0x51C PUSH8 0x84A67D943060C758 PUSH1 0xC0 SHL PUSH2 0x618 JUMP JUMPDEST PUSH1 0x0 DUP1 SLOAD SWAP1 PUSH2 0x100 EXP SWAP1 DIV PUSH20 0xFFFFFFFFFFFFFFFFFFFFFFFFFFFFFFFFFFFFFFFF AND PUSH20 0xFFFFFFFFFFFFFFFFFFFFFFFFFFFFFFFFFFFFFFFF AND PUSH2 0x8FC CALLVALUE SWAP1 DUP2 ISZERO MUL SWAP1 PUSH1 0x40 MLOAD PUSH1 0x0 PUSH1 0x40 MLOAD DUP1 DUP4 SUB DUP2 DUP6 DUP9 DUP9 CALL SWAP4 POP POP POP POP ISZERO DUP1 ISZERO PUSH2 0x582 JUMPI RETURNDATASIZE PUSH1 0x0 DUP1 RETURNDATACOPY RETURNDATASIZE PUSH1 0x0 REVERT JUMPDEST POP PUSH2 0x597 PUSH8 0x3D60099A81DC4413 PUSH1 0xC0 SHL PUSH2 0x618 JUMP JUMPDEST PUSH2 0x5AB PUSH8 0x9940060E163ABE18 PUSH1 0xC0 SHL PUSH2 0x618 JUMP JUMPDEST PUSH1 0x6 PUSH1 0x0 SWAP1 SLOAD SWAP1 PUSH2 0x100 EXP SWAP1 DIV PUSH20 0xFFFFFFFFFFFFFFFFFFFFFFFFFFFFFFFFFFFFFFFF AND SWAP2 POP POP SWAP1 JUMP JUMPDEST PUSH1 0x4 SLOAD DUP2 JUMP JUMPDEST PUSH1 0x2 SLOAD DUP2 JUMP JUMPDEST PUSH1 0x5 SLOAD DUP2 JUMP JUMPDEST PUSH1 0x3 SLOAD DUP2 JUMP JUMPDEST PUSH1 0x1 SLOAD DUP2 JUMP JUMPDEST PUSH1 0x6 PUSH1 0x0 SWAP1 SLOAD SWAP1 PUSH2 0x100 EXP SWAP1 DIV PUSH20 0xFFFFFFFFFFFFFFFFFFFFFFFFFFFFFFFFFFFFFFFF AND DUP2 JUMP JUMPDEST POP JUMP JUMPDEST PUSH1 0x0 DUP2 SWAP1 POP SWAP2 SWAP1 POP JUMP JUMPDEST PUSH2 0x62E DUP2 PUSH2 0x61B JUMP JUMPDEST DUP3 MSTORE POP POP JUMP JUMPDEST PUSH1 0x0 PUSH1 0x20 DUP3 ADD SWAP1 POP PUSH2 0x649 PUSH1 0x0 DUP4 ADD DUP5 PUSH2 0x625 JUMP JUMPDEST SWAP3 SWAP2 POP POP JUMP JUMPDEST PUSH1 0x0 PUSH20 0xFFFFFFFFFFFFFFFFFFFFFFFFFFFFFFFFFFFFFFFF DUP3 AND SWAP1 POP SWAP2 SWAP1 POP JUMP JUMPDEST PUSH1 0x0 PUSH2 0x67A DUP3 PUSH2 0x64F JUMP JUMPDEST SWAP1 POP SWAP2 SWAP1 POP JUMP JUMPDEST PUSH2 0x68A DUP2 PUSH2 0x66F JUMP JUMPDEST DUP3 MSTORE POP POP JUMP JUMPDEST PUSH1 0x0 PUSH1 0x20 DUP3 ADD SWAP1 POP PUSH2 0x6A5 PUSH1 0x0 DUP4 ADD DUP5 PUSH2 0x681 JUMP JUMPDEST SWAP3 SWAP2 POP POP JUMP JUMPDEST PUSH1 0x0 DUP3 DUP3 MSTORE PUSH1 0x20 DUP3 ADD SWAP1 POP SWAP3 SWAP2 POP POP JUMP JUMPDEST PUSH32 0x41756374696F6E2068617320616C726561647920656E6465642E000000000000 PUSH1 0x0 DUP3 ADD MSTORE POP JUMP JUMPDEST PUSH1 0x0 PUSH2 0x6F2 PUSH1 0x1A DUP4 PUSH2 0x6AB JUMP JUMPDEST SWAP2 POP PUSH2 0x6FD DUP3 PUSH2 0x6BC JUMP JUMPDEST PUSH1 0x20 DUP3 ADD SWAP1 POP SWAP2 SWAP1 POP JUMP JUMPDEST PUSH1 0x0 PUSH1 0x20 DUP3 ADD SWAP1 POP DUP2 DUP2 SUB PUSH1 0x0 DUP4 ADD MSTORE PUSH2 0x721 DUP2 PUSH2 0x6E5 JUMP JUMPDEST SWAP1 POP SWAP2 SWAP1 POP JUMP JUMPDEST PUSH32 0x4E487B7100000000000000000000000000000000000000000000000000000000 PUSH1 0x0 MSTORE PUSH1 0x11 PUSH1 0x4 MSTORE PUSH1 0x24 PUSH1 0x0 REVERT JUMPDEST PUSH1 0x0 PUSH2 0x762 DUP3 PUSH2 0x61B JUMP JUMPDEST SWAP2 POP PUSH2 0x76D DUP4 PUSH2 0x61B JUMP JUMPDEST SWAP3 POP DUP3 DUP3 SUB SWAP1 POP DUP2 DUP2 GT ISZERO PUSH2 0x785 JUMPI PUSH2 0x784 PUSH2 0x728 JUMP JUMPDEST JUMPDEST SWAP3 SWAP2 POP POP JUMP JUMPDEST PUSH1 0x0 PUSH2 0x796 DUP3 PUSH2 0x61B JUMP JUMPDEST SWAP2 POP PUSH2 0x7A1 DUP4 PUSH2 0x61B JUMP JUMPDEST SWAP3 POP DUP3 DUP3 MUL PUSH2 0x7AF DUP2 PUSH2 0x61B JUMP JUMPDEST SWAP2 POP DUP3 DUP3 DIV DUP5 EQ DUP4 ISZERO OR PUSH2 0x7C6 JUMPI PUSH2 0x7C5 PUSH2 0x728 JUMP JUMPDEST JUMPDEST POP SWAP3 SWAP2 POP POP JUMP JUMPDEST PUSH32 0x4269642076616C7565206973206C6F776572207468616E207468652063616C63 PUSH1 0x0 DUP3 ADD MSTORE PUSH32 0x756C617465642070726963652E00000000000000000000000000000000000000 PUSH1 0x20 DUP3 ADD MSTORE POP JUMP JUMPDEST PUSH1 0x0 PUSH2 0x829 PUSH1 0x2D DUP4 PUSH2 0x6AB JUMP JUMPDEST SWAP2 POP PUSH2 0x834 DUP3 PUSH2 0x7CD JUMP JUMPDEST PUSH1 0x40 DUP3 ADD SWAP1 POP SWAP2 SWAP1 POP JUMP JUMPDEST PUSH1 0x0 PUSH1 0x20 DUP3 ADD SWAP1 POP DUP2 DUP2 SUB PUSH1 0x0 DUP4 ADD MSTORE PUSH2 0x858 DUP2 PUSH2 0x81C JUMP JUMPDEST SWAP1 POP SWAP2 SWAP1 POP JUMP JUMPDEST PUSH32 0x41756374696F6E2068617320616C726561647920636C6F73656420616E642077 PUSH1 0x0 DUP3 ADD MSTORE PUSH32 0x696E6E657220686173206265656E2064657465726D696E65642E000000000000 PUSH1 0x20 DUP3 ADD MSTORE POP JUMP JUMPDEST PUSH1 0x0 PUSH2 0x8BB PUSH1 0x3A DUP4 PUSH2 0x6AB JUMP JUMPDEST SWAP2 POP PUSH2 0x8C6 DUP3 PUSH2 0x85F JUMP JUMPDEST PUSH1 0x40 DUP3 ADD SWAP1 POP SWAP2 SWAP1 POP JUMP JUMPDEST PUSH1 0x0 PUSH1 0x20 DUP3 ADD SWAP1 POP DUP2 DUP2 SUB PUSH1 0x0 DUP4 ADD MSTORE PUSH2 0x8EA DUP2 PUSH2 0x8AE JUMP JUMPDEST SWAP1 POP SWAP2 SWAP1 POP JUMP INVALID LOG2 PUSH5 0x6970667358 0x22 SLT KECCAK256 0x2D 0xC1 MULMOD 0xE5 0x2E PUSH17 0xCBA08C24C862F598755F6FD93C3C0A7CE1 0xD3 0xE5 0xBF 0xDF PUSH25 0x20AF239E64736F6C6343000811003300000000000000000000 "},"methodIdentifiers":{"auctionEndBlock()":"07d52fa8","bid()":"1998aeef","currentPrice()":"9d1b464a","initialPrice()":"1d0806ae","numBlocksAuctionOpen()":"3103ea62","offerPriceDecrement()":"d3642a88","reservePrice()":"db2e1eed","seller()":"08551a53","winner()":"dfbf53ae"}}}}}