{
  "abi": [
    {
      "inputs": [
        {
          "internalType": "address",
          "name": "factoryAddress",
          "type": "address"
        }
      ],
      "stateMutability": "nonpayable",
      "type": "constructor"
    },
    {
      "inputs": [],
      "name": "SafeTransferFailed",
      "type": "error"
    },
    {
      "inputs": [
        {
          "internalType": "address",
          "name": "tokenA",
          "type": "address"
        },
        {
          "internalType": "address",
          "name": "tokenB",
          "type": "address"
        },
        {
          "internalType": "uint256",
          "name": "amountADesired",
          "type": "uint256"
        },
        {
          "internalType": "uint256",
          "name": "amountBDesired",
          "type": "uint256"
        },
        {
          "internalType": "uint256",
          "name": "amountAMin",
          "type": "uint256"
        },
        {
          "internalType": "uint256",
          "name": "amountBMin",
          "type": "uint256"
        },
        {
          "internalType": "address",
          "name": "to",
          "type": "address"
        }
      ],
      "name": "addLiquidity",
      "outputs": [
        {
          "internalType": "uint256",
          "name": "amountA",
          "type": "uint256"
        },
        {
          "internalType": "uint256",
          "name": "amountB",
          "type": "uint256"
        },
        {
          "internalType": "uint256",
          "name": "liquidity",
          "type": "uint256"
        }
      ],
      "stateMutability": "nonpayable",
      "type": "function"
    },
    {
      "inputs": [
        {
          "internalType": "address",
          "name": "tokenA",
          "type": "address"
        },
        {
          "internalType": "address",
          "name": "tokenB",
          "type": "address"
        },
        {
          "internalType": "uint256",
          "name": "liquidity",
          "type": "uint256"
        },
        {
          "internalType": "uint256",
          "name": "amountAMin",
          "type": "uint256"
        },
        {
          "internalType": "uint256",
          "name": "amountBMin",
          "type": "uint256"
        },
        {
          "internalType": "address",
          "name": "to",
          "type": "address"
        }
      ],
      "name": "removeLiquidity",
      "outputs": [
        {
          "internalType": "uint256",
          "name": "amountA",
          "type": "uint256"
        },
        {
          "internalType": "uint256",
          "name": "amountB",
          "type": "uint256"
        }
      ],
      "stateMutability": "nonpayable",
      "type": "function"
    },
    {
      "inputs": [
        {
          "internalType": "uint256",
          "name": "amountIn",
          "type": "uint256"
        },
        {
          "internalType": "uint256",
          "name": "amountOutMin",
          "type": "uint256"
        },
        {
          "internalType": "address[]",
          "name": "path",
          "type": "address[]"
        },
        {
          "internalType": "address",
          "name": "to",
          "type": "address"
        }
      ],
      "name": "swapExactTokensForTokens",
      "outputs": [
        {
          "internalType": "uint256[]",
          "name": "amounts",
          "type": "uint256[]"
        }
      ],
      "stateMutability": "nonpayable",
      "type": "function"
    },
    {
      "inputs": [
        {
          "internalType": "uint256",
          "name": "amountOut",
          "type": "uint256"
        },
        {
          "internalType": "uint256",
          "name": "amountInMax",
          "type": "uint256"
        },
        {
          "internalType": "address[]",
          "name": "path",
          "type": "address[]"
        },
        {
          "internalType": "address",
          "name": "to",
          "type": "address"
        }
      ],
      "name": "swapTokensForExactTokens",
      "outputs": [
        {
          "internalType": "uint256[]",
          "name": "amounts",
          "type": "uint256[]"
        }
      ],
      "stateMutability": "nonpayable",
      "type": "function"
    }
  ],
  "bytecode": {
    "object": "0x608060405234801561001057600080fd5b5060405161381b38038061381b83398101604081905261002f91610054565b600080546001600160a01b0319166001600160a01b0392909216919091179055610084565b60006020828403121561006657600080fd5b81516001600160a01b038116811461007d57600080fd5b9392505050565b613788806100936000396000f3fe60806040523480156200001157600080fd5b5060043610620000525760003560e01c806342712a671462000057578063472b43f31462000086578063c0e3ee6b146200009d578063ca3d653914620000ca575b600080fd5b6200006e6200006836600462000eaf565b620000fd565b6040516200007d919062000f54565b60405180910390f35b6200006e6200009736600462000eaf565b62000320565b620000b4620000ae36600462000f9a565b62000436565b604080519283526020830191909152016200007d565b620000e1620000db36600462001008565b620005e1565b604080519384526020840192909252908201526060016200007d565b600054604051630c90945960e11b815260609173__$818bb5b50ea54887bdf560cf00a7c4ee36$__9163192128b2916200014c916001600160a01b03909116908a908990899060040162001081565b600060405180830381865af41580156200016a573d6000803e3d6000fd5b505050506040513d6000823e601f3d908101601f19168201604052620001949190810190620010fe565b9050848160018351620001a89190620011de565b81518110620001bb57620001bb620011fa565b602002602001015111156200020e5760405162461bcd60e51b8152602060048201526014602482015273115e18d95cdcda5d99525b9c1d5d105b5bdd5b9d60621b60448201526064015b60405180910390fd5b620002d684846000818110620002285762000228620011fa565b90506020020160208101906200023f919062001210565b600080543391620002b2916001600160a01b0316908990899081620002685762000268620011fa565b90506020020160208101906200027f919062001210565b89896001818110620002955762000295620011fa565b9050602002016020810190620002ac919062001210565b620007bb565b84600081518110620002c857620002c8620011fa565b6020026020010151620008a7565b6200031781858580806020026020016040519081016040528093929190818152602001838360200280828437600092019190915250879250620009c8915050565b95945050505050565b600054604051635dbdce3b60e11b815260609173__$818bb5b50ea54887bdf560cf00a7c4ee36$__9163bb7b9c76916200036f916001600160a01b03909116908a908990899060040162001081565b600060405180830381865af41580156200038d573d6000803e3d6000fd5b505050506040513d6000823e601f3d908101601f19168201604052620003b79190810190620010fe565b9050848160018351620003cb9190620011de565b81518110620003de57620003de620011fa565b602002602001015110156200020e5760405162461bcd60e51b815260206004820152601860248201527f496e73756666696369656e744f7574707574416d6f756e740000000000000000604482015260640162000205565b600080548190819062000454906001600160a01b03168a8a620007bb565b6040516323b872dd60e01b81523360048201526001600160a01b03821660248201819052604482018a90529192506323b872dd906064016020604051808303816000875af1158015620004ab573d6000803e3d6000fd5b505050506040513d601f19601f82011682018060405250810190620004d1919062001237565b5060405163226bf2d160e21b81526001600160a01b0385811660048301528216906389afcb449060240160408051808303816000875af11580156200051a573d6000803e3d6000fd5b505050506040513d601f19601f820116820180604052508101906200054091906200125b565b9093509150858310156200058d5760405162461bcd60e51b8152602060048201526013602482015272125b9cdd59999a58da595b9d10505b5bdd5b9d606a1b604482015260640162000205565b84821015620005d55760405162461bcd60e51b8152602060048201526013602482015272125b9cdd59999a58da595b9d10905b5bdd5b9d606a1b604482015260640162000205565b50965096945050505050565b6000805460405163e6a4390560e01b81526001600160a01b038a8116600483015289811660248301528392839283929091169063e6a4390590604401602060405180830381865afa1580156200063b573d6000803e3d6000fd5b505050506040513d601f19601f8201168201806040525081019062000661919062001280565b6001600160a01b031603620006ed576000546040516364e329cb60e11b81526001600160a01b038c811660048301528b811660248301529091169063c9c65396906044016020604051808303816000875af1158015620006c5573d6000803e3d6000fd5b505050506040513d601f19601f82011682018060405250810190620006eb919062001280565b505b620006fd8a8a8a8a8a8a62000bb9565b60008054929550909350906200071e906001600160a01b03168c8c620007bb565b90506200072e8b338387620008a7565b6200073c8a338386620008a7565b6040516335313c2160e11b81526001600160a01b038681166004830152821690636a627842906024016020604051808303816000875af115801562000785573d6000803e3d6000fd5b505050506040513d601f19601f82011682018060405250810190620007ab9190620012a0565b9150509750975097945050505050565b6000806000620007cc858562000e55565b6040516bffffffffffffffffffffffff19606084811b8216602084015283901b166034820152919350915086906048016040516020818303038152906040528051906020012060405180602001620008249062000e88565b6020820181038252601f19601f820116604052508051906020012060405160200162000885939291906001600160f81b0319815260609390931b6bffffffffffffffffffffffff191660018401526015830191909152603582015260550190565b60408051601f1981840301815291905280516020909101209695505050505050565b6040516001600160a01b038481166024830152838116604483015260648201839052600091829187169060840160408051601f198184030181529181526020820180516001600160e01b03166323b872dd60e01b179052516200090b9190620012ba565b6000604051808303816000865af19150503d80600081146200094a576040519150601f19603f3d011682016040523d82523d6000602084013e6200094f565b606091505b50915091508180156200097d5750805115806200097d5750808060200190518101906200097d919062001237565b620009c05760405162461bcd60e51b815260206004820152601260248201527114d85999551c985b9cd9995c91985a5b195960721b604482015260640162000205565b505050505050565b60005b60018351620009db9190620011de565b81101562000bb357600080848381518110620009fb57620009fb620011fa565b60200260200101518584600162000a139190620012eb565b8151811062000a265762000a26620011fa565b602002602001015191509150600062000a40838362000e55565b50905060008762000a53866001620012eb565b8151811062000a665762000a66620011fa565b60200260200101519050600080836001600160a01b0316866001600160a01b03161462000a965782600062000a9a565b6000835b91509150600060028a5162000ab09190620011de565b881062000abe578862000aff565b60005462000aff906001600160a01b0316878c62000ade8c6002620012eb565b8151811062000af15762000af1620011fa565b6020026020010151620007bb565b60005490915062000b1b906001600160a01b03168888620007bb565b60405163022c0d9f60e01b815260048101859052602481018490526001600160a01b0383811660448301526080606483015260006084830152919091169063022c0d9f9060a401600060405180830381600087803b15801562000b7d57600080fd5b505af115801562000b92573d6000803e3d6000fd5b5050505050505050505050808062000baa9062001301565b915050620009cb565b50505050565b60008054604051633274946160e01b81526001600160a01b0391821660048201528882166024820152908716604482015281908190819073__$818bb5b50ea54887bdf560cf00a7c4ee36$__906332749461906064016040805180830381865af415801562000c2c573d6000803e3d6000fd5b505050506040513d601f19601f8201168201806040525081019062000c5291906200125b565b9150915081600014801562000c65575080155b1562000c775787935086925062000e48565b604051632b58577b60e21b815260048101899052602481018390526044810182905260009073__$818bb5b50ea54887bdf560cf00a7c4ee36$__9063ad615dec90606401602060405180830381865af415801562000cd9573d6000803e3d6000fd5b505050506040513d601f19601f8201168201806040525081019062000cff9190620012a0565b905087811162000d5c5785811162000d505760405162461bcd60e51b8152602060048201526013602482015272125b9cdd59999a58da595b9d10905b5bdd5b9d606a1b604482015260640162000205565b88945092508262000e46565b604051632b58577b60e21b815260048101899052602481018390526044810184905260009073__$818bb5b50ea54887bdf560cf00a7c4ee36$__9063ad615dec90606401602060405180830381865af415801562000dbe573d6000803e3d6000fd5b505050506040513d601f19601f8201168201806040525081019062000de49190620012a0565b90508981111562000df95762000df96200131d565b87811162000e405760405162461bcd60e51b8152602060048201526013602482015272125b9cdd59999a58da595b9d10505b5bdd5b9d606a1b604482015260640162000205565b94508793505b505b5050965096945050505050565b600080826001600160a01b0316846001600160a01b03161062000e7a57828462000e7d565b83835b915091509250929050565b61241f806200133483390190565b6001600160a01b038116811462000eac57600080fd5b50565b60008060008060006080868803121562000ec857600080fd5b8535945060208601359350604086013567ffffffffffffffff8082111562000eef57600080fd5b818801915088601f83011262000f0457600080fd5b81358181111562000f1457600080fd5b8960208260051b850101111562000f2a57600080fd5b602083019550809450505050606086013562000f468162000e96565b809150509295509295909350565b6020808252825182820181905260009190848201906040850190845b8181101562000f8e5783518352928401929184019160010162000f70565b50909695505050505050565b60008060008060008060c0878903121562000fb457600080fd5b863562000fc18162000e96565b9550602087013562000fd38162000e96565b945060408701359350606087013592506080870135915060a087013562000ffa8162000e96565b809150509295509295509295565b600080600080600080600060e0888a0312156200102457600080fd5b8735620010318162000e96565b96506020880135620010438162000e96565b955060408801359450606088013593506080880135925060a0880135915060c0880135620010718162000e96565b8091505092959891949750929550565b6001600160a01b03858116825260208083018690526060604084018190528301849052600091859160808501845b87811015620010da578435620010c58162000e96565b841682529382019390820190600101620010af565b509998505050505050505050565b634e487b7160e01b600052604160045260246000fd5b600060208083850312156200111257600080fd5b825167ffffffffffffffff808211156200112b57600080fd5b818501915085601f8301126200114057600080fd5b815181811115620011555762001155620010e8565b8060051b604051601f19603f830116810181811085821117156200117d576200117d620010e8565b6040529182528482019250838101850191888311156200119c57600080fd5b938501935b82851015620011bc57845184529385019392850192620011a1565b98975050505050505050565b634e487b7160e01b600052601160045260246000fd5b81810381811115620011f457620011f4620011c8565b92915050565b634e487b7160e01b600052603260045260246000fd5b6000602082840312156200122357600080fd5b8135620012308162000e96565b9392505050565b6000602082840312156200124a57600080fd5b815180151581146200123057600080fd5b600080604083850312156200126f57600080fd5b505080516020909101519092909150565b6000602082840312156200129357600080fd5b8151620012308162000e96565b600060208284031215620012b357600080fd5b5051919050565b6000825160005b81811015620012dd5760208186018101518583015201620012c1565b506000920191825250919050565b80820180821115620011f457620011f4620011c8565b600060018201620013165762001316620011c8565b5060010190565b634e487b7160e01b600052600160045260246000fdfe60e06040526001600d553480156200001657600080fd5b506040518060400160405280600981526020016826bcab193830b4b93960b91b8152506040518060400160405280600581526020016426ab19283960d91b815250601482600090816200006a9190620001dd565b506001620000798382620001dd565b5060ff81166080524660a0526200008f6200009c565b60c0525062000327915050565b60007f8b73c3c69bb8fe3d512ecc4cf759cc79239f7b179b0ffacaa9a75d522b39400f6000604051620000d09190620002a9565b6040805191829003822060208301939093528101919091527fc89efdaa54c0f20c7adf612882df0950f5a951637e0307cdcb4c672f298b8bc660608201524660808201523060a082015260c00160405160208183030381529060405280519060200120905090565b634e487b7160e01b600052604160045260246000fd5b600181811c908216806200016357607f821691505b6020821081036200018457634e487b7160e01b600052602260045260246000fd5b50919050565b601f821115620001d857600081815260208120601f850160051c81016020861015620001b35750805b601f850160051c820191505b81811015620001d457828155600101620001bf565b5050505b505050565b81516001600160401b03811115620001f957620001f962000138565b62000211816200020a84546200014e565b846200018a565b602080601f831160018114620002495760008415620002305750858301515b600019600386901b1c1916600185901b178555620001d4565b600085815260208120601f198616915b828110156200027a5788860151825594840194600190910190840162000259565b5085821015620002995787850151600019600388901b60f8161c191681555b5050505050600190811b01905550565b6000808354620002b9816200014e565b60018281168015620002d45760018114620002ea576200031b565b60ff19841687528215158302870194506200031b565b8760005260208060002060005b85811015620003125781548a820152908401908201620002f7565b50505082870194505b50929695505050505050565b60805160a05160c0516120c8620003576000396000610b5e01526000610b290152600061029201526120c86000f3fe608060405234801561001057600080fd5b50600436106101a95760003560e01c806370a08231116100f9578063bc25cf7711610097578063d505accf11610071578063d505accf146103fd578063d9fc83c614610410578063dd62ed3e14610423578063fff6cae91461044e57600080fd5b8063bc25cf77146103c4578063c45a0155146103d7578063d21220a7146103ea57600080fd5b806389afcb44116100d357806389afcb441461037857806395d89b41146103a0578063a9059cbb146103a8578063ba9a7a56146103bb57600080fd5b806370a082311461032f5780637464fc3d1461034f5780637ecebe001461035857600080fd5b806323b872dd11610166578063485cc95511610140578063485cc955146102ce5780635909c0d51461030a5780635a3d5493146103135780636a6278421461031c57600080fd5b806323b872dd1461027a578063313ce5671461028d5780633644e515146102c657600080fd5b8063022c0d9f146101ae57806306fdde03146101c35780630902f1ac146101e1578063095ea7b3146102155780630dfe16811461023857806318160ddd14610263575b600080fd5b6101c16101bc366004611b80565b610456565b005b6101cb610920565b6040516101d89190611c38565b60405180910390f35b6101e96109ae565b604080516001600160701b03948516815293909216602084015263ffffffff16908201526060016101d8565b610228610223366004611c6b565b6109d8565b60405190151581526020016101d8565b60075461024b906001600160a01b031681565b6040516001600160a01b0390911681526020016101d8565b61026c60025481565b6040519081526020016101d8565b610228610288366004611c95565b610a45565b6102b47f000000000000000000000000000000000000000000000000000000000000000081565b60405160ff90911681526020016101d8565b61026c610b25565b6101c16102dc366004611cd1565b600780546001600160a01b039384166001600160a01b03199182161790915560088054929093169116179055565b61026c600a5481565b61026c600b5481565b61026c61032a366004611d04565b610b80565b61026c61033d366004611d04565b60036020526000908152604090205481565b61026c600c5481565b61026c610366366004611d04565b60056020526000908152604090205481565b61038b610386366004611d04565b610df2565b604080519283526020830191909152016101d8565b6101cb611110565b6102286103b6366004611c6b565b61111d565b61026c6103e881565b6101c16103d2366004611d04565b611183565b60065461024b906001600160a01b031681565b60085461024b906001600160a01b031681565b6101c161040b366004611d1f565b6112bc565b6101c161041e366004611da9565b611500565b61026c610431366004611cd1565b600460209081526000928352604080842090915290825290205481565b6101c1611512565b600d546001146104a15760405162461bcd60e51b8152602060048201526011602482015270155b9a5cddd85c158c8e881313d0d2d151607a1b60448201526064015b60405180910390fd5b6000600d55841515806104b45750600084115b61050e5760405162461bcd60e51b815260206004820152602560248201527f556e697377617056323a20494e53554646494349454e545f4f55545055545f416044820152641353d5539560da1b6064820152608401610498565b6000806105196109ae565b5091509150816001600160701b03168710801561053e5750806001600160701b031686105b6105945760405162461bcd60e51b815260206004820152602160248201527f556e697377617056323a20494e53554646494349454e545f4c495155494449546044820152605960f81b6064820152608401610498565b60008088156105b4576007546105b4906001600160a01b0316888b611624565b87156105d1576008546105d1906001600160a01b0316888a611624565b841561063e576040516304347a1760e21b81526001600160a01b038816906310d1e85c9061060b9033908d908d908c908c90600401611def565b600060405180830381600087803b15801561062557600080fd5b505af1158015610639573d6000803e3d6000fd5b505050505b6007546040516370a0823160e01b81523060048201526001600160a01b03909116906370a08231906024016020604051808303816000875af1158015610688573d6000803e3d6000fd5b505050506040513d601f19601f820116820180604052508101906106ac9190611e3b565b6008546040516370a0823160e01b81523060048201529193506001600160a01b0316906370a08231906024016020604051808303816000875af11580156106f7573d6000803e3d6000fd5b505050506040513d601f19601f8201168201806040525081019061071b9190611e3b565b905060006107328a6001600160701b038716611e6a565b831161073f57600061075c565b6107528a6001600160701b038716611e6a565b61075c9084611e6a565b905060006107738a6001600160701b038716611e6a565b831161078057600061079d565b6107938a6001600160701b038716611e6a565b61079d9084611e6a565b905060008211806107ae5750600081115b6108065760405162461bcd60e51b8152602060048201526024808201527f556e697377617056323a20494e53554646494349454e545f494e5055545f414d60448201526313d5539560e21b6064820152608401610498565b6000610813836003611e7d565b61081f866103e8611e7d565b6108299190611e6a565b90506000610838836003611e7d565b610844866103e8611e7d565b61084e9190611e6a565b90506108666001600160701b03808916908a16611e7d565b61087390620f4240611e7d565b61087d8284611e7d565b10156108ba5760405162461bcd60e51b815260206004820152600c60248201526b556e697377617056323a204b60a01b6044820152606401610498565b50506108c884848888611771565b604080518c8152602081018c90526001600160a01b038b169133917f2a9237ff5aa599ef4c5ee4b1142b53429d5755e2685fe6288b2e3320202115f5910160405180910390a350506001600d55505050505050505050565b6000805461092d90611e94565b80601f016020809104026020016040519081016040528092919081815260200182805461095990611e94565b80156109a65780601f1061097b576101008083540402835291602001916109a6565b820191906000526020600020905b81548152906001019060200180831161098957829003601f168201915b505050505081565b6009546001600160701b0380821692600160701b830490911691600160e01b900463ffffffff1690565b3360008181526004602090815260408083206001600160a01b038716808552925280832085905551919290917f8c5be1e5ebec7d5bd14f71427d1e84f3dd0314c0f7b2291e5b200ac8c7c3b92590610a339086815260200190565b60405180910390a35060015b92915050565b6001600160a01b03831660009081526004602090815260408083203384529091528120546000198114610aa157610a7c8382611e6a565b6001600160a01b03861660009081526004602090815260408083203384529091529020555b6001600160a01b03851660009081526003602052604081208054859290610ac9908490611e6a565b90915550506001600160a01b038085166000818152600360205260409081902080548701905551909187169060008051602061207383398151915290610b129087815260200190565b60405180910390a3506001949350505050565b60007f00000000000000000000000000000000000000000000000000000000000000004614610b5b57610b5661195d565b905090565b507f000000000000000000000000000000000000000000000000000000000000000090565b6000806000610b8d6109ae565b506007546040516370a0823160e01b81523060048201529294509092506000916001600160a01b03909116906370a08231906024016020604051808303816000875af1158015610be1573d6000803e3d6000fd5b505050506040513d601f19601f82011682018060405250810190610c059190611e3b565b6008546040516370a0823160e01b81523060048201529192506000916001600160a01b03909116906370a08231906024016020604051808303816000875af1158015610c55573d6000803e3d6000fd5b505050506040513d601f19601f82011682018060405250810190610c799190611e3b565b90506000610c906001600160701b03861684611e6a565b90506000610ca76001600160701b03861684611e6a565b9050600254600003610ce6576103e8610cc8610cc38385611e7d565b6119f7565b610cd29190611e6a565b9650610ce160006103e8611a67565b610d35565b610d32866001600160701b031660025484610d019190611e7d565b610d0b9190611ede565b866001600160701b031660025484610d239190611e7d565b610d2d9190611ede565b611ac1565b96505b60008711610d965760405162461bcd60e51b815260206004820152602860248201527f556e697377617056323a20494e53554646494349454e545f4c495155494449546044820152671657d3525395115160c21b6064820152608401610498565b610da08888611a67565b610dac84848888611771565b604080518381526020810183905233917f4c209b5fc8ad50758f13e2e1088ba56a560dff690a1c6fef26394f4c03821c4f910160405180910390a2505050505050919050565b6007546040516370a0823160e01b8152306004820152600091829182916001600160a01b0316906370a08231906024016020604051808303816000875af1158015610e41573d6000803e3d6000fd5b505050506040513d601f19601f82011682018060405250810190610e659190611e3b565b6008546040516370a0823160e01b81523060048201529192506000916001600160a01b03909116906370a08231906024016020604051808303816000875af1158015610eb5573d6000803e3d6000fd5b505050506040513d601f19601f82011682018060405250810190610ed99190611e3b565b3060009081526003602052604090205460025491925090610efa8483611e7d565b610f049190611ede565b600254909550610f148383611e7d565b610f1e9190611ede565b9350600085118015610f305750600084115b610f8d5760405162461bcd60e51b815260206004820152602860248201527f556e697377617056323a20494e53554646494349454e545f4c495155494449546044820152671657d0955493915160c21b6064820152608401610498565b610f973082611ad9565b600754610fae906001600160a01b03168787611624565b600854610fc5906001600160a01b03168786611624565b6007546040516370a0823160e01b81523060048201526001600160a01b03909116906370a08231906024016020604051808303816000875af115801561100f573d6000803e3d6000fd5b505050506040513d601f19601f820116820180604052508101906110339190611e3b565b6008546040516370a0823160e01b81523060048201529194506001600160a01b0316906370a08231906024016020604051808303816000875af115801561107e573d6000803e3d6000fd5b505050506040513d601f19601f820116820180604052508101906110a29190611e3b565b91506000806110af6109ae565b50915091506110c085858484611771565b60408051888152602081018890526001600160a01b038a169133917fdccd412f0b1252819cb1fd330b93224ca42612892bb3f4f789976e6d81936496910160405180910390a35050505050915091565b6001805461092d90611e94565b3360009081526003602052604081208054839190839061113e908490611e6a565b90915550506001600160a01b0383166000818152600360205260409081902080548501905551339060008051602061207383398151915290610a339086815260200190565b600d546001146111c95760405162461bcd60e51b8152602060048201526011602482015270155b9a5cddd85c158c8e881313d0d2d151607a1b6044820152606401610498565b6000600d556007546008546009546040516370a0823160e01b81523060048201526001600160a01b03938416939092169161126a91849186916001600160701b03169083906370a08231906024015b6020604051808303816000875af1158015611237573d6000803e3d6000fd5b505050506040513d601f19601f8201168201806040525081019061125b9190611e3b565b6112659190611e6a565b611624565b6009546040516370a0823160e01b81523060048201526112b29183918691600160701b90046001600160701b0316906001600160a01b038416906370a0823190602401611218565b50506001600d5550565b4284101561130c5760405162461bcd60e51b815260206004820152601760248201527f5045524d49545f444541444c494e455f455850495245440000000000000000006044820152606401610498565b60006001611318610b25565b6001600160a01b038a811660008181526005602090815260409182902080546001810190915582517f6e71edae12b1b97f4d1f60370fef10105fa2faae0126114a169c64845d6126c98184015280840194909452938d166060840152608083018c905260a083019390935260c08083018b90528151808403909101815260e08301909152805192019190912061190160f01b6101008301526101028201929092526101228101919091526101420160408051601f198184030181528282528051602091820120600084529083018083525260ff871690820152606081018590526080810184905260a0016020604051602081039080840390855afa158015611424573d6000803e3d6000fd5b5050604051601f1901519150506001600160a01b0381161580159061145a5750876001600160a01b0316816001600160a01b0316145b6114975760405162461bcd60e51b815260206004820152600e60248201526d24a72b20a624a22fa9a4a3a722a960911b6044820152606401610498565b6001600160a01b0390811660009081526004602090815260408083208a8516808552908352928190208990555188815291928a16917f8c5be1e5ebec7d5bd14f71427d1e84f3dd0314c0f7b2291e5b200ac8c7c3b925910160405180910390a350505050505050565b61150c84848484611771565b50505050565b60008061151d6109ae565b506007546040516370a0823160e01b8152306004820152929450909250611620916001600160a01b03909116906370a08231906024016020604051808303816000875af1158015611572573d6000803e3d6000fd5b505050506040513d601f19601f820116820180604052508101906115969190611e3b565b6008546040516370a0823160e01b81523060048201526001600160a01b03909116906370a08231906024016020604051808303816000875af11580156115e0573d6000803e3d6000fd5b505050506040513d601f19601f820116820180604052508101906116049190611e3b565b6009546001600160701b0380821691600160701b900416611771565b5050565b604080518082018252601981527f7472616e7366657228616464726573732c75696e74323536290000000000000060209182015281516001600160a01b0385811660248301526044808301869052845180840390910181526064909201845291810180516001600160e01b031663a9059cbb60e01b17905291516000926060928716916116b19190611ef2565b6000604051808303816000865af19150503d80600081146116ee576040519150601f19603f3d011682016040523d82523d6000602084013e6116f3565b606091505b50909250905081801561171e57508051158061171e57508080602001905181019061171e9190611f0e565b61176a5760405162461bcd60e51b815260206004820152601a60248201527f556e697377617056323a205452414e534645525f4641494c45440000000000006044820152606401610498565b5050505050565b6001600160701b03841180159061178f57506001600160701b038311155b6117d15760405162461bcd60e51b8152602060048201526013602482015272556e697377617056323a204f564552464c4f5760681b6044820152606401610498565b60006117e264010000000042611f30565b60095490915060009061180290600160e01b900463ffffffff1683611f44565b905060008163ffffffff1611801561182257506001600160701b03841615155b801561183657506001600160701b03831615155b156118c5578063ffffffff1661185e8561184f86611b3b565b6001600160e01b031690611b54565b6001600160e01b03166118719190611e7d565b600a60008282546118829190611f68565b909155505063ffffffff811661189b8461184f87611b3b565b6001600160e01b03166118ae9190611e7d565b600b60008282546118bf9190611f68565b90915550505b6009805463ffffffff8416600160e01b026001600160e01b036001600160701b03898116600160701b9081026001600160e01b03199095168c83161794909417918216831794859055604080519382169282169290921783529290930490911660208201527fcf2aa50876cdfbb541206f89af0ee78d44a2abf8d328e37fa4917f982149848a910160405180910390a1505050505050565b60007f8b73c3c69bb8fe3d512ecc4cf759cc79239f7b179b0ffacaa9a75d522b39400f600060405161198f9190611f7b565b6040805191829003822060208301939093528101919091527fc89efdaa54c0f20c7adf612882df0950f5a951637e0307cdcb4c672f298b8bc660608201524660808201523060a082015260c00160405160208183030381529060405280519060200120905090565b60006003821115611a585750806000611a11600283611ede565b611a1c906001611f68565b90505b81811015611a5257905080600281611a378186611ede565b611a419190611f68565b611a4b9190611ede565b9050611a1f565b50919050565b8115611a62575060015b919050565b8060026000828254611a799190611f68565b90915550506001600160a01b03821660008181526003602090815260408083208054860190555184815260008051602061207383398151915291015b60405180910390a35050565b6000818310611ad05781611ad2565b825b9392505050565b6001600160a01b03821660009081526003602052604081208054839290611b01908490611e6a565b90915550506002805482900390556040518181526000906001600160a01b0384169060008051602061207383398151915290602001611ab5565b6000610a3f600160701b6001600160701b03841661201a565b6000611ad26001600160701b0383168461204c565b80356001600160a01b0381168114611a6257600080fd5b600080600080600060808688031215611b9857600080fd5b8535945060208601359350611baf60408701611b69565b9250606086013567ffffffffffffffff80821115611bcc57600080fd5b818801915088601f830112611be057600080fd5b813581811115611bef57600080fd5b896020828501011115611c0157600080fd5b9699959850939650602001949392505050565b60005b83811015611c2f578181015183820152602001611c17565b50506000910152565b6020815260008251806020840152611c57816040850160208701611c14565b601f01601f19169190910160400192915050565b60008060408385031215611c7e57600080fd5b611c8783611b69565b946020939093013593505050565b600080600060608486031215611caa57600080fd5b611cb384611b69565b9250611cc160208501611b69565b9150604084013590509250925092565b60008060408385031215611ce457600080fd5b611ced83611b69565b9150611cfb60208401611b69565b90509250929050565b600060208284031215611d1657600080fd5b611ad282611b69565b600080600080600080600060e0888a031215611d3a57600080fd5b611d4388611b69565b9650611d5160208901611b69565b95506040880135945060608801359350608088013560ff81168114611d7557600080fd5b9699959850939692959460a0840135945060c09093013592915050565b80356001600160701b0381168114611a6257600080fd5b60008060008060808587031215611dbf57600080fd5b8435935060208501359250611dd660408601611d92565b9150611de460608601611d92565b905092959194509250565b60018060a01b038616815284602082015283604082015260806060820152816080820152818360a0830137600081830160a090810191909152601f909201601f19160101949350505050565b600060208284031215611e4d57600080fd5b5051919050565b634e487b7160e01b600052601160045260246000fd5b81810381811115610a3f57610a3f611e54565b8082028115828204841417610a3f57610a3f611e54565b600181811c90821680611ea857607f821691505b602082108103611a5257634e487b7160e01b600052602260045260246000fd5b634e487b7160e01b600052601260045260246000fd5b600082611eed57611eed611ec8565b500490565b60008251611f04818460208701611c14565b9190910192915050565b600060208284031215611f2057600080fd5b81518015158114611ad257600080fd5b600082611f3f57611f3f611ec8565b500690565b63ffffffff828116828216039080821115611f6157611f61611e54565b5092915050565b80820180821115610a3f57610a3f611e54565b600080835481600182811c915080831680611f9757607f831692505b60208084108203611fb657634e487b7160e01b86526022600452602486fd5b818015611fca5760018114611fdf5761200c565b60ff198616895284151585028901965061200c565b60008a81526020902060005b868110156120045781548b820152908501908301611feb565b505084890196505b509498975050505050505050565b6001600160e01b0382811682821681810283169291811582850482141761204357612043611e54565b50505092915050565b60006001600160e01b038381168061206657612066611ec8565b9216919091049291505056feddf252ad1be2c89b69c2b068fc378daa952ba7f163c4a11628f55a4df523b3efa264697066735822122032659115d0b406b099acfc2a27b8ea3087df7a0a94132e93fc86f4e9e659605564736f6c63430008130033a26469706673582212206fdde987d8d280d208c0b85b4f651531880548ddde83c5f9a43fb25843d4810164736f6c63430008130033",
    "linkReferences": {
      "src/periphery/libraries/UniswapV2Library.sol": {
        "UniswapV2Helper": [
          {
            "start": 421,
            "length": 20
          },
          {
            "start": 968,
            "length": 20
          },
          {
            "start": 3205,
            "length": 20
          },
          {
            "start": 3377,
            "length": 20
          },
          {
            "start": 3606,
            "length": 20
          }
        ]
      }
    }
  },
  "methodIdentifiers": {
    "addLiquidity(address,address,uint256,uint256,uint256,uint256,address)": "ca3d6539",
    "removeLiquidity(address,address,uint256,uint256,uint256,address)": "c0e3ee6b",
    "swapExactTokensForTokens(uint256,uint256,address[],address)": "472b43f3",
    "swapTokensForExactTokens(uint256,uint256,address[],address)": "42712a67"
  },
  "id": 40
}