{"contracts/NFTDutchAuction.sol":{"NFTDutchAuction":{"abi":[{"inputs":[{"internalType":"address","name":"_erc721TokenAddress","type":"address"},{"internalType":"uint256","name":"_nftTokenId","type":"uint256"},{"internalType":"uint256","name":"_reservePrice","type":"uint256"},{"internalType":"uint256","name":"_numBlocksAuctionOpen","type":"uint256"},{"internalType":"uint256","name":"_offerPriceDecrement","type":"uint256"}],"stateMutability":"nonpayable","type":"constructor"},{"anonymous":false,"inputs":[{"indexed":false,"internalType":"uint8","name":"version","type":"uint8"}],"name":"Initialized","type":"event"},{"inputs":[],"name":"auctionClosed","outputs":[{"internalType":"bool","name":"","type":"bool"}],"stateMutability":"view","type":"function"},{"inputs":[],"name":"auctionEnd","outputs":[{"internalType":"uint256","name":"","type":"uint256"}],"stateMutability":"view","type":"function"},{"inputs":[],"name":"auction_winner","outputs":[{"internalType":"address","name":"","type":"address"}],"stateMutability":"view","type":"function"},{"inputs":[],"name":"bid","outputs":[{"internalType":"address","name":"","type":"address"}],"stateMutability":"payable","type":"function"},{"inputs":[],"name":"currentPrice","outputs":[{"internalType":"uint256","name":"","type":"uint256"}],"stateMutability":"view","type":"function"},{"inputs":[],"name":"erc721TokenAddress","outputs":[{"internalType":"address","name":"","type":"address"}],"stateMutability":"view","type":"function"},{"inputs":[],"name":"initialPrice","outputs":[{"internalType":"uint256","name":"","type":"uint256"}],"stateMutability":"view","type":"function"},{"inputs":[],"name":"seller","outputs":[{"internalType":"address","name":"","type":"address"}],"stateMutability":"view","type":"function"},{"inputs":[{"internalType":"contract IMintContract","name":"_mintContract","type":"address"}],"name":"setMintContract","outputs":[],"stateMutability":"nonpayable","type":"function"}],"evm":{"bytecode":{"linkReferences":{},"object":"60806040523480156200001157600080fd5b506040516200151d3803806200151d83398181016040528101906200003791906200062d565b6200006b7f8179094f54fe712a7431adf245958ebc7014d049efd799e025e5cdce8d0ccbc660001b6200058560201b60201c565b6200009f7fae9e7d4743ea1bfa9a32df9b3231476ccdcc71344631f8e1d829d957c8e0258b60001b6200058560201b60201c565b620000d37fe9885f34678a5e0a4a11e0d946a09b033b5b102882b5e4640aaf9d9c241ba97a60001b6200058560201b60201c565b84600b60006101000a81548173ffffffffffffffffffffffffffffffffffffffff021916908373ffffffffffffffffffffffffffffffffffffffff160217905550620001487f325942b61aa32e0f8a51caaabdcbe994accab488231d5e24d6fb05644946c51960001b6200058560201b60201c565b6200017c7feb7be50f7ec374b92373987e6a855885c44d82c04a13b4b1549b3136b242220160001b6200058560201b60201c565b83600981905550620001b77f0772a2c7e746d4f8d401be4b18d455a5153d84c34225565c0cdb30d3920b33a760001b6200058560201b60201c565b620001eb7f4d76710f48838bc65797e150ede6f4d7cd04c070583cd28dd97d73b51e5dee5060001b6200058560201b60201c565b82600181905550620002267fb2edc690b219874bcd457215dc768ad01173f63ad943ca1d1d712de57fb4916860001b6200058560201b60201c565b6200025a7fa8e6d8c6ca8929b81f1e16200d04bb9f9d83b4ffd4093ee3cf0e5e63e7bf937360001b6200058560201b60201c565b81600281905550620002957f77209c5df76f61feb57b1ac0584a5dca41d9cf788ad7e78e202b9816c7f8a3e760001b6200058560201b60201c565b620002c97fd32b0ccbd6937d2489b1fc543b68bbc99988cfa0f30b22c0abf40e3ad16bcf3360001b6200058560201b60201c565b80600381905550620003047fad683d7ba2d9bbecc857f31f89b009760b7bb3ebdcbd08d1ede234031feeda4460001b6200058560201b60201c565b620003387f661ca6fc35186764cfc7c5d80d33c9ce6d09231d8ebfa9e000d8897bdce9366d60001b6200058560201b60201c565b6003546002546200034a9190620006e4565b6001546200035991906200072f565b600481905550620003937f2a0dcdee7b25c3fd9b1d1959f757b083780aa920a3f25a7ce5683b5e9aa6c4c660001b6200058560201b60201c565b620003c77f2cfd142826dd4e2b274b4c85883331fb68577eef6fbb59551e88893c211ba41c60001b6200058560201b60201c565b600454600a81905550620004047ff3432c6744a6d497c44d07359a45a47473b30bac15ff15f603fb9b8b9ea516f760001b6200058560201b60201c565b620004387fbfc7351ee35313c3fa6e7068279080c714a05b10cdb3bfdd9d4bfa42f67ef72260001b6200058560201b60201c565b600254436200044891906200072f565b600781905550620004827fea5cc70b30c2b04036a98106d6c48703756bd5b1e1fb232e5a39b4fca8e4680160001b6200058560201b60201c565b620004b67f322d6b8400a39e4df4de8f4f835a4083e5767a33af1355c0df016f7d94a9adc160001b6200058560201b60201c565b6000600860006101000a81548160ff021916908315150217905550620005057fbea0191ab599701d9d5b777c76ec2a7312ab8ebe1c1282dad91d83d051260d8d60001b6200058560201b60201c565b620005397f4029bdf292e50d12b076582cfcfad651a81eb48e15e95ea9e12c03a420359a5c60001b6200058560201b60201c565b33600560006101000a81548173ffffffffffffffffffffffffffffffffffffffff021916908373ffffffffffffffffffffffffffffffffffffffff16021790555050505050506200076a565b50565b600080fd5b600073ffffffffffffffffffffffffffffffffffffffff82169050919050565b6000620005ba826200058d565b9050919050565b620005cc81620005ad565b8114620005d857600080fd5b50565b600081519050620005ec81620005c1565b92915050565b6000819050919050565b6200060781620005f2565b81146200061357600080fd5b50565b6000815190506200062781620005fc565b92915050565b600080600080600060a086880312156200064c576200064b62000588565b5b60006200065c88828901620005db565b95505060206200066f8882890162000616565b9450506040620006828882890162000616565b9350506060620006958882890162000616565b9250506080620006a88882890162000616565b9150509295509295909350565b7f4e487b7100000000000000000000000000000000000000000000000000000000600052601160045260246000fd5b6000620006f182620005f2565b9150620006fe83620005f2565b92508282026200070e81620005f2565b91508282048414831517620007285762000727620006b5565b5b5092915050565b60006200073c82620005f2565b91506200074983620005f2565b9250828201905080821115620007645762000763620006b5565b5b92915050565b610da3806200077a6000396000f3fe6080604052600436106100865760003560e01c80633dfe1df9116100595780633dfe1df91461012a5780635fb64a6a146101555780639d1b464a1461017e578063aeaaa299146101a9578063df241cb9146101d457610086565b806308551a531461008b5780631998aeef146100b65780631d0806ae146100d45780632a24f46c146100ff575b600080fd5b34801561009757600080fd5b506100a06101ff565b6040516100ad9190610a7a565b60405180910390f35b6100be610225565b6040516100cb9190610a7a565b60405180910390f35b3480156100e057600080fd5b506100e96108fd565b6040516100f69190610aae565b60405180910390f35b34801561010b57600080fd5b50610114610903565b6040516101219190610aae565b60405180910390f35b34801561013657600080fd5b5061013f610909565b60405161014c9190610a7a565b60405180910390f35b34801561016157600080fd5b5061017c60048036038101906101779190610b0c565b61092f565b005b34801561018a57600080fd5b506101936109f7565b6040516101a09190610aae565b60405180910390f35b3480156101b557600080fd5b506101be6109fd565b6040516101cb9190610b54565b60405180910390f35b3480156101e057600080fd5b506101e9610a10565b6040516101f69190610a7a565b60405180910390f35b600560009054906101000a900473ffffffffffffffffffffffffffffffffffffffff1681565b60006102537f73e489e1088f95fab91b7858b886cfe3de822a32cbdb13b0073091627f290f6660001b610a36565b61027f7f9846b6eef710ccf6c1fefd9b4d012e1e36453c8eb5c8127e8c4094707cf3889260001b610a36565b6102ab7f54306a64547afdd42e15a64c8ef1e3efbfce8f404bed3697cbe6490cad20a3b960001b610a36565b6102d77f1f6f54146c404fe2a10fa8a9834d74d2dfc9368fcb785da0e3362be038dc30df60001b610a36565b60075443111561031c576040517f08c379a000000000000000000000000000000000000000000000000000000000815260040161031390610bf2565b60405180910390fd5b6103487f35953e31e1f5762e8ccca8a2730863d5fb74b9651f13e036c0daeb327d6caf3060001b610a36565b6103747f1661f9214adde78ff99befae7a02da221cdd65e9a634713df4036cafb1ad69e160001b610a36565b6103a07ff38dccba0d321ae294efdade5cca0f33761c780fb90ccd01b18cbf9822362b9e60001b610a36565b6103cc7f4a6751920306470b1de25335670276b29d5c36c587b1551212a6feb28f0f33bd60001b610a36565b600454341015610411576040517f08c379a000000000000000000000000000000000000000000000000000000000815260040161040890610c84565b60405180910390fd5b61043d7f6996d51d8456002bb6bddaa840486681bfdb5033cd4c63534959ec3c038ea52f60001b610a36565b6104697fdf1b98141649be5ef78ed1646f61f19bd837b81ed95b8fe032465f1e5bd8e82160001b610a36565b6104957faaa41f000d39c39f285bd91043d35874f527650bc3f6158ff8a68f76ba163aee60001b610a36565b6104c17f0ede2034d2ba8d26e1fffb88ae331f09f762e4861d23c903c8b84e4ce7cb0ae760001b610a36565b60001515600860009054906101000a900460ff16151514610517576040517f08c379a000000000000000000000000000000000000000000000000000000000815260040161050e90610d16565b60405180910390fd5b6105437f61e04a4164d31a34aac305debe7ac6a259c79402346713a9aa5868c57c4d0aed60001b610a36565b61056f7f78c31a7a23a0665bc54ade1e7bf7cb4d948484378e16b155c9250542032450db60001b610a36565b61059b7fda136000b8ac7425ca0a89cdf8d8d106415b4661f60ba6ee2b463ae7615b710460001b610a36565b33600660006101000a81548173ffffffffffffffffffffffffffffffffffffffff021916908373ffffffffffffffffffffffffffffffffffffffff1602179055506106087f0d24fa5f1758452a27807d964737af016b8d8ebcf6cf9992af41832c525a009c60001b610a36565b6106347f2fdb04e7de1be2d71610f474dd9e9f603975d5c926f4a866eff2693b379082f660001b610a36565b60006004819055506106687fdbde218fc56f1651ec045ed4dfc08efde37ea522753b8738f991bb0f00c2ea5d60001b610a36565b6106947f17756e531a9ad9f60be927c785cf64e150719ff4f59f675b7a076b163dea6bf560001b610a36565b6001600860006101000a81548160ff0219169083151502179055506106db7f218b1f27427e364ae6b01346c4c31765d8e6334b7fdceaa3e4dbff814df021fb60001b610a36565b6107077f29ae1b97375c2eafa95d9d82368f0230b3ffd34e76cfa009c379eb3cbaefed4c60001b610a36565b3373ffffffffffffffffffffffffffffffffffffffff166108fc349081150290604051600060405180830381858888f1935050505015801561074d573d6000803e3d6000fd5b5061077a7f5c4b094ed3ec8330ad58f886de577f9cc510d87f680586eae59ab94aaa292b7460001b610a36565b6107a67ffc3891e197054f37ef6282397a178ac9911ebb6d18a6c1f1c8b99760cee1a5b260001b610a36565b600060029054906101000a900473ffffffffffffffffffffffffffffffffffffffff1673ffffffffffffffffffffffffffffffffffffffff166342842e0e600560009054906101000a900473ffffffffffffffffffffffffffffffffffffffff16600660009054906101000a900473ffffffffffffffffffffffffffffffffffffffff166009546040518463ffffffff1660e01b815260040161084b93929190610d36565b600060405180830381600087803b15801561086557600080fd5b505af1158015610879573d6000803e3d6000fd5b505050506108a97f2e35494488399ab40b6bc402e3bc67e21d38951ebc555b87dc3a80904c5dce2c60001b610a36565b6108d57f8ccbe9c518e322cd84ec89a909041f11044544370fce2793d53a1cb19ac5fd9a60001b610a36565b600660009054906101000a900473ffffffffffffffffffffffffffffffffffffffff16905090565b60045481565b60075481565b600660009054906101000a900473ffffffffffffffffffffffffffffffffffffffff1681565b61095b7fdb113f3231c95e39667d50c27b192a3b0aa2f79554d9392fceb72243981c251c60001b610a36565b6109877f11c648d353b30eed2a587844d87ba9a8f6489198284b91e755145170db382b9060001b610a36565b6109b37f2b0bf72b5a46e47e8f396cf081bdc33303d9ed59b466891fd5204ce9f269a1d560001b610a36565b80600060026101000a81548173ffffffffffffffffffffffffffffffffffffffff021916908373ffffffffffffffffffffffffffffffffffffffff16021790555050565b600a5481565b600860009054906101000a900460ff1681565b600b60009054906101000a900473ffffffffffffffffffffffffffffffffffffffff1681565b50565b600073ffffffffffffffffffffffffffffffffffffffff82169050919050565b6000610a6482610a39565b9050919050565b610a7481610a59565b82525050565b6000602082019050610a8f6000830184610a6b565b92915050565b6000819050919050565b610aa881610a95565b82525050565b6000602082019050610ac36000830184610a9f565b92915050565b600080fd5b6000610ad982610a59565b9050919050565b610ae981610ace565b8114610af457600080fd5b50565b600081359050610b0681610ae0565b92915050565b600060208284031215610b2257610b21610ac9565b5b6000610b3084828501610af7565b91505092915050565b60008115159050919050565b610b4e81610b39565b82525050565b6000602082019050610b696000830184610b45565b92915050565b600082825260208201905092915050565b7f41756374696f6e2068617320616c726561647920656e6465642e204e6f206d6f60008201527f7265206269647300000000000000000000000000000000000000000000000000602082015250565b6000610bdc602783610b6f565b9150610be782610b80565b604082019050919050565b60006020820190508181036000830152610c0b81610bcf565b9050919050565b7f4269642076616c7565206973206c657373207468616e2063757272656e74207060008201527f726963652e000000000000000000000000000000000000000000000000000000602082015250565b6000610c6e602583610b6f565b9150610c7982610c12565b604082019050919050565b60006020820190508181036000830152610c9d81610c61565b9050919050565b7f57696e6e657220686173206265656e2063686f73656e2e204e6f206d6f72652060008201527f62696464696e672e2041756374696f6e20636c6f736564000000000000000000602082015250565b6000610d00603783610b6f565b9150610d0b82610ca4565b604082019050919050565b60006020820190508181036000830152610d2f81610cf3565b9050919050565b6000606082019050610d4b6000830186610a6b565b610d586020830185610a6b565b610d656040830184610a9f565b94935050505056fea264697066735822122027512a87196b5545ed3493c736064f26756ac23e04633afdf2a2a12862dec55264736f6c63430008110033","opcodes":"PUSH1 0x80 PUSH1 0x40 MSTORE CALLVALUE DUP1 ISZERO PUSH3 0x11 JUMPI PUSH1 0x0 DUP1 REVERT JUMPDEST POP PUSH1 0x40 MLOAD PUSH3 0x151D CODESIZE SUB DUP1 PUSH3 0x151D DUP4 CODECOPY DUP2 DUP2 ADD PUSH1 0x40 MSTORE DUP2 ADD SWAP1 PUSH3 0x37 SWAP2 SWAP1 PUSH3 0x62D JUMP JUMPDEST PUSH3 0x6B PUSH32 0x8179094F54FE712A7431ADF245958EBC7014D049EFD799E025E5CDCE8D0CCBC6 PUSH1 0x0 SHL PUSH3 0x585 PUSH1 0x20 SHL PUSH1 0x20 SHR JUMP JUMPDEST PUSH3 0x9F PUSH32 0xAE9E7D4743EA1BFA9A32DF9B3231476CCDCC71344631F8E1D829D957C8E0258B PUSH1 0x0 SHL PUSH3 0x585 PUSH1 0x20 SHL PUSH1 0x20 SHR JUMP JUMPDEST PUSH3 0xD3 PUSH32 0xE9885F34678A5E0A4A11E0D946A09B033B5B102882B5E4640AAF9D9C241BA97A PUSH1 0x0 SHL PUSH3 0x585 PUSH1 0x20 SHL PUSH1 0x20 SHR JUMP JUMPDEST DUP5 PUSH1 0xB PUSH1 0x0 PUSH2 0x100 EXP DUP2 SLOAD DUP2 PUSH20 0xFFFFFFFFFFFFFFFFFFFFFFFFFFFFFFFFFFFFFFFF MUL NOT AND SWAP1 DUP4 PUSH20 0xFFFFFFFFFFFFFFFFFFFFFFFFFFFFFFFFFFFFFFFF AND MUL OR SWAP1 SSTORE POP PUSH3 0x148 PUSH32 0x325942B61AA32E0F8A51CAAABDCBE994ACCAB488231D5E24D6FB05644946C519 PUSH1 0x0 SHL PUSH3 0x585 PUSH1 0x20 SHL PUSH1 0x20 SHR JUMP JUMPDEST PUSH3 0x17C PUSH32 0xEB7BE50F7EC374B92373987E6A855885C44D82C04A13B4B1549B3136B2422201 PUSH1 0x0 SHL PUSH3 0x585 PUSH1 0x20 SHL PUSH1 0x20 SHR JUMP JUMPDEST DUP4 PUSH1 0x9 DUP2 SWAP1 SSTORE POP PUSH3 0x1B7 PUSH32 0x772A2C7E746D4F8D401BE4B18D455A5153D84C34225565C0CDB30D3920B33A7 PUSH1 0x0 SHL PUSH3 0x585 PUSH1 0x20 SHL PUSH1 0x20 SHR JUMP JUMPDEST PUSH3 0x1EB PUSH32 0x4D76710F48838BC65797E150EDE6F4D7CD04C070583CD28DD97D73B51E5DEE50 PUSH1 0x0 SHL PUSH3 0x585 PUSH1 0x20 SHL PUSH1 0x20 SHR JUMP JUMPDEST DUP3 PUSH1 0x1 DUP2 SWAP1 SSTORE POP PUSH3 0x226 PUSH32 0xB2EDC690B219874BCD457215DC768AD01173F63AD943CA1D1D712DE57FB49168 PUSH1 0x0 SHL PUSH3 0x585 PUSH1 0x20 SHL PUSH1 0x20 SHR JUMP JUMPDEST PUSH3 0x25A PUSH32 0xA8E6D8C6CA8929B81F1E16200D04BB9F9D83B4FFD4093EE3CF0E5E63E7BF9373 PUSH1 0x0 SHL PUSH3 0x585 PUSH1 0x20 SHL PUSH1 0x20 SHR JUMP JUMPDEST DUP2 PUSH1 0x2 DUP2 SWAP1 SSTORE POP PUSH3 0x295 PUSH32 0x77209C5DF76F61FEB57B1AC0584A5DCA41D9CF788AD7E78E202B9816C7F8A3E7 PUSH1 0x0 SHL PUSH3 0x585 PUSH1 0x20 SHL PUSH1 0x20 SHR JUMP JUMPDEST PUSH3 0x2C9 PUSH32 0xD32B0CCBD6937D2489B1FC543B68BBC99988CFA0F30B22C0ABF40E3AD16BCF33 PUSH1 0x0 SHL PUSH3 0x585 PUSH1 0x20 SHL PUSH1 0x20 SHR JUMP JUMPDEST DUP1 PUSH1 0x3 DUP2 SWAP1 SSTORE POP PUSH3 0x304 PUSH32 0xAD683D7BA2D9BBECC857F31F89B009760B7BB3EBDCBD08D1EDE234031FEEDA44 PUSH1 0x0 SHL PUSH3 0x585 PUSH1 0x20 SHL PUSH1 0x20 SHR JUMP JUMPDEST PUSH3 0x338 PUSH32 0x661CA6FC35186764CFC7C5D80D33C9CE6D09231D8EBFA9E000D8897BDCE9366D PUSH1 0x0 SHL PUSH3 0x585 PUSH1 0x20 SHL PUSH1 0x20 SHR JUMP JUMPDEST PUSH1 0x3 SLOAD PUSH1 0x2 SLOAD PUSH3 0x34A SWAP2 SWAP1 PUSH3 0x6E4 JUMP JUMPDEST PUSH1 0x1 SLOAD PUSH3 0x359 SWAP2 SWAP1 PUSH3 0x72F JUMP JUMPDEST PUSH1 0x4 DUP2 SWAP1 SSTORE POP PUSH3 0x393 PUSH32 0x2A0DCDEE7B25C3FD9B1D1959F757B083780AA920A3F25A7CE5683B5E9AA6C4C6 PUSH1 0x0 SHL PUSH3 0x585 PUSH1 0x20 SHL PUSH1 0x20 SHR JUMP JUMPDEST PUSH3 0x3C7 PUSH32 0x2CFD142826DD4E2B274B4C85883331FB68577EEF6FBB59551E88893C211BA41C PUSH1 0x0 SHL PUSH3 0x585 PUSH1 0x20 SHL PUSH1 0x20 SHR JUMP JUMPDEST PUSH1 0x4 SLOAD PUSH1 0xA DUP2 SWAP1 SSTORE POP PUSH3 0x404 PUSH32 0xF3432C6744A6D497C44D07359A45A47473B30BAC15FF15F603FB9B8B9EA516F7 PUSH1 0x0 SHL PUSH3 0x585 PUSH1 0x20 SHL PUSH1 0x20 SHR JUMP JUMPDEST PUSH3 0x438 PUSH32 0xBFC7351EE35313C3FA6E7068279080C714A05B10CDB3BFDD9D4BFA42F67EF722 PUSH1 0x0 SHL PUSH3 0x585 PUSH1 0x20 SHL PUSH1 0x20 SHR JUMP JUMPDEST PUSH1 0x2 SLOAD NUMBER PUSH3 0x448 SWAP2 SWAP1 PUSH3 0x72F JUMP JUMPDEST PUSH1 0x7 DUP2 SWAP1 SSTORE POP PUSH3 0x482 PUSH32 0xEA5CC70B30C2B04036A98106D6C48703756BD5B1E1FB232E5A39B4FCA8E46801 PUSH1 0x0 SHL PUSH3 0x585 PUSH1 0x20 SHL PUSH1 0x20 SHR JUMP JUMPDEST PUSH3 0x4B6 PUSH32 0x322D6B8400A39E4DF4DE8F4F835A4083E5767A33AF1355C0DF016F7D94A9ADC1 PUSH1 0x0 SHL PUSH3 0x585 PUSH1 0x20 SHL PUSH1 0x20 SHR JUMP JUMPDEST PUSH1 0x0 PUSH1 0x8 PUSH1 0x0 PUSH2 0x100 EXP DUP2 SLOAD DUP2 PUSH1 0xFF MUL NOT AND SWAP1 DUP4 ISZERO ISZERO MUL OR SWAP1 SSTORE POP PUSH3 0x505 PUSH32 0xBEA0191AB599701D9D5B777C76EC2A7312AB8EBE1C1282DAD91D83D051260D8D PUSH1 0x0 SHL PUSH3 0x585 PUSH1 0x20 SHL PUSH1 0x20 SHR JUMP JUMPDEST PUSH3 0x539 PUSH32 0x4029BDF292E50D12B076582CFCFAD651A81EB48E15E95EA9E12C03A420359A5C PUSH1 0x0 SHL PUSH3 0x585 PUSH1 0x20 SHL PUSH1 0x20 SHR JUMP JUMPDEST CALLER PUSH1 0x5 PUSH1 0x0 PUSH2 0x100 EXP DUP2 SLOAD DUP2 PUSH20 0xFFFFFFFFFFFFFFFFFFFFFFFFFFFFFFFFFFFFFFFF MUL NOT AND SWAP1 DUP4 PUSH20 0xFFFFFFFFFFFFFFFFFFFFFFFFFFFFFFFFFFFFFFFF AND MUL OR SWAP1 SSTORE POP POP POP POP POP POP PUSH3 0x76A JUMP JUMPDEST POP JUMP JUMPDEST PUSH1 0x0 DUP1 REVERT JUMPDEST PUSH1 0x0 PUSH20 0xFFFFFFFFFFFFFFFFFFFFFFFFFFFFFFFFFFFFFFFF DUP3 AND SWAP1 POP SWAP2 SWAP1 POP JUMP JUMPDEST PUSH1 0x0 PUSH3 0x5BA DUP3 PUSH3 0x58D JUMP JUMPDEST SWAP1 POP SWAP2 SWAP1 POP JUMP JUMPDEST PUSH3 0x5CC DUP2 PUSH3 0x5AD JUMP JUMPDEST DUP2 EQ PUSH3 0x5D8 JUMPI PUSH1 0x0 DUP1 REVERT JUMPDEST POP JUMP JUMPDEST PUSH1 0x0 DUP2 MLOAD SWAP1 POP PUSH3 0x5EC DUP2 PUSH3 0x5C1 JUMP JUMPDEST SWAP3 SWAP2 POP POP JUMP JUMPDEST PUSH1 0x0 DUP2 SWAP1 POP SWAP2 SWAP1 POP JUMP JUMPDEST PUSH3 0x607 DUP2 PUSH3 0x5F2 JUMP JUMPDEST DUP2 EQ PUSH3 0x613 JUMPI PUSH1 0x0 DUP1 REVERT JUMPDEST POP JUMP JUMPDEST PUSH1 0x0 DUP2 MLOAD SWAP1 POP PUSH3 0x627 DUP2 PUSH3 0x5FC JUMP JUMPDEST SWAP3 SWAP2 POP POP JUMP JUMPDEST PUSH1 0x0 DUP1 PUSH1 0x0 DUP1 PUSH1 0x0 PUSH1 0xA0 DUP7 DUP9 SUB SLT ISZERO PUSH3 0x64C JUMPI PUSH3 0x64B PUSH3 0x588 JUMP JUMPDEST JUMPDEST PUSH1 0x0 PUSH3 0x65C DUP9 DUP3 DUP10 ADD PUSH3 0x5DB JUMP JUMPDEST SWAP6 POP POP PUSH1 0x20 PUSH3 0x66F DUP9 DUP3 DUP10 ADD PUSH3 0x616 JUMP JUMPDEST SWAP5 POP POP PUSH1 0x40 PUSH3 0x682 DUP9 DUP3 DUP10 ADD PUSH3 0x616 JUMP JUMPDEST SWAP4 POP POP PUSH1 0x60 PUSH3 0x695 DUP9 DUP3 DUP10 ADD PUSH3 0x616 JUMP JUMPDEST SWAP3 POP POP PUSH1 0x80 PUSH3 0x6A8 DUP9 DUP3 DUP10 ADD PUSH3 0x616 JUMP JUMPDEST SWAP2 POP POP SWAP3 SWAP6 POP SWAP3 SWAP6 SWAP1 SWAP4 POP JUMP JUMPDEST PUSH32 0x4E487B7100000000000000000000000000000000000000000000000000000000 PUSH1 0x0 MSTORE PUSH1 0x11 PUSH1 0x4 MSTORE PUSH1 0x24 PUSH1 0x0 REVERT JUMPDEST PUSH1 0x0 PUSH3 0x6F1 DUP3 PUSH3 0x5F2 JUMP JUMPDEST SWAP2 POP PUSH3 0x6FE DUP4 PUSH3 0x5F2 JUMP JUMPDEST SWAP3 POP DUP3 DUP3 MUL PUSH3 0x70E DUP2 PUSH3 0x5F2 JUMP JUMPDEST SWAP2 POP DUP3 DUP3 DIV DUP5 EQ DUP4 ISZERO OR PUSH3 0x728 JUMPI PUSH3 0x727 PUSH3 0x6B5 JUMP JUMPDEST JUMPDEST POP SWAP3 SWAP2 POP POP JUMP JUMPDEST PUSH1 0x0 PUSH3 0x73C DUP3 PUSH3 0x5F2 JUMP JUMPDEST SWAP2 POP PUSH3 0x749 DUP4 PUSH3 0x5F2 JUMP JUMPDEST SWAP3 POP DUP3 DUP3 ADD SWAP1 POP DUP1 DUP3 GT ISZERO PUSH3 0x764 JUMPI PUSH3 0x763 PUSH3 0x6B5 JUMP JUMPDEST JUMPDEST SWAP3 SWAP2 POP POP JUMP JUMPDEST PUSH2 0xDA3 DUP1 PUSH3 0x77A PUSH1 0x0 CODECOPY PUSH1 0x0 RETURN INVALID PUSH1 0x80 PUSH1 0x40 MSTORE PUSH1 0x4 CALLDATASIZE LT PUSH2 0x86 JUMPI PUSH1 0x0 CALLDATALOAD PUSH1 0xE0 SHR DUP1 PUSH4 0x3DFE1DF9 GT PUSH2 0x59 JUMPI DUP1 PUSH4 0x3DFE1DF9 EQ PUSH2 0x12A JUMPI DUP1 PUSH4 0x5FB64A6A EQ PUSH2 0x155 JUMPI DUP1 PUSH4 0x9D1B464A EQ PUSH2 0x17E JUMPI DUP1 PUSH4 0xAEAAA299 EQ PUSH2 0x1A9 JUMPI DUP1 PUSH4 0xDF241CB9 EQ PUSH2 0x1D4 JUMPI PUSH2 0x86 JUMP JUMPDEST DUP1 PUSH4 0x8551A53 EQ PUSH2 0x8B JUMPI DUP1 PUSH4 0x1998AEEF EQ PUSH2 0xB6 JUMPI DUP1 PUSH4 0x1D0806AE EQ PUSH2 0xD4 JUMPI DUP1 PUSH4 0x2A24F46C EQ PUSH2 0xFF JUMPI JUMPDEST PUSH1 0x0 DUP1 REVERT JUMPDEST CALLVALUE DUP1 ISZERO PUSH2 0x97 JUMPI PUSH1 0x0 DUP1 REVERT JUMPDEST POP PUSH2 0xA0 PUSH2 0x1FF JUMP JUMPDEST PUSH1 0x40 MLOAD PUSH2 0xAD SWAP2 SWAP1 PUSH2 0xA7A JUMP JUMPDEST PUSH1 0x40 MLOAD DUP1 SWAP2 SUB SWAP1 RETURN JUMPDEST PUSH2 0xBE PUSH2 0x225 JUMP JUMPDEST PUSH1 0x40 MLOAD PUSH2 0xCB SWAP2 SWAP1 PUSH2 0xA7A JUMP JUMPDEST PUSH1 0x40 MLOAD DUP1 SWAP2 SUB SWAP1 RETURN JUMPDEST CALLVALUE DUP1 ISZERO PUSH2 0xE0 JUMPI PUSH1 0x0 DUP1 REVERT JUMPDEST POP PUSH2 0xE9 PUSH2 0x8FD JUMP JUMPDEST PUSH1 0x40 MLOAD PUSH2 0xF6 SWAP2 SWAP1 PUSH2 0xAAE JUMP JUMPDEST PUSH1 0x40 MLOAD DUP1 SWAP2 SUB SWAP1 RETURN JUMPDEST CALLVALUE DUP1 ISZERO PUSH2 0x10B JUMPI PUSH1 0x0 DUP1 REVERT JUMPDEST POP PUSH2 0x114 PUSH2 0x903 JUMP JUMPDEST PUSH1 0x40 MLOAD PUSH2 0x121 SWAP2 SWAP1 PUSH2 0xAAE JUMP JUMPDEST PUSH1 0x40 MLOAD DUP1 SWAP2 SUB SWAP1 RETURN JUMPDEST CALLVALUE DUP1 ISZERO PUSH2 0x136 JUMPI PUSH1 0x0 DUP1 REVERT JUMPDEST POP PUSH2 0x13F PUSH2 0x909 JUMP JUMPDEST PUSH1 0x40 MLOAD PUSH2 0x14C SWAP2 SWAP1 PUSH2 0xA7A JUMP JUMPDEST PUSH1 0x40 MLOAD DUP1 SWAP2 SUB SWAP1 RETURN JUMPDEST CALLVALUE DUP1 ISZERO PUSH2 0x161 JUMPI PUSH1 0x0 DUP1 REVERT JUMPDEST POP PUSH2 0x17C PUSH1 0x4 DUP1 CALLDATASIZE SUB DUP2 ADD SWAP1 PUSH2 0x177 SWAP2 SWAP1 PUSH2 0xB0C JUMP JUMPDEST PUSH2 0x92F JUMP JUMPDEST STOP JUMPDEST CALLVALUE DUP1 ISZERO PUSH2 0x18A JUMPI PUSH1 0x0 DUP1 REVERT JUMPDEST POP PUSH2 0x193 PUSH2 0x9F7 JUMP JUMPDEST PUSH1 0x40 MLOAD PUSH2 0x1A0 SWAP2 SWAP1 PUSH2 0xAAE JUMP JUMPDEST PUSH1 0x40 MLOAD DUP1 SWAP2 SUB SWAP1 RETURN JUMPDEST CALLVALUE DUP1 ISZERO PUSH2 0x1B5 JUMPI PUSH1 0x0 DUP1 REVERT JUMPDEST POP PUSH2 0x1BE PUSH2 0x9FD JUMP JUMPDEST PUSH1 0x40 MLOAD PUSH2 0x1CB SWAP2 SWAP1 PUSH2 0xB54 JUMP JUMPDEST PUSH1 0x40 MLOAD DUP1 SWAP2 SUB SWAP1 RETURN JUMPDEST CALLVALUE DUP1 ISZERO PUSH2 0x1E0 JUMPI PUSH1 0x0 DUP1 REVERT JUMPDEST POP PUSH2 0x1E9 PUSH2 0xA10 JUMP JUMPDEST PUSH1 0x40 MLOAD PUSH2 0x1F6 SWAP2 SWAP1 PUSH2 0xA7A JUMP JUMPDEST PUSH1 0x40 MLOAD DUP1 SWAP2 SUB SWAP1 RETURN JUMPDEST PUSH1 0x5 PUSH1 0x0 SWAP1 SLOAD SWAP1 PUSH2 0x100 EXP SWAP1 DIV PUSH20 0xFFFFFFFFFFFFFFFFFFFFFFFFFFFFFFFFFFFFFFFF AND DUP2 JUMP JUMPDEST PUSH1 0x0 PUSH2 0x253 PUSH32 0x73E489E1088F95FAB91B7858B886CFE3DE822A32CBDB13B0073091627F290F66 PUSH1 0x0 SHL PUSH2 0xA36 JUMP JUMPDEST PUSH2 0x27F PUSH32 0x9846B6EEF710CCF6C1FEFD9B4D012E1E36453C8EB5C8127E8C4094707CF38892 PUSH1 0x0 SHL PUSH2 0xA36 JUMP JUMPDEST PUSH2 0x2AB PUSH32 0x54306A64547AFDD42E15A64C8EF1E3EFBFCE8F404BED3697CBE6490CAD20A3B9 PUSH1 0x0 SHL PUSH2 0xA36 JUMP JUMPDEST PUSH2 0x2D7 PUSH32 0x1F6F54146C404FE2A10FA8A9834D74D2DFC9368FCB785DA0E3362BE038DC30DF PUSH1 0x0 SHL PUSH2 0xA36 JUMP JUMPDEST PUSH1 0x7 SLOAD NUMBER GT ISZERO PUSH2 0x31C JUMPI PUSH1 0x40 MLOAD PUSH32 0x8C379A000000000000000000000000000000000000000000000000000000000 DUP2 MSTORE PUSH1 0x4 ADD PUSH2 0x313 SWAP1 PUSH2 0xBF2 JUMP JUMPDEST PUSH1 0x40 MLOAD DUP1 SWAP2 SUB SWAP1 REVERT JUMPDEST PUSH2 0x348 PUSH32 0x35953E31E1F5762E8CCCA8A2730863D5FB74B9651F13E036C0DAEB327D6CAF30 PUSH1 0x0 SHL PUSH2 0xA36 JUMP JUMPDEST PUSH2 0x374 PUSH32 0x1661F9214ADDE78FF99BEFAE7A02DA221CDD65E9A634713DF4036CAFB1AD69E1 PUSH1 0x0 SHL PUSH2 0xA36 JUMP JUMPDEST PUSH2 0x3A0 PUSH32 0xF38DCCBA0D321AE294EFDADE5CCA0F33761C780FB90CCD01B18CBF9822362B9E PUSH1 0x0 SHL PUSH2 0xA36 JUMP JUMPDEST PUSH2 0x3CC PUSH32 0x4A6751920306470B1DE25335670276B29D5C36C587B1551212A6FEB28F0F33BD PUSH1 0x0 SHL PUSH2 0xA36 JUMP JUMPDEST PUSH1 0x4 SLOAD CALLVALUE LT ISZERO PUSH2 0x411 JUMPI PUSH1 0x40 MLOAD PUSH32 0x8C379A000000000000000000000000000000000000000000000000000000000 DUP2 MSTORE PUSH1 0x4 ADD PUSH2 0x408 SWAP1 PUSH2 0xC84 JUMP JUMPDEST PUSH1 0x40 MLOAD DUP1 SWAP2 SUB SWAP1 REVERT JUMPDEST PUSH2 0x43D PUSH32 0x6996D51D8456002BB6BDDAA840486681BFDB5033CD4C63534959EC3C038EA52F PUSH1 0x0 SHL PUSH2 0xA36 JUMP JUMPDEST PUSH2 0x469 PUSH32 0xDF1B98141649BE5EF78ED1646F61F19BD837B81ED95B8FE032465F1E5BD8E821 PUSH1 0x0 SHL PUSH2 0xA36 JUMP JUMPDEST PUSH2 0x495 PUSH32 0xAAA41F000D39C39F285BD91043D35874F527650BC3F6158FF8A68F76BA163AEE PUSH1 0x0 SHL PUSH2 0xA36 JUMP JUMPDEST PUSH2 0x4C1 PUSH32 0xEDE2034D2BA8D26E1FFFB88AE331F09F762E4861D23C903C8B84E4CE7CB0AE7 PUSH1 0x0 SHL PUSH2 0xA36 JUMP JUMPDEST PUSH1 0x0 ISZERO ISZERO PUSH1 0x8 PUSH1 0x0 SWAP1 SLOAD SWAP1 PUSH2 0x100 EXP SWAP1 DIV PUSH1 0xFF AND ISZERO ISZERO EQ PUSH2 0x517 JUMPI PUSH1 0x40 MLOAD PUSH32 0x8C379A000000000000000000000000000000000000000000000000000000000 DUP2 MSTORE PUSH1 0x4 ADD PUSH2 0x50E SWAP1 PUSH2 0xD16 JUMP JUMPDEST PUSH1 0x40 MLOAD DUP1 SWAP2 SUB SWAP1 REVERT JUMPDEST PUSH2 0x543 PUSH32 0x61E04A4164D31A34AAC305DEBE7AC6A259C79402346713A9AA5868C57C4D0AED PUSH1 0x0 SHL PUSH2 0xA36 JUMP JUMPDEST PUSH2 0x56F PUSH32 0x78C31A7A23A0665BC54ADE1E7BF7CB4D948484378E16B155C9250542032450DB PUSH1 0x0 SHL PUSH2 0xA36 JUMP JUMPDEST PUSH2 0x59B PUSH32 0xDA136000B8AC7425CA0A89CDF8D8D106415B4661F60BA6EE2B463AE7615B7104 PUSH1 0x0 SHL PUSH2 0xA36 JUMP JUMPDEST CALLER PUSH1 0x6 PUSH1 0x0 PUSH2 0x100 EXP DUP2 SLOAD DUP2 PUSH20 0xFFFFFFFFFFFFFFFFFFFFFFFFFFFFFFFFFFFFFFFF MUL NOT AND SWAP1 DUP4 PUSH20 0xFFFFFFFFFFFFFFFFFFFFFFFFFFFFFFFFFFFFFFFF AND MUL OR SWAP1 SSTORE POP PUSH2 0x608 PUSH32 0xD24FA5F1758452A27807D964737AF016B8D8EBCF6CF9992AF41832C525A009C PUSH1 0x0 SHL PUSH2 0xA36 JUMP JUMPDEST PUSH2 0x634 PUSH32 0x2FDB04E7DE1BE2D71610F474DD9E9F603975D5C926F4A866EFF2693B379082F6 PUSH1 0x0 SHL PUSH2 0xA36 JUMP JUMPDEST PUSH1 0x0 PUSH1 0x4 DUP2 SWAP1 SSTORE POP PUSH2 0x668 PUSH32 0xDBDE218FC56F1651EC045ED4DFC08EFDE37EA522753B8738F991BB0F00C2EA5D PUSH1 0x0 SHL PUSH2 0xA36 JUMP JUMPDEST PUSH2 0x694 PUSH32 0x17756E531A9AD9F60BE927C785CF64E150719FF4F59F675B7A076B163DEA6BF5 PUSH1 0x0 SHL PUSH2 0xA36 JUMP JUMPDEST PUSH1 0x1 PUSH1 0x8 PUSH1 0x0 PUSH2 0x100 EXP DUP2 SLOAD DUP2 PUSH1 0xFF MUL NOT AND SWAP1 DUP4 ISZERO ISZERO MUL OR SWAP1 SSTORE POP PUSH2 0x6DB PUSH32 0x218B1F27427E364AE6B01346C4C31765D8E6334B7FDCEAA3E4DBFF814DF021FB PUSH1 0x0 SHL PUSH2 0xA36 JUMP JUMPDEST PUSH2 0x707 PUSH32 0x29AE1B97375C2EAFA95D9D82368F0230B3FFD34E76CFA009C379EB3CBAEFED4C PUSH1 0x0 SHL PUSH2 0xA36 JUMP JUMPDEST CALLER PUSH20 0xFFFFFFFFFFFFFFFFFFFFFFFFFFFFFFFFFFFFFFFF AND PUSH2 0x8FC CALLVALUE SWAP1 DUP2 ISZERO MUL SWAP1 PUSH1 0x40 MLOAD PUSH1 0x0 PUSH1 0x40 MLOAD DUP1 DUP4 SUB DUP2 DUP6 DUP9 DUP9 CALL SWAP4 POP POP POP POP ISZERO DUP1 ISZERO PUSH2 0x74D JUMPI RETURNDATASIZE PUSH1 0x0 DUP1 RETURNDATACOPY RETURNDATASIZE PUSH1 0x0 REVERT JUMPDEST POP PUSH2 0x77A PUSH32 0x5C4B094ED3EC8330AD58F886DE577F9CC510D87F680586EAE59AB94AAA292B74 PUSH1 0x0 SHL PUSH2 0xA36 JUMP JUMPDEST PUSH2 0x7A6 PUSH32 0xFC3891E197054F37EF6282397A178AC9911EBB6D18A6C1F1C8B99760CEE1A5B2 PUSH1 0x0 SHL PUSH2 0xA36 JUMP JUMPDEST PUSH1 0x0 PUSH1 0x2 SWAP1 SLOAD SWAP1 PUSH2 0x100 EXP SWAP1 DIV PUSH20 0xFFFFFFFFFFFFFFFFFFFFFFFFFFFFFFFFFFFFFFFF AND PUSH20 0xFFFFFFFFFFFFFFFFFFFFFFFFFFFFFFFFFFFFFFFF AND PUSH4 0x42842E0E PUSH1 0x5 PUSH1 0x0 SWAP1 SLOAD SWAP1 PUSH2 0x100 EXP SWAP1 DIV PUSH20 0xFFFFFFFFFFFFFFFFFFFFFFFFFFFFFFFFFFFFFFFF AND PUSH1 0x6 PUSH1 0x0 SWAP1 SLOAD SWAP1 PUSH2 0x100 EXP SWAP1 DIV PUSH20 0xFFFFFFFFFFFFFFFFFFFFFFFFFFFFFFFFFFFFFFFF AND PUSH1 0x9 SLOAD PUSH1 0x40 MLOAD DUP5 PUSH4 0xFFFFFFFF AND PUSH1 0xE0 SHL DUP2 MSTORE PUSH1 0x4 ADD PUSH2 0x84B SWAP4 SWAP3 SWAP2 SWAP1 PUSH2 0xD36 JUMP JUMPDEST PUSH1 0x0 PUSH1 0x40 MLOAD DUP1 DUP4 SUB DUP2 PUSH1 0x0 DUP8 DUP1 EXTCODESIZE ISZERO DUP1 ISZERO PUSH2 0x865 JUMPI PUSH1 0x0 DUP1 REVERT JUMPDEST POP GAS CALL ISZERO DUP1 ISZERO PUSH2 0x879 JUMPI RETURNDATASIZE PUSH1 0x0 DUP1 RETURNDATACOPY RETURNDATASIZE PUSH1 0x0 REVERT JUMPDEST POP POP POP POP PUSH2 0x8A9 PUSH32 0x2E35494488399AB40B6BC402E3BC67E21D38951EBC555B87DC3A80904C5DCE2C PUSH1 0x0 SHL PUSH2 0xA36 JUMP JUMPDEST PUSH2 0x8D5 PUSH32 0x8CCBE9C518E322CD84EC89A909041F11044544370FCE2793D53A1CB19AC5FD9A PUSH1 0x0 SHL PUSH2 0xA36 JUMP JUMPDEST PUSH1 0x6 PUSH1 0x0 SWAP1 SLOAD SWAP1 PUSH2 0x100 EXP SWAP1 DIV PUSH20 0xFFFFFFFFFFFFFFFFFFFFFFFFFFFFFFFFFFFFFFFF AND SWAP1 POP SWAP1 JUMP JUMPDEST PUSH1 0x4 SLOAD DUP2 JUMP JUMPDEST PUSH1 0x7 SLOAD DUP2 JUMP JUMPDEST PUSH1 0x6 PUSH1 0x0 SWAP1 SLOAD SWAP1 PUSH2 0x100 EXP SWAP1 DIV PUSH20 0xFFFFFFFFFFFFFFFFFFFFFFFFFFFFFFFFFFFFFFFF AND DUP2 JUMP JUMPDEST PUSH2 0x95B PUSH32 0xDB113F3231C95E39667D50C27B192A3B0AA2F79554D9392FCEB72243981C251C PUSH1 0x0 SHL PUSH2 0xA36 JUMP JUMPDEST PUSH2 0x987 PUSH32 0x11C648D353B30EED2A587844D87BA9A8F6489198284B91E755145170DB382B90 PUSH1 0x0 SHL PUSH2 0xA36 JUMP JUMPDEST PUSH2 0x9B3 PUSH32 0x2B0BF72B5A46E47E8F396CF081BDC33303D9ED59B466891FD5204CE9F269A1D5 PUSH1 0x0 SHL PUSH2 0xA36 JUMP JUMPDEST DUP1 PUSH1 0x0 PUSH1 0x2 PUSH2 0x100 EXP DUP2 SLOAD DUP2 PUSH20 0xFFFFFFFFFFFFFFFFFFFFFFFFFFFFFFFFFFFFFFFF MUL NOT AND SWAP1 DUP4 PUSH20 0xFFFFFFFFFFFFFFFFFFFFFFFFFFFFFFFFFFFFFFFF AND MUL OR SWAP1 SSTORE POP POP JUMP JUMPDEST PUSH1 0xA SLOAD DUP2 JUMP JUMPDEST PUSH1 0x8 PUSH1 0x0 SWAP1 SLOAD SWAP1 PUSH2 0x100 EXP SWAP1 DIV PUSH1 0xFF AND DUP2 JUMP JUMPDEST PUSH1 0xB PUSH1 0x0 SWAP1 SLOAD SWAP1 PUSH2 0x100 EXP SWAP1 DIV PUSH20 0xFFFFFFFFFFFFFFFFFFFFFFFFFFFFFFFFFFFFFFFF AND DUP2 JUMP JUMPDEST POP JUMP JUMPDEST PUSH1 0x0 PUSH20 0xFFFFFFFFFFFFFFFFFFFFFFFFFFFFFFFFFFFFFFFF DUP3 AND SWAP1 POP SWAP2 SWAP1 POP JUMP JUMPDEST PUSH1 0x0 PUSH2 0xA64 DUP3 PUSH2 0xA39 JUMP JUMPDEST SWAP1 POP SWAP2 SWAP1 POP JUMP JUMPDEST PUSH2 0xA74 DUP2 PUSH2 0xA59 JUMP JUMPDEST DUP3 MSTORE POP POP JUMP JUMPDEST PUSH1 0x0 PUSH1 0x20 DUP3 ADD SWAP1 POP PUSH2 0xA8F PUSH1 0x0 DUP4 ADD DUP5 PUSH2 0xA6B JUMP JUMPDEST SWAP3 SWAP2 POP POP JUMP JUMPDEST PUSH1 0x0 DUP2 SWAP1 POP SWAP2 SWAP1 POP JUMP JUMPDEST PUSH2 0xAA8 DUP2 PUSH2 0xA95 JUMP JUMPDEST DUP3 MSTORE POP POP JUMP JUMPDEST PUSH1 0x0 PUSH1 0x20 DUP3 ADD SWAP1 POP PUSH2 0xAC3 PUSH1 0x0 DUP4 ADD DUP5 PUSH2 0xA9F JUMP JUMPDEST SWAP3 SWAP2 POP POP JUMP JUMPDEST PUSH1 0x0 DUP1 REVERT JUMPDEST PUSH1 0x0 PUSH2 0xAD9 DUP3 PUSH2 0xA59 JUMP JUMPDEST SWAP1 POP SWAP2 SWAP1 POP JUMP JUMPDEST PUSH2 0xAE9 DUP2 PUSH2 0xACE JUMP JUMPDEST DUP2 EQ PUSH2 0xAF4 JUMPI PUSH1 0x0 DUP1 REVERT JUMPDEST POP JUMP JUMPDEST PUSH1 0x0 DUP2 CALLDATALOAD SWAP1 POP PUSH2 0xB06 DUP2 PUSH2 0xAE0 JUMP JUMPDEST SWAP3 SWAP2 POP POP JUMP JUMPDEST PUSH1 0x0 PUSH1 0x20 DUP3 DUP5 SUB SLT ISZERO PUSH2 0xB22 JUMPI PUSH2 0xB21 PUSH2 0xAC9 JUMP JUMPDEST JUMPDEST PUSH1 0x0 PUSH2 0xB30 DUP5 DUP3 DUP6 ADD PUSH2 0xAF7 JUMP JUMPDEST SWAP2 POP POP SWAP3 SWAP2 POP POP JUMP JUMPDEST PUSH1 0x0 DUP2 ISZERO ISZERO SWAP1 POP SWAP2 SWAP1 POP JUMP JUMPDEST PUSH2 0xB4E DUP2 PUSH2 0xB39 JUMP JUMPDEST DUP3 MSTORE POP POP JUMP JUMPDEST PUSH1 0x0 PUSH1 0x20 DUP3 ADD SWAP1 POP PUSH2 0xB69 PUSH1 0x0 DUP4 ADD DUP5 PUSH2 0xB45 JUMP JUMPDEST SWAP3 SWAP2 POP POP JUMP JUMPDEST PUSH1 0x0 DUP3 DUP3 MSTORE PUSH1 0x20 DUP3 ADD SWAP1 POP SWAP3 SWAP2 POP POP JUMP JUMPDEST PUSH32 0x41756374696F6E2068617320616C726561647920656E6465642E204E6F206D6F PUSH1 0x0 DUP3 ADD MSTORE PUSH32 0x7265206269647300000000000000000000000000000000000000000000000000 PUSH1 0x20 DUP3 ADD MSTORE POP JUMP JUMPDEST PUSH1 0x0 PUSH2 0xBDC PUSH1 0x27 DUP4 PUSH2 0xB6F JUMP JUMPDEST SWAP2 POP PUSH2 0xBE7 DUP3 PUSH2 0xB80 JUMP JUMPDEST PUSH1 0x40 DUP3 ADD SWAP1 POP SWAP2 SWAP1 POP JUMP JUMPDEST PUSH1 0x0 PUSH1 0x20 DUP3 ADD SWAP1 POP DUP2 DUP2 SUB PUSH1 0x0 DUP4 ADD MSTORE PUSH2 0xC0B DUP2 PUSH2 0xBCF JUMP JUMPDEST SWAP1 POP SWAP2 SWAP1 POP JUMP JUMPDEST PUSH32 0x4269642076616C7565206973206C657373207468616E2063757272656E742070 PUSH1 0x0 DUP3 ADD MSTORE PUSH32 0x726963652E000000000000000000000000000000000000000000000000000000 PUSH1 0x20 DUP3 ADD MSTORE POP JUMP JUMPDEST PUSH1 0x0 PUSH2 0xC6E PUSH1 0x25 DUP4 PUSH2 0xB6F JUMP JUMPDEST SWAP2 POP PUSH2 0xC79 DUP3 PUSH2 0xC12 JUMP JUMPDEST PUSH1 0x40 DUP3 ADD SWAP1 POP SWAP2 SWAP1 POP JUMP JUMPDEST PUSH1 0x0 PUSH1 0x20 DUP3 ADD SWAP1 POP DUP2 DUP2 SUB PUSH1 0x0 DUP4 ADD MSTORE PUSH2 0xC9D DUP2 PUSH2 0xC61 JUMP JUMPDEST SWAP1 POP SWAP2 SWAP1 POP JUMP JUMPDEST PUSH32 0x57696E6E657220686173206265656E2063686F73656E2E204E6F206D6F726520 PUSH1 0x0 DUP3 ADD MSTORE PUSH32 0x62696464696E672E2041756374696F6E20636C6F736564000000000000000000 PUSH1 0x20 DUP3 ADD MSTORE POP JUMP JUMPDEST PUSH1 0x0 PUSH2 0xD00 PUSH1 0x37 DUP4 PUSH2 0xB6F JUMP JUMPDEST SWAP2 POP PUSH2 0xD0B DUP3 PUSH2 0xCA4 JUMP JUMPDEST PUSH1 0x40 DUP3 ADD SWAP1 POP SWAP2 SWAP1 POP JUMP JUMPDEST PUSH1 0x0 PUSH1 0x20 DUP3 ADD SWAP1 POP DUP2 DUP2 SUB PUSH1 0x0 DUP4 ADD MSTORE PUSH2 0xD2F DUP2 PUSH2 0xCF3 JUMP JUMPDEST SWAP1 POP SWAP2 SWAP1 POP JUMP JUMPDEST PUSH1 0x0 PUSH1 0x60 DUP3 ADD SWAP1 POP PUSH2 0xD4B PUSH1 0x0 DUP4 ADD DUP7 PUSH2 0xA6B JUMP JUMPDEST PUSH2 0xD58 PUSH1 0x20 DUP4 ADD DUP6 PUSH2 0xA6B JUMP JUMPDEST PUSH2 0xD65 PUSH1 0x40 DUP4 ADD DUP5 PUSH2 0xA9F JUMP JUMPDEST SWAP5 SWAP4 POP POP POP POP JUMP INVALID LOG2 PUSH5 0x6970667358 0x22 SLT KECCAK256 0x27 MLOAD 0x2A DUP8 NOT PUSH12 0x5545ED3493C736064F26756A 0xC2 RETURNDATACOPY DIV PUSH4 0x3AFDF2A2 LOG1 0x28 PUSH3 0xDEC552 PUSH5 0x736F6C6343 STOP ADDMOD GT STOP CALLER "},"methodIdentifiers":{"auctionClosed()":"aeaaa299","auctionEnd()":"2a24f46c","auction_winner()":"3dfe1df9","bid()":"1998aeef","currentPrice()":"9d1b464a","erc721TokenAddress()":"df241cb9","initialPrice()":"1d0806ae","seller()":"08551a53","setMintContract(address)":"5fb64a6a"}}}}}