{
  "_format": "hh-sol-artifact-1",
  "contractName": "KToken",
  "sourceName": "contracts/ERC20mint.sol",
  "abi": [
    {
      "inputs": [
        {
          "internalType": "uint256",
          "name": "_maxSupply",
          "type": "uint256"
        }
      ],
      "stateMutability": "nonpayable",
      "type": "constructor"
    },
    {
      "anonymous": false,
      "inputs": [
        {
          "indexed": true,
          "internalType": "address",
          "name": "owner",
          "type": "address"
        },
        {
          "indexed": true,
          "internalType": "address",
          "name": "spender",
          "type": "address"
        },
        {
          "indexed": false,
          "internalType": "uint256",
          "name": "value",
          "type": "uint256"
        }
      ],
      "name": "Approval",
      "type": "event"
    },
    {
      "anonymous": false,
      "inputs": [
        {
          "indexed": true,
          "internalType": "address",
          "name": "from",
          "type": "address"
        },
        {
          "indexed": true,
          "internalType": "address",
          "name": "to",
          "type": "address"
        },
        {
          "indexed": false,
          "internalType": "uint256",
          "name": "value",
          "type": "uint256"
        }
      ],
      "name": "Transfer",
      "type": "event"
    },
    {
      "inputs": [],
      "name": "DOMAIN_SEPARATOR",
      "outputs": [
        {
          "internalType": "bytes32",
          "name": "",
          "type": "bytes32"
        }
      ],
      "stateMutability": "view",
      "type": "function"
    },
    {
      "inputs": [
        {
          "internalType": "address",
          "name": "owner",
          "type": "address"
        },
        {
          "internalType": "address",
          "name": "spender",
          "type": "address"
        }
      ],
      "name": "allowance",
      "outputs": [
        {
          "internalType": "uint256",
          "name": "",
          "type": "uint256"
        }
      ],
      "stateMutability": "view",
      "type": "function"
    },
    {
      "inputs": [
        {
          "internalType": "address",
          "name": "spender",
          "type": "address"
        },
        {
          "internalType": "uint256",
          "name": "amount",
          "type": "uint256"
        }
      ],
      "name": "approve",
      "outputs": [
        {
          "internalType": "bool",
          "name": "",
          "type": "bool"
        }
      ],
      "stateMutability": "nonpayable",
      "type": "function"
    },
    {
      "inputs": [
        {
          "internalType": "address",
          "name": "account",
          "type": "address"
        }
      ],
      "name": "balanceOf",
      "outputs": [
        {
          "internalType": "uint256",
          "name": "",
          "type": "uint256"
        }
      ],
      "stateMutability": "view",
      "type": "function"
    },
    {
      "inputs": [],
      "name": "decimals",
      "outputs": [
        {
          "internalType": "uint8",
          "name": "",
          "type": "uint8"
        }
      ],
      "stateMutability": "view",
      "type": "function"
    },
    {
      "inputs": [
        {
          "internalType": "address",
          "name": "spender",
          "type": "address"
        },
        {
          "internalType": "uint256",
          "name": "subtractedValue",
          "type": "uint256"
        }
      ],
      "name": "decreaseAllowance",
      "outputs": [
        {
          "internalType": "bool",
          "name": "",
          "type": "bool"
        }
      ],
      "stateMutability": "nonpayable",
      "type": "function"
    },
    {
      "inputs": [
        {
          "internalType": "address",
          "name": "spender",
          "type": "address"
        },
        {
          "internalType": "uint256",
          "name": "addedValue",
          "type": "uint256"
        }
      ],
      "name": "increaseAllowance",
      "outputs": [
        {
          "internalType": "bool",
          "name": "",
          "type": "bool"
        }
      ],
      "stateMutability": "nonpayable",
      "type": "function"
    },
    {
      "inputs": [
        {
          "internalType": "address",
          "name": "to",
          "type": "address"
        },
        {
          "internalType": "uint256",
          "name": "amount",
          "type": "uint256"
        }
      ],
      "name": "mint",
      "outputs": [],
      "stateMutability": "nonpayable",
      "type": "function"
    },
    {
      "inputs": [],
      "name": "name",
      "outputs": [
        {
          "internalType": "string",
          "name": "",
          "type": "string"
        }
      ],
      "stateMutability": "view",
      "type": "function"
    },
    {
      "inputs": [
        {
          "internalType": "address",
          "name": "owner",
          "type": "address"
        }
      ],
      "name": "nonces",
      "outputs": [
        {
          "internalType": "uint256",
          "name": "",
          "type": "uint256"
        }
      ],
      "stateMutability": "view",
      "type": "function"
    },
    {
      "inputs": [
        {
          "internalType": "address",
          "name": "owner",
          "type": "address"
        },
        {
          "internalType": "address",
          "name": "spender",
          "type": "address"
        },
        {
          "internalType": "uint256",
          "name": "value",
          "type": "uint256"
        },
        {
          "internalType": "uint256",
          "name": "deadline",
          "type": "uint256"
        },
        {
          "internalType": "uint8",
          "name": "v",
          "type": "uint8"
        },
        {
          "internalType": "bytes32",
          "name": "r",
          "type": "bytes32"
        },
        {
          "internalType": "bytes32",
          "name": "s",
          "type": "bytes32"
        }
      ],
      "name": "permit",
      "outputs": [],
      "stateMutability": "nonpayable",
      "type": "function"
    },
    {
      "inputs": [],
      "name": "symbol",
      "outputs": [
        {
          "internalType": "string",
          "name": "",
          "type": "string"
        }
      ],
      "stateMutability": "view",
      "type": "function"
    },
    {
      "inputs": [],
      "name": "totalSupply",
      "outputs": [
        {
          "internalType": "uint256",
          "name": "",
          "type": "uint256"
        }
      ],
      "stateMutability": "view",
      "type": "function"
    },
    {
      "inputs": [
        {
          "internalType": "address",
          "name": "to",
          "type": "address"
        },
        {
          "internalType": "uint256",
          "name": "amount",
          "type": "uint256"
        }
      ],
      "name": "transfer",
      "outputs": [
        {
          "internalType": "bool",
          "name": "",
          "type": "bool"
        }
      ],
      "stateMutability": "nonpayable",
      "type": "function"
    },
    {
      "inputs": [
        {
          "internalType": "address",
          "name": "from",
          "type": "address"
        },
        {
          "internalType": "address",
          "name": "to",
          "type": "address"
        },
        {
          "internalType": "uint256",
          "name": "amount",
          "type": "uint256"
        }
      ],
      "name": "transferFrom",
      "outputs": [
        {
          "internalType": "bool",
          "name": "",
          "type": "bool"
        }
      ],
      "stateMutability": "nonpayable",
      "type": "function"
    }
  ],
  "bytecode": "0x6101606040523480156200001257600080fd5b5060405162002ac038038062002ac0833981810160405281019062000038919062000315565b6040518060400160405280600681526020017f4b546f6b656e0000000000000000000000000000000000000000000000000000815250806040518060400160405280600181526020017f31000000000000000000000000000000000000000000000000000000000000008152506040518060400160405280600681526020017f4b546f6b656e00000000000000000000000000000000000000000000000000008152506040518060400160405280600281526020017f4b540000000000000000000000000000000000000000000000000000000000008152508160039081620001229190620005b7565b508060049081620001349190620005b7565b50505060008280519060200120905060008280519060200120905060007f8b73c3c69bb8fe3d512ecc4cf759cc79239f7b179b0ffacaa9a75d522b39400f90508260e081815250508161010081815250504660a08181525050620001a08184846200029660201b60201c565b608081815250503073ffffffffffffffffffffffffffffffffffffffff1660c08173ffffffffffffffffffffffffffffffffffffffff16815250508061012081815250505050505050506200021e7f837820a5f7ebe015c8a9a8cbf12d67c51d81b1955f0be7d46e80c39a44d3df5060001b620002d260201b60201c565b620002527f6fcb3e4bab0233f74ea4f25e4162df96132552709b6309e5435ba30b7e7c508660001b620002d260201b60201c565b620002867fb0b466842b4976ebd1f1cb2cab621d40fb72ed9bdb003cb53ef3688ff30eb25360001b620002d260201b60201c565b806101408181525050506200076c565b60008383834630604051602001620002b39594939291906200070f565b6040516020818303038152906040528051906020012090509392505050565b50565b600080fd5b6000819050919050565b620002ef81620002da565b8114620002fb57600080fd5b50565b6000815190506200030f81620002e4565b92915050565b6000602082840312156200032e576200032d620002d5565b5b60006200033e84828501620002fe565b91505092915050565b600081519050919050565b7f4e487b7100000000000000000000000000000000000000000000000000000000600052604160045260246000fd5b7f4e487b7100000000000000000000000000000000000000000000000000000000600052602260045260246000fd5b60006002820490506001821680620003c957607f821691505b602082108103620003df57620003de62000381565b5b50919050565b60008190508160005260206000209050919050565b60006020601f8301049050919050565b600082821b905092915050565b600060088302620004497fffffffffffffffffffffffffffffffffffffffffffffffffffffffffffffffff826200040a565b6200045586836200040a565b95508019841693508086168417925050509392505050565b6000819050919050565b600062000498620004926200048c84620002da565b6200046d565b620002da565b9050919050565b6000819050919050565b620004b48362000477565b620004cc620004c3826200049f565b84845462000417565b825550505050565b600090565b620004e3620004d4565b620004f0818484620004a9565b505050565b5b8181101562000518576200050c600082620004d9565b600181019050620004f6565b5050565b601f82111562000567576200053181620003e5565b6200053c84620003fa565b810160208510156200054c578190505b620005646200055b85620003fa565b830182620004f5565b50505b505050565b600082821c905092915050565b60006200058c600019846008026200056c565b1980831691505092915050565b6000620005a7838362000579565b9150826002028217905092915050565b620005c28262000347565b67ffffffffffffffff811115620005de57620005dd62000352565b5b620005ea8254620003b0565b620005f78282856200051c565b600060209050601f8311600181146200062f57600084156200061a578287015190505b62000626858262000599565b86555062000696565b601f1984166200063f86620003e5565b60005b82811015620006695784890151825560018201915060208501945060208101905062000642565b8683101562000689578489015162000685601f89168262000579565b8355505b6001600288020188555050505b505050505050565b6000819050919050565b620006b3816200069e565b82525050565b620006c481620002da565b82525050565b600073ffffffffffffffffffffffffffffffffffffffff82169050919050565b6000620006f782620006ca565b9050919050565b6200070981620006ea565b82525050565b600060a082019050620007266000830188620006a8565b620007356020830187620006a8565b620007446040830186620006a8565b620007536060830185620006b9565b620007626080830184620006fe565b9695505050505050565b60805160a05160c05160e0516101005161012051610140516122f9620007c7600039600061059b01526000610fa701526000610fe901526000610fc801526000610efd01526000610f5301526000610f7c01526122f96000f3fe608060405234801561001057600080fd5b50600436106100f55760003560e01c806340c10f1911610097578063a457c2d711610066578063a457c2d71461029c578063a9059cbb146102cc578063d505accf146102fc578063dd62ed3e14610318576100f5565b806340c10f191461020257806370a082311461021e5780637ecebe001461024e57806395d89b411461027e576100f5565b806323b872dd116100d357806323b872dd14610166578063313ce567146101965780633644e515146101b457806339509351146101d2576100f5565b806306fdde03146100fa578063095ea7b31461011857806318160ddd14610148575b600080fd5b610102610348565b60405161010f9190611582565b60405180910390f35b610132600480360381019061012d919061163d565b6103da565b60405161013f9190611698565b60405180910390f35b6101506103fd565b60405161015d91906116c2565b60405180910390f35b610180600480360381019061017b91906116dd565b610407565b60405161018d9190611698565b60405180910390f35b61019e610436565b6040516101ab919061174c565b60405180910390f35b6101bc61043f565b6040516101c99190611780565b60405180910390f35b6101ec60048036038101906101e7919061163d565b61044e565b6040516101f99190611698565b60405180910390f35b61021c6004803603810190610217919061163d565b610485565b005b6102386004803603810190610233919061179b565b610699565b60405161024591906116c2565b60405180910390f35b6102686004803603810190610263919061179b565b6106e1565b60405161027591906116c2565b60405180910390f35b610286610731565b6040516102939190611582565b60405180910390f35b6102b660048036038101906102b1919061163d565b6107c3565b6040516102c39190611698565b60405180910390f35b6102e660048036038101906102e1919061163d565b61083a565b6040516102f39190611698565b60405180910390f35b61031660048036038101906103119190611820565b61085d565b005b610332600480360381019061032d91906118c2565b61099f565b60405161033f91906116c2565b60405180910390f35b60606003805461035790611931565b80601f016020809104026020016040519081016040528092919081815260200182805461038390611931565b80156103d05780601f106103a5576101008083540402835291602001916103d0565b820191906000526020600020905b8154815290600101906020018083116103b357829003601f168201915b5050505050905090565b6000806103e5610a26565b90506103f2818585610a2e565b600191505092915050565b6000600254905090565b600080610412610a26565b905061041f858285610bf7565b61042a858585610c83565b60019150509392505050565b60006012905090565b6000610449610ef9565b905090565b600080610459610a26565b905061047a81858561046b858961099f565b6104759190611991565b610a2e565b600191505092915050565b6104b17f226141f531f699019e70f489f127840201b4cf8f2f0b692e0668937f4cd2ea9a60001b611013565b6104dd7f3b33eb69f4c4751549cb72a6f348a4125d65c01992ea7972c5e0248d486681af60001b611013565b6105097f3b3d4e92c5bca6af02419bab2ea01814642a56b31883fbcbb45eaab3962cae3760001b611013565b60006105136103fd565b90506105417f98e4f631a7ca61a872913a070f10a53b79ead7a42fbc6d6e47d9a1e68ce1a21760001b611013565b61056d7fb532983aa1441f1a6966afd3dda91d2e04db03d2e699c3516f58634f9f7efafc60001b611013565b6105997f5cbc1d0a4812e02e92873f1de70e2ea16512deee44b1a82ee0f6c265d8b034e060001b611013565b7f000000000000000000000000000000000000000000000000000000000000000082826105c69190611991565b10610606576040517f08c379a00000000000000000000000000000000000000000000000000000000081526004016105fd90611a37565b60405180910390fd5b6106327fffa5bef98977ef4df840c89526180d60204ee6ba4487a8c31998db6984ecf1d460001b611013565b61065e7f03857f67209d79a45cc9a62d010f3b696c861ca09b395aa9deac864c1d70a63a60001b611013565b61068a7fbfbf1adab950ec448c8d59274357b0aa1844559c7e24c455e97dc9b0e82df7c360001b611013565b6106948383611016565b505050565b60008060008373ffffffffffffffffffffffffffffffffffffffff1673ffffffffffffffffffffffffffffffffffffffff168152602001908152602001600020549050919050565b600061072a600560008473ffffffffffffffffffffffffffffffffffffffff1673ffffffffffffffffffffffffffffffffffffffff16815260200190815260200160002061116c565b9050919050565b60606004805461074090611931565b80601f016020809104026020016040519081016040528092919081815260200182805461076c90611931565b80156107b95780601f1061078e576101008083540402835291602001916107b9565b820191906000526020600020905b81548152906001019060200180831161079c57829003601f168201915b5050505050905090565b6000806107ce610a26565b905060006107dc828661099f565b905083811015610821576040517f08c379a000000000000000000000000000000000000000000000000000000000815260040161081890611ac9565b60405180910390fd5b61082e8286868403610a2e565b60019250505092915050565b600080610845610a26565b9050610852818585610c83565b600191505092915050565b834211156108a0576040517f08c379a000000000000000000000000000000000000000000000000000000000815260040161089790611b35565b60405180910390fd5b60007f6e71edae12b1b97f4d1f60370fef10105fa2faae0126114a169c64845d6126c98888886108cf8c61117a565b896040516020016108e596959493929190611b64565b6040516020818303038152906040528051906020012090506000610908826111d8565b90506000610918828787876111f2565b90508973ffffffffffffffffffffffffffffffffffffffff168173ffffffffffffffffffffffffffffffffffffffff1614610988576040517f08c379a000000000000000000000000000000000000000000000000000000000815260040161097f90611c11565b60405180910390fd5b6109938a8a8a610a2e565b50505050505050505050565b6000600160008473ffffffffffffffffffffffffffffffffffffffff1673ffffffffffffffffffffffffffffffffffffffff16815260200190815260200160002060008373ffffffffffffffffffffffffffffffffffffffff1673ffffffffffffffffffffffffffffffffffffffff16815260200190815260200160002054905092915050565b600033905090565b600073ffffffffffffffffffffffffffffffffffffffff168373ffffffffffffffffffffffffffffffffffffffff1603610a9d576040517f08c379a0000000000000000000000000000000000000000000000000000000008152600401610a9490611ca3565b60405180910390fd5b600073ffffffffffffffffffffffffffffffffffffffff168273ffffffffffffffffffffffffffffffffffffffff1603610b0c576040517f08c379a0000000000000000000000000000000000000000000000000000000008152600401610b0390611d35565b60405180910390fd5b80600160008573ffffffffffffffffffffffffffffffffffffffff1673ffffffffffffffffffffffffffffffffffffffff16815260200190815260200160002060008473ffffffffffffffffffffffffffffffffffffffff1673ffffffffffffffffffffffffffffffffffffffff168152602001908152602001600020819055508173ffffffffffffffffffffffffffffffffffffffff168373ffffffffffffffffffffffffffffffffffffffff167f8c5be1e5ebec7d5bd14f71427d1e84f3dd0314c0f7b2291e5b200ac8c7c3b92583604051610bea91906116c2565b60405180910390a3505050565b6000610c03848461099f565b90507fffffffffffffffffffffffffffffffffffffffffffffffffffffffffffffffff8114610c7d5781811015610c6f576040517f08c379a0000000000000000000000000000000000000000000000000000000008152600401610c6690611da1565b60405180910390fd5b610c7c8484848403610a2e565b5b50505050565b600073ffffffffffffffffffffffffffffffffffffffff168373ffffffffffffffffffffffffffffffffffffffff1603610cf2576040517f08c379a0000000000000000000000000000000000000000000000000000000008152600401610ce990611e33565b60405180910390fd5b600073ffffffffffffffffffffffffffffffffffffffff168273ffffffffffffffffffffffffffffffffffffffff1603610d61576040517f08c379a0000000000000000000000000000000000000000000000000000000008152600401610d5890611ec5565b60405180910390fd5b610d6c83838361121d565b60008060008573ffffffffffffffffffffffffffffffffffffffff1673ffffffffffffffffffffffffffffffffffffffff16815260200190815260200160002054905081811015610df2576040517f08c379a0000000000000000000000000000000000000000000000000000000008152600401610de990611f57565b60405180910390fd5b8181036000808673ffffffffffffffffffffffffffffffffffffffff1673ffffffffffffffffffffffffffffffffffffffff16815260200190815260200160002081905550816000808573ffffffffffffffffffffffffffffffffffffffff1673ffffffffffffffffffffffffffffffffffffffff168152602001908152602001600020600082825401925050819055508273ffffffffffffffffffffffffffffffffffffffff168473ffffffffffffffffffffffffffffffffffffffff167fddf252ad1be2c89b69c2b068fc378daa952ba7f163c4a11628f55a4df523b3ef84604051610ee091906116c2565b60405180910390a3610ef3848484611222565b50505050565b60007f000000000000000000000000000000000000000000000000000000000000000073ffffffffffffffffffffffffffffffffffffffff163073ffffffffffffffffffffffffffffffffffffffff16148015610f7557507f000000000000000000000000000000000000000000000000000000000000000046145b15610fa2577f00000000000000000000000000000000000000000000000000000000000000009050611010565b61100d7f00000000000000000000000000000000000000000000000000000000000000007f00000000000000000000000000000000000000000000000000000000000000007f0000000000000000000000000000000000000000000000000000000000000000611227565b90505b90565b50565b600073ffffffffffffffffffffffffffffffffffffffff168273ffffffffffffffffffffffffffffffffffffffff1603611085576040517f08c379a000000000000000000000000000000000000000000000000000000000815260040161107c90611fc3565b60405180910390fd5b6110916000838361121d565b80600260008282546110a39190611991565b92505081905550806000808473ffffffffffffffffffffffffffffffffffffffff1673ffffffffffffffffffffffffffffffffffffffff168152602001908152602001600020600082825401925050819055508173ffffffffffffffffffffffffffffffffffffffff16600073ffffffffffffffffffffffffffffffffffffffff167fddf252ad1be2c89b69c2b068fc378daa952ba7f163c4a11628f55a4df523b3ef8360405161115491906116c2565b60405180910390a361116860008383611222565b5050565b600081600001549050919050565b600080600560008473ffffffffffffffffffffffffffffffffffffffff1673ffffffffffffffffffffffffffffffffffffffff16815260200190815260200160002090506111c78161116c565b91506111d281611261565b50919050565b60006111eb6111e5610ef9565b83611277565b9050919050565b6000806000611203878787876112aa565b915091506112108161138c565b8192505050949350505050565b505050565b505050565b60008383834630604051602001611242959493929190611fe3565b6040516020818303038152906040528051906020012090509392505050565b6001816000016000828254019250508190555050565b6000828260405160200161128c9291906120ae565b60405160208183030381529060405280519060200120905092915050565b6000807f7fffffffffffffffffffffffffffffff5d576e7357a4501ddfe92f46681b20a08360001c11156112e5576000600391509150611383565b60006001878787876040516000815260200160405260405161130a94939291906120e5565b6020604051602081039080840390855afa15801561132c573d6000803e3d6000fd5b505050602060405103519050600073ffffffffffffffffffffffffffffffffffffffff168173ffffffffffffffffffffffffffffffffffffffff160361137a57600060019250925050611383565b80600092509250505b94509492505050565b600060048111156113a05761139f61212a565b5b8160048111156113b3576113b261212a565b5b03156114ef57600160048111156113cd576113cc61212a565b5b8160048111156113e0576113df61212a565b5b03611420576040517f08c379a0000000000000000000000000000000000000000000000000000000008152600401611417906121a5565b60405180910390fd5b600260048111156114345761143361212a565b5b8160048111156114475761144661212a565b5b03611487576040517f08c379a000000000000000000000000000000000000000000000000000000000815260040161147e90612211565b60405180910390fd5b6003600481111561149b5761149a61212a565b5b8160048111156114ae576114ad61212a565b5b036114ee576040517f08c379a00000000000000000000000000000000000000000000000000000000081526004016114e5906122a3565b60405180910390fd5b5b50565b600081519050919050565b600082825260208201905092915050565b60005b8381101561152c578082015181840152602081019050611511565b60008484015250505050565b6000601f19601f8301169050919050565b6000611554826114f2565b61155e81856114fd565b935061156e81856020860161150e565b61157781611538565b840191505092915050565b6000602082019050818103600083015261159c8184611549565b905092915050565b600080fd5b600073ffffffffffffffffffffffffffffffffffffffff82169050919050565b60006115d4826115a9565b9050919050565b6115e4816115c9565b81146115ef57600080fd5b50565b600081359050611601816115db565b92915050565b6000819050919050565b61161a81611607565b811461162557600080fd5b50565b60008135905061163781611611565b92915050565b60008060408385031215611654576116536115a4565b5b6000611662858286016115f2565b925050602061167385828601611628565b9150509250929050565b60008115159050919050565b6116928161167d565b82525050565b60006020820190506116ad6000830184611689565b92915050565b6116bc81611607565b82525050565b60006020820190506116d760008301846116b3565b92915050565b6000806000606084860312156116f6576116f56115a4565b5b6000611704868287016115f2565b9350506020611715868287016115f2565b925050604061172686828701611628565b9150509250925092565b600060ff82169050919050565b61174681611730565b82525050565b6000602082019050611761600083018461173d565b92915050565b6000819050919050565b61177a81611767565b82525050565b60006020820190506117956000830184611771565b92915050565b6000602082840312156117b1576117b06115a4565b5b60006117bf848285016115f2565b91505092915050565b6117d181611730565b81146117dc57600080fd5b50565b6000813590506117ee816117c8565b92915050565b6117fd81611767565b811461180857600080fd5b50565b60008135905061181a816117f4565b92915050565b600080600080600080600060e0888a03121561183f5761183e6115a4565b5b600061184d8a828b016115f2565b975050602061185e8a828b016115f2565b965050604061186f8a828b01611628565b95505060606118808a828b01611628565b94505060806118918a828b016117df565b93505060a06118a28a828b0161180b565b92505060c06118b38a828b0161180b565b91505092959891949750929550565b600080604083850312156118d9576118d86115a4565b5b60006118e7858286016115f2565b92505060206118f8858286016115f2565b9150509250929050565b7f4e487b7100000000000000000000000000000000000000000000000000000000600052602260045260246000fd5b6000600282049050600182168061194957607f821691505b60208210810361195c5761195b611902565b5b50919050565b7f4e487b7100000000000000000000000000000000000000000000000000000000600052601160045260246000fd5b600061199c82611607565b91506119a783611607565b92508282019050808211156119bf576119be611962565b5b92915050565b7f43697263756c61722073686f756c64206265206c657373207468616e206d617860008201527f20737570706c7900000000000000000000000000000000000000000000000000602082015250565b6000611a216027836114fd565b9150611a2c826119c5565b604082019050919050565b60006020820190508181036000830152611a5081611a14565b9050919050565b7f45524332303a2064656372656173656420616c6c6f77616e63652062656c6f7760008201527f207a65726f000000000000000000000000000000000000000000000000000000602082015250565b6000611ab36025836114fd565b9150611abe82611a57565b604082019050919050565b60006020820190508181036000830152611ae281611aa6565b9050919050565b7f45524332305065726d69743a206578706972656420646561646c696e65000000600082015250565b6000611b1f601d836114fd565b9150611b2a82611ae9565b602082019050919050565b60006020820190508181036000830152611b4e81611b12565b9050919050565b611b5e816115c9565b82525050565b600060c082019050611b796000830189611771565b611b866020830188611b55565b611b936040830187611b55565b611ba060608301866116b3565b611bad60808301856116b3565b611bba60a08301846116b3565b979650505050505050565b7f45524332305065726d69743a20696e76616c6964207369676e61747572650000600082015250565b6000611bfb601e836114fd565b9150611c0682611bc5565b602082019050919050565b60006020820190508181036000830152611c2a81611bee565b9050919050565b7f45524332303a20617070726f76652066726f6d20746865207a65726f2061646460008201527f7265737300000000000000000000000000000000000000000000000000000000602082015250565b6000611c8d6024836114fd565b9150611c9882611c31565b604082019050919050565b60006020820190508181036000830152611cbc81611c80565b9050919050565b7f45524332303a20617070726f766520746f20746865207a65726f20616464726560008201527f7373000000000000000000000000000000000000000000000000000000000000602082015250565b6000611d1f6022836114fd565b9150611d2a82611cc3565b604082019050919050565b60006020820190508181036000830152611d4e81611d12565b9050919050565b7f45524332303a20696e73756666696369656e7420616c6c6f77616e6365000000600082015250565b6000611d8b601d836114fd565b9150611d9682611d55565b602082019050919050565b60006020820190508181036000830152611dba81611d7e565b9050919050565b7f45524332303a207472616e736665722066726f6d20746865207a65726f20616460008201527f6472657373000000000000000000000000000000000000000000000000000000602082015250565b6000611e1d6025836114fd565b9150611e2882611dc1565b604082019050919050565b60006020820190508181036000830152611e4c81611e10565b9050919050565b7f45524332303a207472616e7366657220746f20746865207a65726f206164647260008201527f6573730000000000000000000000000000000000000000000000000000000000602082015250565b6000611eaf6023836114fd565b9150611eba82611e53565b604082019050919050565b60006020820190508181036000830152611ede81611ea2565b9050919050565b7f45524332303a207472616e7366657220616d6f756e742065786365656473206260008201527f616c616e63650000000000000000000000000000000000000000000000000000602082015250565b6000611f416026836114fd565b9150611f4c82611ee5565b604082019050919050565b60006020820190508181036000830152611f7081611f34565b9050919050565b7f45524332303a206d696e7420746f20746865207a65726f206164647265737300600082015250565b6000611fad601f836114fd565b9150611fb882611f77565b602082019050919050565b60006020820190508181036000830152611fdc81611fa0565b9050919050565b600060a082019050611ff86000830188611771565b6120056020830187611771565b6120126040830186611771565b61201f60608301856116b3565b61202c6080830184611b55565b9695505050505050565b600081905092915050565b7f1901000000000000000000000000000000000000000000000000000000000000600082015250565b6000612077600283612036565b915061208282612041565b600282019050919050565b6000819050919050565b6120a86120a382611767565b61208d565b82525050565b60006120b98261206a565b91506120c58285612097565b6020820191506120d58284612097565b6020820191508190509392505050565b60006080820190506120fa6000830187611771565b612107602083018661173d565b6121146040830185611771565b6121216060830184611771565b95945050505050565b7f4e487b7100000000000000000000000000000000000000000000000000000000600052602160045260246000fd5b7f45434453413a20696e76616c6964207369676e61747572650000000000000000600082015250565b600061218f6018836114fd565b915061219a82612159565b602082019050919050565b600060208201905081810360008301526121be81612182565b9050919050565b7f45434453413a20696e76616c6964207369676e6174757265206c656e67746800600082015250565b60006121fb601f836114fd565b9150612206826121c5565b602082019050919050565b6000602082019050818103600083015261222a816121ee565b9050919050565b7f45434453413a20696e76616c6964207369676e6174757265202773272076616c60008201527f7565000000000000000000000000000000000000000000000000000000000000602082015250565b600061228d6022836114fd565b915061229882612231565b604082019050919050565b600060208201905081810360008301526122bc81612280565b905091905056fea2646970667358221220224d5716d1f4b00483b4ff3b92a8a6d98485d7dda7c0e5f9fe1772bc2c2300d064736f6c63430008110033",
  "linkReferences": {},
  "deployedLinkReferences": {}
}