{
  "abi": [
    {
      "inputs": [],
      "stateMutability": "nonpayable",
      "type": "constructor"
    },
    {
      "anonymous": false,
      "inputs": [
        {
          "indexed": true,
          "internalType": "address",
          "name": "owner",
          "type": "address"
        },
        {
          "indexed": true,
          "internalType": "address",
          "name": "spender",
          "type": "address"
        },
        {
          "indexed": false,
          "internalType": "uint256",
          "name": "amount",
          "type": "uint256"
        }
      ],
      "name": "Approval",
      "type": "event"
    },
    {
      "anonymous": false,
      "inputs": [
        {
          "indexed": true,
          "internalType": "address",
          "name": "sender",
          "type": "address"
        },
        {
          "indexed": false,
          "internalType": "uint256",
          "name": "amount0",
          "type": "uint256"
        },
        {
          "indexed": false,
          "internalType": "uint256",
          "name": "amount1",
          "type": "uint256"
        },
        {
          "indexed": true,
          "internalType": "address",
          "name": "to",
          "type": "address"
        }
      ],
      "name": "Burn",
      "type": "event"
    },
    {
      "anonymous": false,
      "inputs": [
        {
          "indexed": true,
          "internalType": "address",
          "name": "sender",
          "type": "address"
        },
        {
          "indexed": false,
          "internalType": "uint256",
          "name": "amount0",
          "type": "uint256"
        },
        {
          "indexed": false,
          "internalType": "uint256",
          "name": "amount1",
          "type": "uint256"
        }
      ],
      "name": "Mint",
      "type": "event"
    },
    {
      "anonymous": false,
      "inputs": [
        {
          "indexed": true,
          "internalType": "address",
          "name": "sender",
          "type": "address"
        },
        {
          "indexed": false,
          "internalType": "uint256",
          "name": "amount0Out",
          "type": "uint256"
        },
        {
          "indexed": false,
          "internalType": "uint256",
          "name": "amount1Out",
          "type": "uint256"
        },
        {
          "indexed": true,
          "internalType": "address",
          "name": "to",
          "type": "address"
        }
      ],
      "name": "Swap",
      "type": "event"
    },
    {
      "anonymous": false,
      "inputs": [
        {
          "indexed": false,
          "internalType": "uint256",
          "name": "reserve0",
          "type": "uint256"
        },
        {
          "indexed": false,
          "internalType": "uint256",
          "name": "reserve1",
          "type": "uint256"
        }
      ],
      "name": "Sync",
      "type": "event"
    },
    {
      "anonymous": false,
      "inputs": [
        {
          "indexed": true,
          "internalType": "address",
          "name": "from",
          "type": "address"
        },
        {
          "indexed": true,
          "internalType": "address",
          "name": "to",
          "type": "address"
        },
        {
          "indexed": false,
          "internalType": "uint256",
          "name": "amount",
          "type": "uint256"
        }
      ],
      "name": "Transfer",
      "type": "event"
    },
    {
      "inputs": [],
      "name": "DOMAIN_SEPARATOR",
      "outputs": [
        {
          "internalType": "bytes32",
          "name": "",
          "type": "bytes32"
        }
      ],
      "stateMutability": "view",
      "type": "function"
    },
    {
      "inputs": [],
      "name": "MINIMUM_LIQUIDITY",
      "outputs": [
        {
          "internalType": "uint256",
          "name": "",
          "type": "uint256"
        }
      ],
      "stateMutability": "view",
      "type": "function"
    },
    {
      "inputs": [
        {
          "internalType": "address",
          "name": "",
          "type": "address"
        },
        {
          "internalType": "address",
          "name": "",
          "type": "address"
        }
      ],
      "name": "allowance",
      "outputs": [
        {
          "internalType": "uint256",
          "name": "",
          "type": "uint256"
        }
      ],
      "stateMutability": "view",
      "type": "function"
    },
    {
      "inputs": [
        {
          "internalType": "address",
          "name": "spender",
          "type": "address"
        },
        {
          "internalType": "uint256",
          "name": "amount",
          "type": "uint256"
        }
      ],
      "name": "approve",
      "outputs": [
        {
          "internalType": "bool",
          "name": "",
          "type": "bool"
        }
      ],
      "stateMutability": "nonpayable",
      "type": "function"
    },
    {
      "inputs": [
        {
          "internalType": "address",
          "name": "",
          "type": "address"
        }
      ],
      "name": "balanceOf",
      "outputs": [
        {
          "internalType": "uint256",
          "name": "",
          "type": "uint256"
        }
      ],
      "stateMutability": "view",
      "type": "function"
    },
    {
      "inputs": [
        {
          "internalType": "address",
          "name": "to",
          "type": "address"
        }
      ],
      "name": "burn",
      "outputs": [
        {
          "internalType": "uint256",
          "name": "amount0",
          "type": "uint256"
        },
        {
          "internalType": "uint256",
          "name": "amount1",
          "type": "uint256"
        }
      ],
      "stateMutability": "nonpayable",
      "type": "function"
    },
    {
      "inputs": [],
      "name": "decimals",
      "outputs": [
        {
          "internalType": "uint8",
          "name": "",
          "type": "uint8"
        }
      ],
      "stateMutability": "view",
      "type": "function"
    },
    {
      "inputs": [],
      "name": "factory",
      "outputs": [
        {
          "internalType": "address",
          "name": "",
          "type": "address"
        }
      ],
      "stateMutability": "view",
      "type": "function"
    },
    {
      "inputs": [],
      "name": "getReserves",
      "outputs": [
        {
          "internalType": "uint112",
          "name": "",
          "type": "uint112"
        },
        {
          "internalType": "uint112",
          "name": "",
          "type": "uint112"
        },
        {
          "internalType": "uint32",
          "name": "",
          "type": "uint32"
        }
      ],
      "stateMutability": "view",
      "type": "function"
    },
    {
      "inputs": [
        {
          "internalType": "address",
          "name": "_token0",
          "type": "address"
        },
        {
          "internalType": "address",
          "name": "_token1",
          "type": "address"
        }
      ],
      "name": "initialize",
      "outputs": [],
      "stateMutability": "nonpayable",
      "type": "function"
    },
    {
      "inputs": [],
      "name": "kLast",
      "outputs": [
        {
          "internalType": "uint256",
          "name": "",
          "type": "uint256"
        }
      ],
      "stateMutability": "view",
      "type": "function"
    },
    {
      "inputs": [
        {
          "internalType": "address",
          "name": "to",
          "type": "address"
        }
      ],
      "name": "mint",
      "outputs": [
        {
          "internalType": "uint256",
          "name": "liquidity",
          "type": "uint256"
        }
      ],
      "stateMutability": "nonpayable",
      "type": "function"
    },
    {
      "inputs": [],
      "name": "name",
      "outputs": [
        {
          "internalType": "string",
          "name": "",
          "type": "string"
        }
      ],
      "stateMutability": "view",
      "type": "function"
    },
    {
      "inputs": [
        {
          "internalType": "address",
          "name": "",
          "type": "address"
        }
      ],
      "name": "nonces",
      "outputs": [
        {
          "internalType": "uint256",
          "name": "",
          "type": "uint256"
        }
      ],
      "stateMutability": "view",
      "type": "function"
    },
    {
      "inputs": [
        {
          "internalType": "address",
          "name": "owner",
          "type": "address"
        },
        {
          "internalType": "address",
          "name": "spender",
          "type": "address"
        },
        {
          "internalType": "uint256",
          "name": "value",
          "type": "uint256"
        },
        {
          "internalType": "uint256",
          "name": "deadline",
          "type": "uint256"
        },
        {
          "internalType": "uint8",
          "name": "v",
          "type": "uint8"
        },
        {
          "internalType": "bytes32",
          "name": "r",
          "type": "bytes32"
        },
        {
          "internalType": "bytes32",
          "name": "s",
          "type": "bytes32"
        }
      ],
      "name": "permit",
      "outputs": [],
      "stateMutability": "nonpayable",
      "type": "function"
    },
    {
      "inputs": [],
      "name": "price0CumulativeLast",
      "outputs": [
        {
          "internalType": "uint256",
          "name": "",
          "type": "uint256"
        }
      ],
      "stateMutability": "view",
      "type": "function"
    },
    {
      "inputs": [],
      "name": "price1CumulativeLast",
      "outputs": [
        {
          "internalType": "uint256",
          "name": "",
          "type": "uint256"
        }
      ],
      "stateMutability": "view",
      "type": "function"
    },
    {
      "inputs": [
        {
          "internalType": "address",
          "name": "to",
          "type": "address"
        }
      ],
      "name": "skim",
      "outputs": [],
      "stateMutability": "nonpayable",
      "type": "function"
    },
    {
      "inputs": [
        {
          "internalType": "uint256",
          "name": "amount0Out",
          "type": "uint256"
        },
        {
          "internalType": "uint256",
          "name": "amount1Out",
          "type": "uint256"
        },
        {
          "internalType": "address",
          "name": "to",
          "type": "address"
        },
        {
          "internalType": "bytes",
          "name": "data",
          "type": "bytes"
        }
      ],
      "name": "swap",
      "outputs": [],
      "stateMutability": "nonpayable",
      "type": "function"
    },
    {
      "inputs": [],
      "name": "symbol",
      "outputs": [
        {
          "internalType": "string",
          "name": "",
          "type": "string"
        }
      ],
      "stateMutability": "view",
      "type": "function"
    },
    {
      "inputs": [],
      "name": "sync",
      "outputs": [],
      "stateMutability": "nonpayable",
      "type": "function"
    },
    {
      "inputs": [],
      "name": "token0",
      "outputs": [
        {
          "internalType": "address",
          "name": "",
          "type": "address"
        }
      ],
      "stateMutability": "view",
      "type": "function"
    },
    {
      "inputs": [],
      "name": "token1",
      "outputs": [
        {
          "internalType": "address",
          "name": "",
          "type": "address"
        }
      ],
      "stateMutability": "view",
      "type": "function"
    },
    {
      "inputs": [],
      "name": "totalSupply",
      "outputs": [
        {
          "internalType": "uint256",
          "name": "",
          "type": "uint256"
        }
      ],
      "stateMutability": "view",
      "type": "function"
    },
    {
      "inputs": [
        {
          "internalType": "address",
          "name": "to",
          "type": "address"
        },
        {
          "internalType": "uint256",
          "name": "amount",
          "type": "uint256"
        }
      ],
      "name": "transfer",
      "outputs": [
        {
          "internalType": "bool",
          "name": "",
          "type": "bool"
        }
      ],
      "stateMutability": "nonpayable",
      "type": "function"
    },
    {
      "inputs": [
        {
          "internalType": "address",
          "name": "from",
          "type": "address"
        },
        {
          "internalType": "address",
          "name": "to",
          "type": "address"
        },
        {
          "internalType": "uint256",
          "name": "amount",
          "type": "uint256"
        }
      ],
      "name": "transferFrom",
      "outputs": [
        {
          "internalType": "bool",
          "name": "",
          "type": "bool"
        }
      ],
      "stateMutability": "nonpayable",
      "type": "function"
    },
    {
      "inputs": [
        {
          "internalType": "uint256",
          "name": "balance0",
          "type": "uint256"
        },
        {
          "internalType": "uint256",
          "name": "balance1",
          "type": "uint256"
        },
        {
          "internalType": "uint112",
          "name": "_reserve0",
          "type": "uint112"
        },
        {
          "internalType": "uint112",
          "name": "_reserve1",
          "type": "uint112"
        }
      ],
      "name": "update",
      "outputs": [],
      "stateMutability": "nonpayable",
      "type": "function"
    }
  ],
  "bytecode": {
    "object": "0x60e06040526001600d553480156200001657600080fd5b506040518060400160405280600981526020016826bcab193830b4b93960b91b8152506040518060400160405280600581526020016426ab19283960d91b815250601482600090816200006a9190620001dd565b506001620000798382620001dd565b5060ff81166080524660a0526200008f6200009c565b60c0525062000327915050565b60007f8b73c3c69bb8fe3d512ecc4cf759cc79239f7b179b0ffacaa9a75d522b39400f6000604051620000d09190620002a9565b6040805191829003822060208301939093528101919091527fc89efdaa54c0f20c7adf612882df0950f5a951637e0307cdcb4c672f298b8bc660608201524660808201523060a082015260c00160405160208183030381529060405280519060200120905090565b634e487b7160e01b600052604160045260246000fd5b600181811c908216806200016357607f821691505b6020821081036200018457634e487b7160e01b600052602260045260246000fd5b50919050565b601f821115620001d857600081815260208120601f850160051c81016020861015620001b35750805b601f850160051c820191505b81811015620001d457828155600101620001bf565b5050505b505050565b81516001600160401b03811115620001f957620001f962000138565b62000211816200020a84546200014e565b846200018a565b602080601f831160018114620002495760008415620002305750858301515b600019600386901b1c1916600185901b178555620001d4565b600085815260208120601f198616915b828110156200027a5788860151825594840194600190910190840162000259565b5085821015620002995787850151600019600388901b60f8161c191681555b5050505050600190811b01905550565b6000808354620002b9816200014e565b60018281168015620002d45760018114620002ea576200031b565b60ff19841687528215158302870194506200031b565b8760005260208060002060005b85811015620003125781548a820152908401908201620002f7565b50505082870194505b50929695505050505050565b60805160a05160c0516120c8620003576000396000610b5e01526000610b290152600061029201526120c86000f3fe608060405234801561001057600080fd5b50600436106101a95760003560e01c806370a08231116100f9578063bc25cf7711610097578063d505accf11610071578063d505accf146103fd578063d9fc83c614610410578063dd62ed3e14610423578063fff6cae91461044e57600080fd5b8063bc25cf77146103c4578063c45a0155146103d7578063d21220a7146103ea57600080fd5b806389afcb44116100d357806389afcb441461037857806395d89b41146103a0578063a9059cbb146103a8578063ba9a7a56146103bb57600080fd5b806370a082311461032f5780637464fc3d1461034f5780637ecebe001461035857600080fd5b806323b872dd11610166578063485cc95511610140578063485cc955146102ce5780635909c0d51461030a5780635a3d5493146103135780636a6278421461031c57600080fd5b806323b872dd1461027a578063313ce5671461028d5780633644e515146102c657600080fd5b8063022c0d9f146101ae57806306fdde03146101c35780630902f1ac146101e1578063095ea7b3146102155780630dfe16811461023857806318160ddd14610263575b600080fd5b6101c16101bc366004611b80565b610456565b005b6101cb610920565b6040516101d89190611c38565b60405180910390f35b6101e96109ae565b604080516001600160701b03948516815293909216602084015263ffffffff16908201526060016101d8565b610228610223366004611c6b565b6109d8565b60405190151581526020016101d8565b60075461024b906001600160a01b031681565b6040516001600160a01b0390911681526020016101d8565b61026c60025481565b6040519081526020016101d8565b610228610288366004611c95565b610a45565b6102b47f000000000000000000000000000000000000000000000000000000000000000081565b60405160ff90911681526020016101d8565b61026c610b25565b6101c16102dc366004611cd1565b600780546001600160a01b039384166001600160a01b03199182161790915560088054929093169116179055565b61026c600a5481565b61026c600b5481565b61026c61032a366004611d04565b610b80565b61026c61033d366004611d04565b60036020526000908152604090205481565b61026c600c5481565b61026c610366366004611d04565b60056020526000908152604090205481565b61038b610386366004611d04565b610df2565b604080519283526020830191909152016101d8565b6101cb611110565b6102286103b6366004611c6b565b61111d565b61026c6103e881565b6101c16103d2366004611d04565b611183565b60065461024b906001600160a01b031681565b60085461024b906001600160a01b031681565b6101c161040b366004611d1f565b6112bc565b6101c161041e366004611da9565b611500565b61026c610431366004611cd1565b600460209081526000928352604080842090915290825290205481565b6101c1611512565b600d546001146104a15760405162461bcd60e51b8152602060048201526011602482015270155b9a5cddd85c158c8e881313d0d2d151607a1b60448201526064015b60405180910390fd5b6000600d55841515806104b45750600084115b61050e5760405162461bcd60e51b815260206004820152602560248201527f556e697377617056323a20494e53554646494349454e545f4f55545055545f416044820152641353d5539560da1b6064820152608401610498565b6000806105196109ae565b5091509150816001600160701b03168710801561053e5750806001600160701b031686105b6105945760405162461bcd60e51b815260206004820152602160248201527f556e697377617056323a20494e53554646494349454e545f4c495155494449546044820152605960f81b6064820152608401610498565b60008088156105b4576007546105b4906001600160a01b0316888b611624565b87156105d1576008546105d1906001600160a01b0316888a611624565b841561063e576040516304347a1760e21b81526001600160a01b038816906310d1e85c9061060b9033908d908d908c908c90600401611def565b600060405180830381600087803b15801561062557600080fd5b505af1158015610639573d6000803e3d6000fd5b505050505b6007546040516370a0823160e01b81523060048201526001600160a01b03909116906370a08231906024016020604051808303816000875af1158015610688573d6000803e3d6000fd5b505050506040513d601f19601f820116820180604052508101906106ac9190611e3b565b6008546040516370a0823160e01b81523060048201529193506001600160a01b0316906370a08231906024016020604051808303816000875af11580156106f7573d6000803e3d6000fd5b505050506040513d601f19601f8201168201806040525081019061071b9190611e3b565b905060006107328a6001600160701b038716611e6a565b831161073f57600061075c565b6107528a6001600160701b038716611e6a565b61075c9084611e6a565b905060006107738a6001600160701b038716611e6a565b831161078057600061079d565b6107938a6001600160701b038716611e6a565b61079d9084611e6a565b905060008211806107ae5750600081115b6108065760405162461bcd60e51b8152602060048201526024808201527f556e697377617056323a20494e53554646494349454e545f494e5055545f414d60448201526313d5539560e21b6064820152608401610498565b6000610813836003611e7d565b61081f866103e8611e7d565b6108299190611e6a565b90506000610838836003611e7d565b610844866103e8611e7d565b61084e9190611e6a565b90506108666001600160701b03808916908a16611e7d565b61087390620f4240611e7d565b61087d8284611e7d565b10156108ba5760405162461bcd60e51b815260206004820152600c60248201526b556e697377617056323a204b60a01b6044820152606401610498565b50506108c884848888611771565b604080518c8152602081018c90526001600160a01b038b169133917f2a9237ff5aa599ef4c5ee4b1142b53429d5755e2685fe6288b2e3320202115f5910160405180910390a350506001600d55505050505050505050565b6000805461092d90611e94565b80601f016020809104026020016040519081016040528092919081815260200182805461095990611e94565b80156109a65780601f1061097b576101008083540402835291602001916109a6565b820191906000526020600020905b81548152906001019060200180831161098957829003601f168201915b505050505081565b6009546001600160701b0380821692600160701b830490911691600160e01b900463ffffffff1690565b3360008181526004602090815260408083206001600160a01b038716808552925280832085905551919290917f8c5be1e5ebec7d5bd14f71427d1e84f3dd0314c0f7b2291e5b200ac8c7c3b92590610a339086815260200190565b60405180910390a35060015b92915050565b6001600160a01b03831660009081526004602090815260408083203384529091528120546000198114610aa157610a7c8382611e6a565b6001600160a01b03861660009081526004602090815260408083203384529091529020555b6001600160a01b03851660009081526003602052604081208054859290610ac9908490611e6a565b90915550506001600160a01b038085166000818152600360205260409081902080548701905551909187169060008051602061207383398151915290610b129087815260200190565b60405180910390a3506001949350505050565b60007f00000000000000000000000000000000000000000000000000000000000000004614610b5b57610b5661195d565b905090565b507f000000000000000000000000000000000000000000000000000000000000000090565b6000806000610b8d6109ae565b506007546040516370a0823160e01b81523060048201529294509092506000916001600160a01b03909116906370a08231906024016020604051808303816000875af1158015610be1573d6000803e3d6000fd5b505050506040513d601f19601f82011682018060405250810190610c059190611e3b565b6008546040516370a0823160e01b81523060048201529192506000916001600160a01b03909116906370a08231906024016020604051808303816000875af1158015610c55573d6000803e3d6000fd5b505050506040513d601f19601f82011682018060405250810190610c799190611e3b565b90506000610c906001600160701b03861684611e6a565b90506000610ca76001600160701b03861684611e6a565b9050600254600003610ce6576103e8610cc8610cc38385611e7d565b6119f7565b610cd29190611e6a565b9650610ce160006103e8611a67565b610d35565b610d32866001600160701b031660025484610d019190611e7d565b610d0b9190611ede565b866001600160701b031660025484610d239190611e7d565b610d2d9190611ede565b611ac1565b96505b60008711610d965760405162461bcd60e51b815260206004820152602860248201527f556e697377617056323a20494e53554646494349454e545f4c495155494449546044820152671657d3525395115160c21b6064820152608401610498565b610da08888611a67565b610dac84848888611771565b604080518381526020810183905233917f4c209b5fc8ad50758f13e2e1088ba56a560dff690a1c6fef26394f4c03821c4f910160405180910390a2505050505050919050565b6007546040516370a0823160e01b8152306004820152600091829182916001600160a01b0316906370a08231906024016020604051808303816000875af1158015610e41573d6000803e3d6000fd5b505050506040513d601f19601f82011682018060405250810190610e659190611e3b565b6008546040516370a0823160e01b81523060048201529192506000916001600160a01b03909116906370a08231906024016020604051808303816000875af1158015610eb5573d6000803e3d6000fd5b505050506040513d601f19601f82011682018060405250810190610ed99190611e3b565b3060009081526003602052604090205460025491925090610efa8483611e7d565b610f049190611ede565b600254909550610f148383611e7d565b610f1e9190611ede565b9350600085118015610f305750600084115b610f8d5760405162461bcd60e51b815260206004820152602860248201527f556e697377617056323a20494e53554646494349454e545f4c495155494449546044820152671657d0955493915160c21b6064820152608401610498565b610f973082611ad9565b600754610fae906001600160a01b03168787611624565b600854610fc5906001600160a01b03168786611624565b6007546040516370a0823160e01b81523060048201526001600160a01b03909116906370a08231906024016020604051808303816000875af115801561100f573d6000803e3d6000fd5b505050506040513d601f19601f820116820180604052508101906110339190611e3b565b6008546040516370a0823160e01b81523060048201529194506001600160a01b0316906370a08231906024016020604051808303816000875af115801561107e573d6000803e3d6000fd5b505050506040513d601f19601f820116820180604052508101906110a29190611e3b565b91506000806110af6109ae565b50915091506110c085858484611771565b60408051888152602081018890526001600160a01b038a169133917fdccd412f0b1252819cb1fd330b93224ca42612892bb3f4f789976e6d81936496910160405180910390a35050505050915091565b6001805461092d90611e94565b3360009081526003602052604081208054839190839061113e908490611e6a565b90915550506001600160a01b0383166000818152600360205260409081902080548501905551339060008051602061207383398151915290610a339086815260200190565b600d546001146111c95760405162461bcd60e51b8152602060048201526011602482015270155b9a5cddd85c158c8e881313d0d2d151607a1b6044820152606401610498565b6000600d556007546008546009546040516370a0823160e01b81523060048201526001600160a01b03938416939092169161126a91849186916001600160701b03169083906370a08231906024015b6020604051808303816000875af1158015611237573d6000803e3d6000fd5b505050506040513d601f19601f8201168201806040525081019061125b9190611e3b565b6112659190611e6a565b611624565b6009546040516370a0823160e01b81523060048201526112b29183918691600160701b90046001600160701b0316906001600160a01b038416906370a0823190602401611218565b50506001600d5550565b4284101561130c5760405162461bcd60e51b815260206004820152601760248201527f5045524d49545f444541444c494e455f455850495245440000000000000000006044820152606401610498565b60006001611318610b25565b6001600160a01b038a811660008181526005602090815260409182902080546001810190915582517f6e71edae12b1b97f4d1f60370fef10105fa2faae0126114a169c64845d6126c98184015280840194909452938d166060840152608083018c905260a083019390935260c08083018b90528151808403909101815260e08301909152805192019190912061190160f01b6101008301526101028201929092526101228101919091526101420160408051601f198184030181528282528051602091820120600084529083018083525260ff871690820152606081018590526080810184905260a0016020604051602081039080840390855afa158015611424573d6000803e3d6000fd5b5050604051601f1901519150506001600160a01b0381161580159061145a5750876001600160a01b0316816001600160a01b0316145b6114975760405162461bcd60e51b815260206004820152600e60248201526d24a72b20a624a22fa9a4a3a722a960911b6044820152606401610498565b6001600160a01b0390811660009081526004602090815260408083208a8516808552908352928190208990555188815291928a16917f8c5be1e5ebec7d5bd14f71427d1e84f3dd0314c0f7b2291e5b200ac8c7c3b925910160405180910390a350505050505050565b61150c84848484611771565b50505050565b60008061151d6109ae565b506007546040516370a0823160e01b8152306004820152929450909250611620916001600160a01b03909116906370a08231906024016020604051808303816000875af1158015611572573d6000803e3d6000fd5b505050506040513d601f19601f820116820180604052508101906115969190611e3b565b6008546040516370a0823160e01b81523060048201526001600160a01b03909116906370a08231906024016020604051808303816000875af11580156115e0573d6000803e3d6000fd5b505050506040513d601f19601f820116820180604052508101906116049190611e3b565b6009546001600160701b0380821691600160701b900416611771565b5050565b604080518082018252601981527f7472616e7366657228616464726573732c75696e74323536290000000000000060209182015281516001600160a01b0385811660248301526044808301869052845180840390910181526064909201845291810180516001600160e01b031663a9059cbb60e01b17905291516000926060928716916116b19190611ef2565b6000604051808303816000865af19150503d80600081146116ee576040519150601f19603f3d011682016040523d82523d6000602084013e6116f3565b606091505b50909250905081801561171e57508051158061171e57508080602001905181019061171e9190611f0e565b61176a5760405162461bcd60e51b815260206004820152601a60248201527f556e697377617056323a205452414e534645525f4641494c45440000000000006044820152606401610498565b5050505050565b6001600160701b03841180159061178f57506001600160701b038311155b6117d15760405162461bcd60e51b8152602060048201526013602482015272556e697377617056323a204f564552464c4f5760681b6044820152606401610498565b60006117e264010000000042611f30565b60095490915060009061180290600160e01b900463ffffffff1683611f44565b905060008163ffffffff1611801561182257506001600160701b03841615155b801561183657506001600160701b03831615155b156118c5578063ffffffff1661185e8561184f86611b3b565b6001600160e01b031690611b54565b6001600160e01b03166118719190611e7d565b600a60008282546118829190611f68565b909155505063ffffffff811661189b8461184f87611b3b565b6001600160e01b03166118ae9190611e7d565b600b60008282546118bf9190611f68565b90915550505b6009805463ffffffff8416600160e01b026001600160e01b036001600160701b03898116600160701b9081026001600160e01b03199095168c83161794909417918216831794859055604080519382169282169290921783529290930490911660208201527fcf2aa50876cdfbb541206f89af0ee78d44a2abf8d328e37fa4917f982149848a910160405180910390a1505050505050565b60007f8b73c3c69bb8fe3d512ecc4cf759cc79239f7b179b0ffacaa9a75d522b39400f600060405161198f9190611f7b565b6040805191829003822060208301939093528101919091527fc89efdaa54c0f20c7adf612882df0950f5a951637e0307cdcb4c672f298b8bc660608201524660808201523060a082015260c00160405160208183030381529060405280519060200120905090565b60006003821115611a585750806000611a11600283611ede565b611a1c906001611f68565b90505b81811015611a5257905080600281611a378186611ede565b611a419190611f68565b611a4b9190611ede565b9050611a1f565b50919050565b8115611a62575060015b919050565b8060026000828254611a799190611f68565b90915550506001600160a01b03821660008181526003602090815260408083208054860190555184815260008051602061207383398151915291015b60405180910390a35050565b6000818310611ad05781611ad2565b825b9392505050565b6001600160a01b03821660009081526003602052604081208054839290611b01908490611e6a565b90915550506002805482900390556040518181526000906001600160a01b0384169060008051602061207383398151915290602001611ab5565b6000610a3f600160701b6001600160701b03841661201a565b6000611ad26001600160701b0383168461204c565b80356001600160a01b0381168114611a6257600080fd5b600080600080600060808688031215611b9857600080fd5b8535945060208601359350611baf60408701611b69565b9250606086013567ffffffffffffffff80821115611bcc57600080fd5b818801915088601f830112611be057600080fd5b813581811115611bef57600080fd5b896020828501011115611c0157600080fd5b9699959850939650602001949392505050565b60005b83811015611c2f578181015183820152602001611c17565b50506000910152565b6020815260008251806020840152611c57816040850160208701611c14565b601f01601f19169190910160400192915050565b60008060408385031215611c7e57600080fd5b611c8783611b69565b946020939093013593505050565b600080600060608486031215611caa57600080fd5b611cb384611b69565b9250611cc160208501611b69565b9150604084013590509250925092565b60008060408385031215611ce457600080fd5b611ced83611b69565b9150611cfb60208401611b69565b90509250929050565b600060208284031215611d1657600080fd5b611ad282611b69565b600080600080600080600060e0888a031215611d3a57600080fd5b611d4388611b69565b9650611d5160208901611b69565b95506040880135945060608801359350608088013560ff81168114611d7557600080fd5b9699959850939692959460a0840135945060c09093013592915050565b80356001600160701b0381168114611a6257600080fd5b60008060008060808587031215611dbf57600080fd5b8435935060208501359250611dd660408601611d92565b9150611de460608601611d92565b905092959194509250565b60018060a01b038616815284602082015283604082015260806060820152816080820152818360a0830137600081830160a090810191909152601f909201601f19160101949350505050565b600060208284031215611e4d57600080fd5b5051919050565b634e487b7160e01b600052601160045260246000fd5b81810381811115610a3f57610a3f611e54565b8082028115828204841417610a3f57610a3f611e54565b600181811c90821680611ea857607f821691505b602082108103611a5257634e487b7160e01b600052602260045260246000fd5b634e487b7160e01b600052601260045260246000fd5b600082611eed57611eed611ec8565b500490565b60008251611f04818460208701611c14565b9190910192915050565b600060208284031215611f2057600080fd5b81518015158114611ad257600080fd5b600082611f3f57611f3f611ec8565b500690565b63ffffffff828116828216039080821115611f6157611f61611e54565b5092915050565b80820180821115610a3f57610a3f611e54565b600080835481600182811c915080831680611f9757607f831692505b60208084108203611fb657634e487b7160e01b86526022600452602486fd5b818015611fca5760018114611fdf5761200c565b60ff198616895284151585028901965061200c565b60008a81526020902060005b868110156120045781548b820152908501908301611feb565b505084890196505b509498975050505050505050565b6001600160e01b0382811682821681810283169291811582850482141761204357612043611e54565b50505092915050565b60006001600160e01b038381168061206657612066611ec8565b9216919091049291505056feddf252ad1be2c89b69c2b068fc378daa952ba7f163c4a11628f55a4df523b3efa264697066735822122032659115d0b406b099acfc2a27b8ea3087df7a0a94132e93fc86f4e9e659605564736f6c63430008130033",
    "linkReferences": {}
  },
  "methodIdentifiers": {
    "DOMAIN_SEPARATOR()": "3644e515",
    "MINIMUM_LIQUIDITY()": "ba9a7a56",
    "allowance(address,address)": "dd62ed3e",
    "approve(address,uint256)": "095ea7b3",
    "balanceOf(address)": "70a08231",
    "burn(address)": "89afcb44",
    "decimals()": "313ce567",
    "factory()": "c45a0155",
    "getReserves()": "0902f1ac",
    "initialize(address,address)": "485cc955",
    "kLast()": "7464fc3d",
    "mint(address)": "6a627842",
    "name()": "06fdde03",
    "nonces(address)": "7ecebe00",
    "permit(address,address,uint256,uint256,uint8,bytes32,bytes32)": "d505accf",
    "price0CumulativeLast()": "5909c0d5",
    "price1CumulativeLast()": "5a3d5493",
    "skim(address)": "bc25cf77",
    "swap(uint256,uint256,address,bytes)": "022c0d9f",
    "symbol()": "95d89b41",
    "sync()": "fff6cae9",
    "token0()": "0dfe1681",
    "token1()": "d21220a7",
    "totalSupply()": "18160ddd",
    "transfer(address,uint256)": "a9059cbb",
    "transferFrom(address,address,uint256)": "23b872dd",
    "update(uint256,uint256,uint112,uint112)": "d9fc83c6"
  },
  "id": 20
}