{
  "_format": "hh-sol-artifact-1",
  "contractName": "NFTDutchAuction_ERC20Bids",
  "sourceName": "contracts/NFTDutchAuction_ERC20Bids.sol",
  "abi": [
    {
      "anonymous": false,
      "inputs": [
        {
          "indexed": false,
          "internalType": "address",
          "name": "previousAdmin",
          "type": "address"
        },
        {
          "indexed": false,
          "internalType": "address",
          "name": "newAdmin",
          "type": "address"
        }
      ],
      "name": "AdminChanged",
      "type": "event"
    },
    {
      "anonymous": false,
      "inputs": [
        {
          "indexed": true,
          "internalType": "address",
          "name": "owner",
          "type": "address"
        },
        {
          "indexed": true,
          "internalType": "address",
          "name": "approved",
          "type": "address"
        },
        {
          "indexed": true,
          "internalType": "uint256",
          "name": "tokenId",
          "type": "uint256"
        }
      ],
      "name": "Approval",
      "type": "event"
    },
    {
      "anonymous": false,
      "inputs": [
        {
          "indexed": true,
          "internalType": "address",
          "name": "owner",
          "type": "address"
        },
        {
          "indexed": true,
          "internalType": "address",
          "name": "operator",
          "type": "address"
        },
        {
          "indexed": false,
          "internalType": "bool",
          "name": "approved",
          "type": "bool"
        }
      ],
      "name": "ApprovalForAll",
      "type": "event"
    },
    {
      "anonymous": false,
      "inputs": [
        {
          "indexed": true,
          "internalType": "address",
          "name": "beacon",
          "type": "address"
        }
      ],
      "name": "BeaconUpgraded",
      "type": "event"
    },
    {
      "anonymous": false,
      "inputs": [
        {
          "indexed": false,
          "internalType": "uint8",
          "name": "version",
          "type": "uint8"
        }
      ],
      "name": "Initialized",
      "type": "event"
    },
    {
      "anonymous": false,
      "inputs": [
        {
          "indexed": true,
          "internalType": "address",
          "name": "previousOwner",
          "type": "address"
        },
        {
          "indexed": true,
          "internalType": "address",
          "name": "newOwner",
          "type": "address"
        }
      ],
      "name": "OwnershipTransferred",
      "type": "event"
    },
    {
      "anonymous": false,
      "inputs": [
        {
          "indexed": true,
          "internalType": "address",
          "name": "from",
          "type": "address"
        },
        {
          "indexed": true,
          "internalType": "address",
          "name": "to",
          "type": "address"
        },
        {
          "indexed": true,
          "internalType": "uint256",
          "name": "tokenId",
          "type": "uint256"
        }
      ],
      "name": "Transfer",
      "type": "event"
    },
    {
      "anonymous": false,
      "inputs": [
        {
          "indexed": true,
          "internalType": "address",
          "name": "implementation",
          "type": "address"
        }
      ],
      "name": "Upgraded",
      "type": "event"
    },
    {
      "inputs": [
        {
          "internalType": "address",
          "name": "to",
          "type": "address"
        },
        {
          "internalType": "uint256",
          "name": "tokenId",
          "type": "uint256"
        }
      ],
      "name": "approve",
      "outputs": [],
      "stateMutability": "nonpayable",
      "type": "function"
    },
    {
      "inputs": [],
      "name": "auctionClosed",
      "outputs": [
        {
          "internalType": "bool",
          "name": "",
          "type": "bool"
        }
      ],
      "stateMutability": "view",
      "type": "function"
    },
    {
      "inputs": [],
      "name": "auctionEnd",
      "outputs": [
        {
          "internalType": "uint256",
          "name": "",
          "type": "uint256"
        }
      ],
      "stateMutability": "view",
      "type": "function"
    },
    {
      "inputs": [],
      "name": "auction_winner",
      "outputs": [
        {
          "internalType": "address",
          "name": "",
          "type": "address"
        }
      ],
      "stateMutability": "view",
      "type": "function"
    },
    {
      "inputs": [
        {
          "internalType": "address",
          "name": "owner",
          "type": "address"
        }
      ],
      "name": "balanceOf",
      "outputs": [
        {
          "internalType": "uint256",
          "name": "",
          "type": "uint256"
        }
      ],
      "stateMutability": "view",
      "type": "function"
    },
    {
      "inputs": [
        {
          "internalType": "uint256",
          "name": "_bidAmount",
          "type": "uint256"
        }
      ],
      "name": "bid",
      "outputs": [
        {
          "internalType": "address",
          "name": "",
          "type": "address"
        }
      ],
      "stateMutability": "nonpayable",
      "type": "function"
    },
    {
      "inputs": [],
      "name": "closeAuction",
      "outputs": [],
      "stateMutability": "nonpayable",
      "type": "function"
    },
    {
      "inputs": [],
      "name": "currentPrice",
      "outputs": [
        {
          "internalType": "uint256",
          "name": "",
          "type": "uint256"
        }
      ],
      "stateMutability": "view",
      "type": "function"
    },
    {
      "inputs": [],
      "name": "erc20TokenAddress",
      "outputs": [
        {
          "internalType": "address",
          "name": "",
          "type": "address"
        }
      ],
      "stateMutability": "view",
      "type": "function"
    },
    {
      "inputs": [],
      "name": "erc721TokenAddress",
      "outputs": [
        {
          "internalType": "address",
          "name": "",
          "type": "address"
        }
      ],
      "stateMutability": "view",
      "type": "function"
    },
    {
      "inputs": [
        {
          "internalType": "uint256",
          "name": "tokenId",
          "type": "uint256"
        }
      ],
      "name": "getApproved",
      "outputs": [
        {
          "internalType": "address",
          "name": "",
          "type": "address"
        }
      ],
      "stateMutability": "view",
      "type": "function"
    },
    {
      "inputs": [],
      "name": "initialPrice",
      "outputs": [
        {
          "internalType": "uint256",
          "name": "",
          "type": "uint256"
        }
      ],
      "stateMutability": "view",
      "type": "function"
    },
    {
      "inputs": [
        {
          "internalType": "address",
          "name": "_erc20TokenAddress",
          "type": "address"
        },
        {
          "internalType": "address",
          "name": "_erc721TokenAddress",
          "type": "address"
        },
        {
          "internalType": "uint256",
          "name": "_nftTokenId",
          "type": "uint256"
        },
        {
          "internalType": "uint256",
          "name": "_reservePrice",
          "type": "uint256"
        },
        {
          "internalType": "uint256",
          "name": "_numBlocksAuctionOpen",
          "type": "uint256"
        },
        {
          "internalType": "uint256",
          "name": "_offerPriceDecrement",
          "type": "uint256"
        }
      ],
      "name": "initialize",
      "outputs": [],
      "stateMutability": "nonpayable",
      "type": "function"
    },
    {
      "inputs": [
        {
          "internalType": "address",
          "name": "owner",
          "type": "address"
        },
        {
          "internalType": "address",
          "name": "operator",
          "type": "address"
        }
      ],
      "name": "isApprovedForAll",
      "outputs": [
        {
          "internalType": "bool",
          "name": "",
          "type": "bool"
        }
      ],
      "stateMutability": "view",
      "type": "function"
    },
    {
      "inputs": [],
      "name": "name",
      "outputs": [
        {
          "internalType": "string",
          "name": "",
          "type": "string"
        }
      ],
      "stateMutability": "view",
      "type": "function"
    },
    {
      "inputs": [],
      "name": "owner",
      "outputs": [
        {
          "internalType": "address",
          "name": "",
          "type": "address"
        }
      ],
      "stateMutability": "view",
      "type": "function"
    },
    {
      "inputs": [
        {
          "internalType": "uint256",
          "name": "tokenId",
          "type": "uint256"
        }
      ],
      "name": "ownerOf",
      "outputs": [
        {
          "internalType": "address",
          "name": "",
          "type": "address"
        }
      ],
      "stateMutability": "view",
      "type": "function"
    },
    {
      "inputs": [],
      "name": "proxiableUUID",
      "outputs": [
        {
          "internalType": "bytes32",
          "name": "",
          "type": "bytes32"
        }
      ],
      "stateMutability": "view",
      "type": "function"
    },
    {
      "inputs": [],
      "name": "renounceOwnership",
      "outputs": [],
      "stateMutability": "nonpayable",
      "type": "function"
    },
    {
      "inputs": [
        {
          "internalType": "address",
          "name": "from",
          "type": "address"
        },
        {
          "internalType": "address",
          "name": "to",
          "type": "address"
        },
        {
          "internalType": "uint256",
          "name": "tokenId",
          "type": "uint256"
        }
      ],
      "name": "safeTransferFrom",
      "outputs": [],
      "stateMutability": "nonpayable",
      "type": "function"
    },
    {
      "inputs": [
        {
          "internalType": "address",
          "name": "from",
          "type": "address"
        },
        {
          "internalType": "address",
          "name": "to",
          "type": "address"
        },
        {
          "internalType": "uint256",
          "name": "tokenId",
          "type": "uint256"
        },
        {
          "internalType": "bytes",
          "name": "data",
          "type": "bytes"
        }
      ],
      "name": "safeTransferFrom",
      "outputs": [],
      "stateMutability": "nonpayable",
      "type": "function"
    },
    {
      "inputs": [],
      "name": "seller",
      "outputs": [
        {
          "internalType": "address",
          "name": "",
          "type": "address"
        }
      ],
      "stateMutability": "view",
      "type": "function"
    },
    {
      "inputs": [
        {
          "internalType": "address",
          "name": "operator",
          "type": "address"
        },
        {
          "internalType": "bool",
          "name": "approved",
          "type": "bool"
        }
      ],
      "name": "setApprovalForAll",
      "outputs": [],
      "stateMutability": "nonpayable",
      "type": "function"
    },
    {
      "inputs": [
        {
          "internalType": "bytes4",
          "name": "interfaceId",
          "type": "bytes4"
        }
      ],
      "name": "supportsInterface",
      "outputs": [
        {
          "internalType": "bool",
          "name": "",
          "type": "bool"
        }
      ],
      "stateMutability": "view",
      "type": "function"
    },
    {
      "inputs": [],
      "name": "symbol",
      "outputs": [
        {
          "internalType": "string",
          "name": "",
          "type": "string"
        }
      ],
      "stateMutability": "view",
      "type": "function"
    },
    {
      "inputs": [
        {
          "internalType": "uint256",
          "name": "tokenId",
          "type": "uint256"
        }
      ],
      "name": "tokenURI",
      "outputs": [
        {
          "internalType": "string",
          "name": "",
          "type": "string"
        }
      ],
      "stateMutability": "view",
      "type": "function"
    },
    {
      "inputs": [
        {
          "internalType": "address",
          "name": "from",
          "type": "address"
        },
        {
          "internalType": "address",
          "name": "to",
          "type": "address"
        },
        {
          "internalType": "uint256",
          "name": "tokenId",
          "type": "uint256"
        }
      ],
      "name": "transferFrom",
      "outputs": [],
      "stateMutability": "nonpayable",
      "type": "function"
    },
    {
      "inputs": [
        {
          "internalType": "address",
          "name": "newOwner",
          "type": "address"
        }
      ],
      "name": "transferOwnership",
      "outputs": [],
      "stateMutability": "nonpayable",
      "type": "function"
    },
    {
      "inputs": [
        {
          "internalType": "address",
          "name": "newImplementation",
          "type": "address"
        }
      ],
      "name": "upgradeTo",
      "outputs": [],
      "stateMutability": "nonpayable",
      "type": "function"
    },
    {
      "inputs": [
        {
          "internalType": "address",
          "name": "newImplementation",
          "type": "address"
        },
        {
          "internalType": "bytes",
          "name": "data",
          "type": "bytes"
        }
      ],
      "name": "upgradeToAndCall",
      "outputs": [],
      "stateMutability": "payable",
      "type": "function"
    }
  ],
  "bytecode": "0x60a06040523073ffffffffffffffffffffffffffffffffffffffff1660809073ffffffffffffffffffffffffffffffffffffffff1681525034801561004357600080fd5b5060805161509961007b60003960008181610a7b01528181610b09015281816115920152818161162001526116d001526150996000f3fe6080604052600436106101cd5760003560e01c80636352211e116100f7578063a22cb46511610095578063df241cb911610064578063df241cb914610657578063e985e9c514610682578063f2fde38b146106bf578063f835cd3c146106e8576101cd565b8063a22cb4651461059d578063aeaaa299146105c6578063b88d4fde146105f1578063c87b56dd1461061a576101cd565b806386489ba9116100d157806386489ba9146104f35780638da5cb5b1461051c57806395d89b41146105475780639d1b464a14610572576101cd565b80636352211e1461046257806370a082311461049f578063715018a6146104dc576101cd565b80632a24f46c1161016f57806342842e0e1161013e57806342842e0e146103b5578063454a2ab3146103de5780634f1ef2861461041b57806352d1902d14610437576101cd565b80632a24f46c1461031f5780633659cfe61461034a578063378252f2146103735780633dfe1df91461038a576101cd565b806308551a53116101ab57806308551a5314610277578063095ea7b3146102a25780631d0806ae146102cb57806323b872dd146102f6576101cd565b806301ffc9a7146101d257806306fdde031461020f578063081812fc1461023a575b600080fd5b3480156101de57600080fd5b506101f960048036038101906101f49190613856565b610713565b604051610206919061389e565b60405180910390f35b34801561021b57600080fd5b506102246107f5565b6040516102319190613949565b60405180910390f35b34801561024657600080fd5b50610261600480360381019061025c91906139a1565b610887565b60405161026e9190613a0f565b60405180910390f35b34801561028357600080fd5b5061028c6108cd565b6040516102999190613a0f565b60405180910390f35b3480156102ae57600080fd5b506102c960048036038101906102c49190613a56565b6108f4565b005b3480156102d757600080fd5b506102e0610a0b565b6040516102ed9190613aa5565b60405180910390f35b34801561030257600080fd5b5061031d60048036038101906103189190613ac0565b610a12565b005b34801561032b57600080fd5b50610334610a72565b6040516103419190613aa5565b60405180910390f35b34801561035657600080fd5b50610371600480360381019061036c9190613b13565b610a79565b005b34801561037f57600080fd5b50610388610c01565b005b34801561039657600080fd5b5061039f610de4565b6040516103ac9190613a0f565b60405180910390f35b3480156103c157600080fd5b506103dc60048036038101906103d79190613ac0565b610e0b565b005b3480156103ea57600080fd5b50610405600480360381019061040091906139a1565b610e2b565b6040516104129190613a0f565b60405180910390f35b61043560048036038101906104309190613c75565b611590565b005b34801561044357600080fd5b5061044c6116cc565b6040516104599190613cea565b60405180910390f35b34801561046e57600080fd5b50610489600480360381019061048491906139a1565b611785565b6040516104969190613a0f565b60405180910390f35b3480156104ab57600080fd5b506104c660048036038101906104c19190613b13565b61180b565b6040516104d39190613aa5565b60405180910390f35b3480156104e857600080fd5b506104f16118c2565b005b3480156104ff57600080fd5b5061051a60048036038101906105159190613d05565b6118d6565b005b34801561052857600080fd5b5061053161218a565b60405161053e9190613a0f565b60405180910390f35b34801561055357600080fd5b5061055c6121b4565b6040516105699190613949565b60405180910390f35b34801561057e57600080fd5b50610587612246565b6040516105949190613aa5565b60405180910390f35b3480156105a957600080fd5b506105c460048036038101906105bf9190613dbe565b61224d565b005b3480156105d257600080fd5b506105db612263565b6040516105e8919061389e565b60405180910390f35b3480156105fd57600080fd5b5061061860048036038101906106139190613dfe565b612277565b005b34801561062657600080fd5b50610641600480360381019061063c91906139a1565b6122d9565b60405161064e9190613949565b60405180910390f35b34801561066357600080fd5b5061066c612341565b6040516106799190613a0f565b60405180910390f35b34801561068e57600080fd5b506106a960048036038101906106a49190613e81565b612368565b6040516106b6919061389e565b60405180910390f35b3480156106cb57600080fd5b506106e660048036038101906106e19190613b13565b6123fc565b005b3480156106f457600080fd5b506106fd61247f565b60405161070a9190613a0f565b60405180910390f35b60007f80ac58cd000000000000000000000000000000000000000000000000000000007bffffffffffffffffffffffffffffffffffffffffffffffffffffffff1916827bffffffffffffffffffffffffffffffffffffffffffffffffffffffff191614806107de57507f5b5e139f000000000000000000000000000000000000000000000000000000007bffffffffffffffffffffffffffffffffffffffffffffffffffffffff1916827bffffffffffffffffffffffffffffffffffffffffffffffffffffffff1916145b806107ee57506107ed826124a6565b5b9050919050565b60606065805461080490613ef0565b80601f016020809104026020016040519081016040528092919081815260200182805461083090613ef0565b801561087d5780601f106108525761010080835404028352916020019161087d565b820191906000526020600020905b81548152906001019060200180831161086057829003601f168201915b5050505050905090565b600061089282612510565b6069600083815260200190815260200160002060009054906101000a900473ffffffffffffffffffffffffffffffffffffffff169050919050565b61013160009054906101000a900473ffffffffffffffffffffffffffffffffffffffff1681565b60006108ff82611785565b90508073ffffffffffffffffffffffffffffffffffffffff168373ffffffffffffffffffffffffffffffffffffffff160361096f576040517f08c379a000000000000000000000000000000000000000000000000000000000815260040161096690613f93565b60405180910390fd5b8073ffffffffffffffffffffffffffffffffffffffff1661098e61255b565b73ffffffffffffffffffffffffffffffffffffffff1614806109bd57506109bc816109b761255b565b612368565b5b6109fc576040517f08c379a00000000000000000000000000000000000000000000000000000000081526004016109f390614025565b60405180910390fd5b610a068383612563565b505050565b6101305481565b610a23610a1d61255b565b8261261c565b610a62576040517f08c379a0000000000000000000000000000000000000000000000000000000008152600401610a59906140b7565b60405180910390fd5b610a6d8383836126b1565b505050565b6101335481565b7f000000000000000000000000000000000000000000000000000000000000000073ffffffffffffffffffffffffffffffffffffffff163073ffffffffffffffffffffffffffffffffffffffff1603610b07576040517f08c379a0000000000000000000000000000000000000000000000000000000008152600401610afe90614149565b60405180910390fd5b7f000000000000000000000000000000000000000000000000000000000000000073ffffffffffffffffffffffffffffffffffffffff16610b466129aa565b73ffffffffffffffffffffffffffffffffffffffff1614610b9c576040517f08c379a0000000000000000000000000000000000000000000000000000000008152600401610b93906141db565b60405180910390fd5b610ba581612a01565b610bfe81600067ffffffffffffffff811115610bc457610bc3613b4a565b5b6040519080825280601f01601f191660200182016040528015610bf65781602001600182028036833780820191505090505b506000612a38565b50565b610c2d7f557c7d2d68a20d75d4caa53ea49fb24ed6f84b43764754b48a65f23d77d7dbb560001b612ba6565b610c597fe732b85f11203fbfeecc0a07e25c1e7f5a401a56ed29c4baeb60c520eb526a5b60001b612ba6565b610c857fd801127efb3e0605235ac0875c818806609f252b3d2ac2aba806bd7ad5862c8460001b612ba6565b610cb17f6446851f5a5cca97602f5d8f31b0a8bf991eb30db0bf81f48162668fb106d25560001b612ba6565b61013160009054906101000a900473ffffffffffffffffffffffffffffffffffffffff1673ffffffffffffffffffffffffffffffffffffffff163373ffffffffffffffffffffffffffffffffffffffff1614610d42576040517f08c379a0000000000000000000000000000000000000000000000000000000008152600401610d399061426d565b60405180910390fd5b610d6e7f04e9ce936794e6affaa3f2a1b0c4e42a0245dd15bba6c2445a9c34e2f029740360001b612ba6565b610d9a7fbce85265a959b89b6dc04c7649505760f3746b121c4c96ad53a7d3761e855d2960001b612ba6565b610dc67fcd9c07eadd4d30222ad13598c2581c2b6ba2ba7f1a89267865731b3ed89e0c4a60001b612ba6565b600161013460006101000a81548160ff021916908315150217905550565b61013260009054906101000a900473ffffffffffffffffffffffffffffffffffffffff1681565b610e2683838360405180602001604052806000815250612277565b505050565b6000610e597fbc901e22642c99f9eeeaced74ec3a857f007a0a81feecad53b781eb512b9ed2a60001b612ba6565b610e857fd7663af733b52db89ff8e811e8566f71ff36bcfe4fdc4bd6c20024d8572601e460001b612ba6565b610eb17f1330f7be1f889e520924f3e6a7dff3e382774e755bd07c4cb594626ecc8d2f6260001b612ba6565b610edd7fe64aa608caaaec89701a942f296a6d7ea006ff4797d0b10b6fe3be70897c4b2560001b612ba6565b61013354431115610f23576040517f08c379a0000000000000000000000000000000000000000000000000000000008152600401610f1a906142ff565b60405180910390fd5b610f4f7f8876d9338af02a59b559459b1731a70c461d3d6e42323a204da0e6d907dc706960001b612ba6565b610f7b7f3264b62e3c78114165321ea6fb6c79698024c9c78445e5d0d934eb41873eeb9060001b612ba6565b610fa77f9ab65e957208eb747e2d6db1369e9861d12fcd5c165effc141dec7c34f67b00160001b612ba6565b610fd37f8f7f1a223d831e099800229a08b06b96a997eb1e4e360bc1b4d15cad8d42501e60001b612ba6565b61012d54821015611019576040517f08c379a000000000000000000000000000000000000000000000000000000000815260040161101090614391565b60405180910390fd5b6110457f3c38b9d7732334dcc64250d929dc19c4dd1080abb5d94830ae729f72767093c560001b612ba6565b6110717f6e1fc35fba7989db33eb60434d242deaf09754def7b372e6e084364098dda0a960001b612ba6565b61109d7fcecdffc46db22346d58ae112dcc73f8f833d3c42c470e5ffe541cda1063cc9dc60001b612ba6565b6110c97f459831155424d7e7a74571579149d6e6de55db0a38ed1984f2aa388032d56a7560001b612ba6565b6000151561013460009054906101000a900460ff16151514611120576040517f08c379a000000000000000000000000000000000000000000000000000000000815260040161111790614423565b60405180910390fd5b61114c7ffe56b1d7649d105f68ee174db4d3e2638c13321b9b1508214b408efd8c0dc88860001b612ba6565b6111787f1cfa930580ac40f6a265f287fe71fb252a125875f62554845f1b4618d5f2770d60001b612ba6565b6111a47f2145f3c2399fa3277a2ee24d32720a8c88c68a8c800cb8befae9c6ddbec8309460001b612ba6565b3361013260006101000a81548173ffffffffffffffffffffffffffffffffffffffff021916908373ffffffffffffffffffffffffffffffffffffffff1602179055506112127f5c4b99077197fc11a44dce63f856072be5c57522d740787d25329f7e822c57e660001b612ba6565b61123e7fb9872d237ebc20465fb2c53b3cae1d2b4b5c7717870a3b821cb5ba46819ea6fc60001b612ba6565b6000610130819055506112737f16203618296b7143871279bccbe71c1b423e20046898ab9d6dff94dace66f41f60001b612ba6565b61129f7f7c654e8b4f1f59bb7123479abb87232c8d52d0d104789a854306775f09e7225160001b612ba6565b600161013460006101000a81548160ff0219169083151502179055506112e77f47e0ed7ea69a8f832e0a1e855e26e9d066ac3f9468b5e1a06b49d132548cd11d60001b612ba6565b6113137f80d384fc2b34364755eeb1c054abadd915db7df609af07c39f3cf17a645e270060001b612ba6565b61013960009054906101000a900473ffffffffffffffffffffffffffffffffffffffff1673ffffffffffffffffffffffffffffffffffffffff166323b872dd3361013160009054906101000a900473ffffffffffffffffffffffffffffffffffffffff16856040518463ffffffff1660e01b815260040161139693929190614443565b6020604051808303816000875af11580156113b5573d6000803e3d6000fd5b505050506040513d601f19601f820116820180604052508101906113d9919061448f565b506114067fcbf246f73bb99838984ad6f3b5680e7f4aba6682d7d81e6eab09a4c9f2428f1960001b612ba6565b6114327fb33d08169fca58bc526a4f303b1f5b7823d2cb3897efa5f16a0e5ed5b03f24f960001b612ba6565b61013a60009054906101000a900473ffffffffffffffffffffffffffffffffffffffff1673ffffffffffffffffffffffffffffffffffffffff166342842e0e61013160009054906101000a900473ffffffffffffffffffffffffffffffffffffffff1661013260009054906101000a900473ffffffffffffffffffffffffffffffffffffffff16610135546040518463ffffffff1660e01b81526004016114db93929190614443565b600060405180830381600087803b1580156114f557600080fd5b505af1158015611509573d6000803e3d6000fd5b505050506115397f63c6fabdd609e0a93e5b9b5d96da8d3afe7c282b5ffbeba9878be08668eb35d760001b612ba6565b6115657fa259033520b4303e410ca8155d54213026bfc02b9bb882196eb254e0a8cb06c360001b612ba6565b61013260009054906101000a900473ffffffffffffffffffffffffffffffffffffffff169050919050565b7f000000000000000000000000000000000000000000000000000000000000000073ffffffffffffffffffffffffffffffffffffffff163073ffffffffffffffffffffffffffffffffffffffff160361161e576040517f08c379a000000000000000000000000000000000000000000000000000000000815260040161161590614149565b60405180910390fd5b7f000000000000000000000000000000000000000000000000000000000000000073ffffffffffffffffffffffffffffffffffffffff1661165d6129aa565b73ffffffffffffffffffffffffffffffffffffffff16146116b3576040517f08c379a00000000000000000000000000000000000000000000000000000000081526004016116aa906141db565b60405180910390fd5b6116bc82612a01565b6116c882826001612a38565b5050565b60007f000000000000000000000000000000000000000000000000000000000000000073ffffffffffffffffffffffffffffffffffffffff163073ffffffffffffffffffffffffffffffffffffffff161461175c576040517f08c379a00000000000000000000000000000000000000000000000000000000081526004016117539061452e565b60405180910390fd5b7f360894a13ba1a3210667c828492db98dca3e2076cc3735a920a3ca505d382bbc60001b905090565b60008061179183612ba9565b9050600073ffffffffffffffffffffffffffffffffffffffff168173ffffffffffffffffffffffffffffffffffffffff1603611802576040517f08c379a00000000000000000000000000000000000000000000000000000000081526004016117f99061459a565b60405180910390fd5b80915050919050565b60008073ffffffffffffffffffffffffffffffffffffffff168273ffffffffffffffffffffffffffffffffffffffff160361187b576040517f08c379a00000000000000000000000000000000000000000000000000000000081526004016118729061462c565b60405180910390fd5b606860008373ffffffffffffffffffffffffffffffffffffffff1673ffffffffffffffffffffffffffffffffffffffff168152602001908152602001600020549050919050565b6118ca612be6565b6118d46000612c64565b565b60008060019054906101000a900460ff161590508080156119075750600160008054906101000a900460ff1660ff16105b80611934575061191630612d2a565b1580156119335750600160008054906101000a900460ff1660ff16145b5b611973576040517f08c379a000000000000000000000000000000000000000000000000000000000815260040161196a906146be565b60405180910390fd5b60016000806101000a81548160ff021916908360ff16021790555080156119b0576001600060016101000a81548160ff0219169083151502179055505b6119dc7f0a5488a570dbb2622b3b4f148d26a0341ea5151f5340ebfc8c476c3e5ca13d9d60001b612ba6565b611a087fcd0fe55f17155ae6123111f9b0b7e10a588e92c833a435cd5c28ffefb3d1c3e860001b612ba6565b611a347f3bbc87a1f4b2487bcd427e8329ab74b5411c5934a51f82f81d33bd9d0ff1ec5c60001b612ba6565b611a3c612d4d565b611a687f34e067cd7ff06a5da5cca029c489ca32776d92955f8dad6226ef6e7eded2ec1160001b612ba6565b611a947f84faf9a1ea0d6a3a9be3edac08389f24eeb014239bb98615dfa0eefafac393cb60001b612ba6565b611a9c612da6565b611ac87fb931f1636f9060455b51d8e980375ccf3360803dbcdbde88a4a18642b0cc1eb560001b612ba6565b611af47f1753f5519d3cd90a812acbd96472bb57ea740683248cc27ccdb0eb1b02afb54560001b612ba6565b8661013860006101000a81548173ffffffffffffffffffffffffffffffffffffffff021916908373ffffffffffffffffffffffffffffffffffffffff160217905550611b627f6aab54fcf3a09f2901c4091ba050a6d8a510631aa5ea292e6afc9a95421b82a460001b612ba6565b611b8e7f01a6ac0758609ed9379fa7ab7e009b57b1a3deea5d3b07d253cfedb4bb29643860001b612ba6565b8561013760006101000a81548173ffffffffffffffffffffffffffffffffffffffff021916908373ffffffffffffffffffffffffffffffffffffffff160217905550611bfc7f657197064454fe742bf6bb01bd440aced8fc2ab4288d89573f7ab78c7470fdeb60001b612ba6565b611c287fcafe778ad99cbacbbb8320f8b045c18868ac26dfb272e2246b2de2dd27d6882960001b612ba6565b8461013581905550611c5c7f11b5fdee06f91a7d4053f51d71a46d910ce65a35fd3363730978f9c567e6b70960001b612ba6565b611c887f45824edcbca2780673504eb839599d9534c4abd9cea83f8dbfa75a8c2a30163c60001b612ba6565b8361012d81905550611cbc7fb12bebfed24cd3e28f3cf96efd59e7d3044eb5ee021c344a2517074c3da3b53960001b612ba6565b611ce87f46fc81d6c8865c2de822d2b449b2040693b1d7a83b083985f461ad5cc10041fd60001b612ba6565b8261012e81905550611d1c7fbc94f63cc085ce8ecd765479613a6884f7651cfd44273b56a575b286d826a9cf60001b612ba6565b611d487f96f15dea506d3de289418d5bc15cd6adf490cf6cbe121c497ae3e53a5b53f3f360001b612ba6565b8161012f81905550611d7c7f06d640065a7d644e4d8326000e00d3702603852a15c47251bf8f11001942da4260001b612ba6565b611da87f0228b7b058347105fb6564687fb4fe5c1fb284831a311dce2d675ffb64e7532b60001b612ba6565b61012f5461012e54611dba919061470d565b61012d54611dc8919061474f565b61013081905550611dfb7f46ea9748e9446634e1d72dbf2a1b4b333a9a9d7e59f128528c663bbc814e47c860001b612ba6565b611e277f150e59ed77e94313bcb454672ba9633cd9235a08d86d98c01c9bbcf86963084160001b612ba6565b6101305461013681905550611e5e7fa165f0695fb6e7ef558d2ed02301b9a69287d3889304808569d776b3a5c627d560001b612ba6565b611e8a7f540d446c5061384144cedd1417a11a939768bf7b07efd75a2f0b850c9866a07360001b612ba6565b61012e5443611e99919061474f565b61013381905550611ecc7fa8ecca7bfd6c97c4ded4de305af45a2b74507a0fa2714f0683f0cb51d35cf27060001b612ba6565b611ef87f5e456a96e91bdd4739ab1fb14429edc55d8ee01edfc888a354f4ee8d69fc892560001b612ba6565b600061013460006101000a81548160ff021916908315150217905550611f407fab1c5cefda475646e74398a02a86d69256bf8e6247045b3c49ebaa0e1669be1260001b612ba6565b611f6c7f3241929ff8b0af5eb1c9d5712b1569f9c81b8d10161617a1185dd99b9b7eaded60001b612ba6565b3361013160006101000a81548173ffffffffffffffffffffffffffffffffffffffff021916908373ffffffffffffffffffffffffffffffffffffffff160217905550611fda7f8965bc0b52c1608bf81dae329c29d1dd5f33a196a30174d1463ba1e62752fb3e60001b612ba6565b6120067f13ade493936927d25a3c29aadb9adcae63c9bd4c1435b8ea2fb4219a621e75e860001b612ba6565b61013860009054906101000a900473ffffffffffffffffffffffffffffffffffffffff1661013960006101000a81548173ffffffffffffffffffffffffffffffffffffffff021916908373ffffffffffffffffffffffffffffffffffffffff1602179055506120977f13c42e9fc0db94a170e6d2b983a9dc44f9a3376cf87712aba22a714aaae1337c60001b612ba6565b6120c37f68f4631eaa3432137091d222d4c7b9ce11fb7535aa7aeb4337736425accdedf460001b612ba6565b61013760009054906101000a900473ffffffffffffffffffffffffffffffffffffffff1661013a60006101000a81548173ffffffffffffffffffffffffffffffffffffffff021916908373ffffffffffffffffffffffffffffffffffffffff16021790555080156121815760008060016101000a81548160ff0219169083151502179055507f7f26b83ff96e1f2b6a682f133852f6798a09c465da95921460cefb3847402498600160405161217891906147d5565b60405180910390a15b50505050505050565b600060fb60009054906101000a900473ffffffffffffffffffffffffffffffffffffffff16905090565b6060606680546121c390613ef0565b80601f01602080910402602001604051908101604052809291908181526020018280546121ef90613ef0565b801561223c5780601f106122115761010080835404028352916020019161223c565b820191906000526020600020905b81548152906001019060200180831161221f57829003601f168201915b5050505050905090565b6101365481565b61225f61225861255b565b8383612df7565b5050565b61013460009054906101000a900460ff1681565b61228861228261255b565b8361261c565b6122c7576040517f08c379a00000000000000000000000000000000000000000000000000000000081526004016122be906140b7565b60405180910390fd5b6122d384848484612f63565b50505050565b60606122e482612510565b60006122ee612fbf565b9050600081511161230e5760405180602001604052806000815250612339565b8061231884612fd6565b60405160200161232992919061482c565b6040516020818303038152906040525b915050919050565b61013760009054906101000a900473ffffffffffffffffffffffffffffffffffffffff1681565b6000606a60008473ffffffffffffffffffffffffffffffffffffffff1673ffffffffffffffffffffffffffffffffffffffff16815260200190815260200160002060008373ffffffffffffffffffffffffffffffffffffffff1673ffffffffffffffffffffffffffffffffffffffff16815260200190815260200160002060009054906101000a900460ff16905092915050565b612404612be6565b600073ffffffffffffffffffffffffffffffffffffffff168173ffffffffffffffffffffffffffffffffffffffff1603612473576040517f08c379a000000000000000000000000000000000000000000000000000000000815260040161246a906148c2565b60405180910390fd5b61247c81612c64565b50565b61013860009054906101000a900473ffffffffffffffffffffffffffffffffffffffff1681565b60007f01ffc9a7000000000000000000000000000000000000000000000000000000007bffffffffffffffffffffffffffffffffffffffffffffffffffffffff1916827bffffffffffffffffffffffffffffffffffffffffffffffffffffffff1916149050919050565b612519816130a4565b612558576040517f08c379a000000000000000000000000000000000000000000000000000000000815260040161254f9061459a565b60405180910390fd5b50565b600033905090565b816069600083815260200190815260200160002060006101000a81548173ffffffffffffffffffffffffffffffffffffffff021916908373ffffffffffffffffffffffffffffffffffffffff160217905550808273ffffffffffffffffffffffffffffffffffffffff166125d683611785565b73ffffffffffffffffffffffffffffffffffffffff167f8c5be1e5ebec7d5bd14f71427d1e84f3dd0314c0f7b2291e5b200ac8c7c3b92560405160405180910390a45050565b60008061262883611785565b90508073ffffffffffffffffffffffffffffffffffffffff168473ffffffffffffffffffffffffffffffffffffffff16148061266a57506126698185612368565b5b806126a857508373ffffffffffffffffffffffffffffffffffffffff1661269084610887565b73ffffffffffffffffffffffffffffffffffffffff16145b91505092915050565b8273ffffffffffffffffffffffffffffffffffffffff166126d182611785565b73ffffffffffffffffffffffffffffffffffffffff1614612727576040517f08c379a000000000000000000000000000000000000000000000000000000000815260040161271e90614954565b60405180910390fd5b600073ffffffffffffffffffffffffffffffffffffffff168273ffffffffffffffffffffffffffffffffffffffff1603612796576040517f08c379a000000000000000000000000000000000000000000000000000000000815260040161278d906149e6565b60405180910390fd5b6127a383838360016130e5565b8273ffffffffffffffffffffffffffffffffffffffff166127c382611785565b73ffffffffffffffffffffffffffffffffffffffff1614612819576040517f08c379a000000000000000000000000000000000000000000000000000000000815260040161281090614954565b60405180910390fd5b6069600082815260200190815260200160002060006101000a81549073ffffffffffffffffffffffffffffffffffffffff02191690556001606860008573ffffffffffffffffffffffffffffffffffffffff1673ffffffffffffffffffffffffffffffffffffffff168152602001908152602001600020600082825403925050819055506001606860008473ffffffffffffffffffffffffffffffffffffffff1673ffffffffffffffffffffffffffffffffffffffff16815260200190815260200160002060008282540192505081905550816067600083815260200190815260200160002060006101000a81548173ffffffffffffffffffffffffffffffffffffffff021916908373ffffffffffffffffffffffffffffffffffffffff160217905550808273ffffffffffffffffffffffffffffffffffffffff168473ffffffffffffffffffffffffffffffffffffffff167fddf252ad1be2c89b69c2b068fc378daa952ba7f163c4a11628f55a4df523b3ef60405160405180910390a46129a5838383600161320b565b505050565b60006129d87f360894a13ba1a3210667c828492db98dca3e2076cc3735a920a3ca505d382bbc60001b613211565b60000160009054906101000a900473ffffffffffffffffffffffffffffffffffffffff16905090565b612a09612be6565b612a357f931af9b95358094108aff560857fb781556a6a0fec2b9fa8733ed4dfe1209aa760001b612ba6565b50565b612a647f4910fdfa16fed3260ed0e7147f7cc6da11a60208b5b9406d12a635614ffd914360001b61321b565b60000160009054906101000a900460ff1615612a8857612a8383613225565b612ba1565b8273ffffffffffffffffffffffffffffffffffffffff166352d1902d6040518163ffffffff1660e01b8152600401602060405180830381865afa925050508015612af057506040513d601f19601f82011682018060405250810190612aed9190614a32565b60015b612b2f576040517f08c379a0000000000000000000000000000000000000000000000000000000008152600401612b2690614ad1565b60405180910390fd5b7f360894a13ba1a3210667c828492db98dca3e2076cc3735a920a3ca505d382bbc60001b8114612b94576040517f08c379a0000000000000000000000000000000000000000000000000000000008152600401612b8b90614b63565b60405180910390fd5b50612ba08383836132de565b5b505050565b50565b60006067600083815260200190815260200160002060009054906101000a900473ffffffffffffffffffffffffffffffffffffffff169050919050565b612bee61255b565b73ffffffffffffffffffffffffffffffffffffffff16612c0c61218a565b73ffffffffffffffffffffffffffffffffffffffff1614612c62576040517f08c379a0000000000000000000000000000000000000000000000000000000008152600401612c5990614bcf565b60405180910390fd5b565b600060fb60009054906101000a900473ffffffffffffffffffffffffffffffffffffffff1690508160fb60006101000a81548173ffffffffffffffffffffffffffffffffffffffff021916908373ffffffffffffffffffffffffffffffffffffffff1602179055508173ffffffffffffffffffffffffffffffffffffffff168173ffffffffffffffffffffffffffffffffffffffff167f8be0079c531659141344cd1fd0a4f28419497f9722a3daafe3b4186f6b6457e060405160405180910390a35050565b6000808273ffffffffffffffffffffffffffffffffffffffff163b119050919050565b600060019054906101000a900460ff16612d9c576040517f08c379a0000000000000000000000000000000000000000000000000000000008152600401612d9390614c61565b60405180910390fd5b612da461330a565b565b600060019054906101000a900460ff16612df5576040517f08c379a0000000000000000000000000000000000000000000000000000000008152600401612dec90614c61565b60405180910390fd5b565b8173ffffffffffffffffffffffffffffffffffffffff168373ffffffffffffffffffffffffffffffffffffffff1603612e65576040517f08c379a0000000000000000000000000000000000000000000000000000000008152600401612e5c90614ccd565b60405180910390fd5b80606a60008573ffffffffffffffffffffffffffffffffffffffff1673ffffffffffffffffffffffffffffffffffffffff16815260200190815260200160002060008473ffffffffffffffffffffffffffffffffffffffff1673ffffffffffffffffffffffffffffffffffffffff16815260200190815260200160002060006101000a81548160ff0219169083151502179055508173ffffffffffffffffffffffffffffffffffffffff168373ffffffffffffffffffffffffffffffffffffffff167f17307eab39ab6107e8899845ad3d59bd9653f200f220920489ca2b5937696c3183604051612f56919061389e565b60405180910390a3505050565b612f6e8484846126b1565b612f7a8484848461336b565b612fb9576040517f08c379a0000000000000000000000000000000000000000000000000000000008152600401612fb090614d5f565b60405180910390fd5b50505050565b606060405180602001604052806000815250905090565b606060006001612fe5846134f2565b01905060008167ffffffffffffffff81111561300457613003613b4a565b5b6040519080825280601f01601f1916602001820160405280156130365781602001600182028036833780820191505090505b509050600082602001820190505b600115613099578080600190039150507f3031323334353637383961626364656600000000000000000000000000000000600a86061a8153600a858161308d5761308c614d7f565b5b04945060008503613044575b819350505050919050565b60008073ffffffffffffffffffffffffffffffffffffffff166130c683612ba9565b73ffffffffffffffffffffffffffffffffffffffff1614159050919050565b600181111561320557600073ffffffffffffffffffffffffffffffffffffffff168473ffffffffffffffffffffffffffffffffffffffff16146131795780606860008673ffffffffffffffffffffffffffffffffffffffff1673ffffffffffffffffffffffffffffffffffffffff16815260200190815260200160002060008282546131719190614dae565b925050819055505b600073ffffffffffffffffffffffffffffffffffffffff168373ffffffffffffffffffffffffffffffffffffffff16146132045780606860008573ffffffffffffffffffffffffffffffffffffffff1673ffffffffffffffffffffffffffffffffffffffff16815260200190815260200160002060008282546131fc919061474f565b925050819055505b5b50505050565b50505050565b6000819050919050565b6000819050919050565b61322e81612d2a565b61326d576040517f08c379a000000000000000000000000000000000000000000000000000000000815260040161326490614e54565b60405180910390fd5b8061329a7f360894a13ba1a3210667c828492db98dca3e2076cc3735a920a3ca505d382bbc60001b613211565b60000160006101000a81548173ffffffffffffffffffffffffffffffffffffffff021916908373ffffffffffffffffffffffffffffffffffffffff16021790555050565b6132e783613645565b6000825111806132f45750805b15613305576133038383613694565b505b505050565b600060019054906101000a900460ff16613359576040517f08c379a000000000000000000000000000000000000000000000000000000000815260040161335090614c61565b60405180910390fd5b61336961336461255b565b612c64565b565b600061338c8473ffffffffffffffffffffffffffffffffffffffff16612d2a565b156134e5578373ffffffffffffffffffffffffffffffffffffffff1663150b7a026133b561255b565b8786866040518563ffffffff1660e01b81526004016133d79493929190614ec9565b6020604051808303816000875af192505050801561341357506040513d601f19601f820116820180604052508101906134109190614f2a565b60015b613495573d8060008114613443576040519150601f19603f3d011682016040523d82523d6000602084013e613448565b606091505b50600081510361348d576040517f08c379a000000000000000000000000000000000000000000000000000000000815260040161348490614d5f565b60405180910390fd5b805181602001fd5b63150b7a0260e01b7bffffffffffffffffffffffffffffffffffffffffffffffffffffffff1916817bffffffffffffffffffffffffffffffffffffffffffffffffffffffff1916149150506134ea565b600190505b949350505050565b600080600090507a184f03e93ff9f4daa797ed6e38ed64bf6a1f0100000000000000008310613550577a184f03e93ff9f4daa797ed6e38ed64bf6a1f010000000000000000838161354657613545614d7f565b5b0492506040810190505b6d04ee2d6d415b85acef8100000000831061358d576d04ee2d6d415b85acef8100000000838161358357613582614d7f565b5b0492506020810190505b662386f26fc1000083106135bc57662386f26fc1000083816135b2576135b1614d7f565b5b0492506010810190505b6305f5e10083106135e5576305f5e10083816135db576135da614d7f565b5b0492506008810190505b612710831061360a576127108381613600576135ff614d7f565b5b0492506004810190505b6064831061362d576064838161362357613622614d7f565b5b0492506002810190505b600a831061363c576001810190505b80915050919050565b61364e81613225565b8073ffffffffffffffffffffffffffffffffffffffff167fbc7cd75a20ee27fd9adebab32041f755214dbc6bffa90cc0225b39da2e5c2d3b60405160405180910390a250565b606061369f83612d2a565b6136de576040517f08c379a00000000000000000000000000000000000000000000000000000000081526004016136d590614fc9565b60405180910390fd5b6000808473ffffffffffffffffffffffffffffffffffffffff16846040516137069190615025565b600060405180830381855af49150503d8060008114613741576040519150601f19603f3d011682016040523d82523d6000602084013e613746565b606091505b509150915061376e828260405180606001604052806027815260200161503d60279139613778565b9250505092915050565b6060831561378857829050613793565b613792838361379a565b5b9392505050565b6000825111156137ad5781518083602001fd5b806040517f08c379a00000000000000000000000000000000000000000000000000000000081526004016137e19190613949565b60405180910390fd5b6000604051905090565b600080fd5b600080fd5b60007fffffffff0000000000000000000000000000000000000000000000000000000082169050919050565b613833816137fe565b811461383e57600080fd5b50565b6000813590506138508161382a565b92915050565b60006020828403121561386c5761386b6137f4565b5b600061387a84828501613841565b91505092915050565b60008115159050919050565b61389881613883565b82525050565b60006020820190506138b3600083018461388f565b92915050565b600081519050919050565b600082825260208201905092915050565b60005b838110156138f35780820151818401526020810190506138d8565b60008484015250505050565b6000601f19601f8301169050919050565b600061391b826138b9565b61392581856138c4565b93506139358185602086016138d5565b61393e816138ff565b840191505092915050565b600060208201905081810360008301526139638184613910565b905092915050565b6000819050919050565b61397e8161396b565b811461398957600080fd5b50565b60008135905061399b81613975565b92915050565b6000602082840312156139b7576139b66137f4565b5b60006139c58482850161398c565b91505092915050565b600073ffffffffffffffffffffffffffffffffffffffff82169050919050565b60006139f9826139ce565b9050919050565b613a09816139ee565b82525050565b6000602082019050613a246000830184613a00565b92915050565b613a33816139ee565b8114613a3e57600080fd5b50565b600081359050613a5081613a2a565b92915050565b60008060408385031215613a6d57613a6c6137f4565b5b6000613a7b85828601613a41565b9250506020613a8c8582860161398c565b9150509250929050565b613a9f8161396b565b82525050565b6000602082019050613aba6000830184613a96565b92915050565b600080600060608486031215613ad957613ad86137f4565b5b6000613ae786828701613a41565b9350506020613af886828701613a41565b9250506040613b098682870161398c565b9150509250925092565b600060208284031215613b2957613b286137f4565b5b6000613b3784828501613a41565b91505092915050565b600080fd5b600080fd5b7f4e487b7100000000000000000000000000000000000000000000000000000000600052604160045260246000fd5b613b82826138ff565b810181811067ffffffffffffffff82111715613ba157613ba0613b4a565b5b80604052505050565b6000613bb46137ea565b9050613bc08282613b79565b919050565b600067ffffffffffffffff821115613be057613bdf613b4a565b5b613be9826138ff565b9050602081019050919050565b82818337600083830152505050565b6000613c18613c1384613bc5565b613baa565b905082815260208101848484011115613c3457613c33613b45565b5b613c3f848285613bf6565b509392505050565b600082601f830112613c5c57613c5b613b40565b5b8135613c6c848260208601613c05565b91505092915050565b60008060408385031215613c8c57613c8b6137f4565b5b6000613c9a85828601613a41565b925050602083013567ffffffffffffffff811115613cbb57613cba6137f9565b5b613cc785828601613c47565b9150509250929050565b6000819050919050565b613ce481613cd1565b82525050565b6000602082019050613cff6000830184613cdb565b92915050565b60008060008060008060c08789031215613d2257613d216137f4565b5b6000613d3089828a01613a41565b9650506020613d4189828a01613a41565b9550506040613d5289828a0161398c565b9450506060613d6389828a0161398c565b9350506080613d7489828a0161398c565b92505060a0613d8589828a0161398c565b9150509295509295509295565b613d9b81613883565b8114613da657600080fd5b50565b600081359050613db881613d92565b92915050565b60008060408385031215613dd557613dd46137f4565b5b6000613de385828601613a41565b9250506020613df485828601613da9565b9150509250929050565b60008060008060808587031215613e1857613e176137f4565b5b6000613e2687828801613a41565b9450506020613e3787828801613a41565b9350506040613e488782880161398c565b925050606085013567ffffffffffffffff811115613e6957613e686137f9565b5b613e7587828801613c47565b91505092959194509250565b60008060408385031215613e9857613e976137f4565b5b6000613ea685828601613a41565b9250506020613eb785828601613a41565b9150509250929050565b7f4e487b7100000000000000000000000000000000000000000000000000000000600052602260045260246000fd5b60006002820490506001821680613f0857607f821691505b602082108103613f1b57613f1a613ec1565b5b50919050565b7f4552433732313a20617070726f76616c20746f2063757272656e74206f776e6560008201527f7200000000000000000000000000000000000000000000000000000000000000602082015250565b6000613f7d6021836138c4565b9150613f8882613f21565b604082019050919050565b60006020820190508181036000830152613fac81613f70565b9050919050565b7f4552433732313a20617070726f76652063616c6c6572206973206e6f7420746f60008201527f6b656e206f776e6572206f7220617070726f76656420666f7220616c6c000000602082015250565b600061400f603d836138c4565b915061401a82613fb3565b604082019050919050565b6000602082019050818103600083015261403e81614002565b9050919050565b7f4552433732313a2063616c6c6572206973206e6f7420746f6b656e206f776e6560008201527f72206f7220617070726f76656400000000000000000000000000000000000000602082015250565b60006140a1602d836138c4565b91506140ac82614045565b604082019050919050565b600060208201905081810360008301526140d081614094565b9050919050565b7f46756e6374696f6e206d7573742062652063616c6c6564207468726f7567682060008201527f64656c656761746563616c6c0000000000000000000000000000000000000000602082015250565b6000614133602c836138c4565b915061413e826140d7565b604082019050919050565b6000602082019050818103600083015261416281614126565b9050919050565b7f46756e6374696f6e206d7573742062652063616c6c6564207468726f7567682060008201527f6163746976652070726f78790000000000000000000000000000000000000000602082015250565b60006141c5602c836138c4565b91506141d082614169565b604082019050919050565b600060208201905081810360008301526141f4816141b8565b9050919050565b7f4f6e6c79207468652073656c6c65722063616e20636c6f73652074686520617560008201527f6374696f6e000000000000000000000000000000000000000000000000000000602082015250565b60006142576025836138c4565b9150614262826141fb565b604082019050919050565b600060208201905081810360008301526142868161424a565b9050919050565b7f41756374696f6e2068617320616c726561647920656e6465642e204e6f206d6f60008201527f7265206269647300000000000000000000000000000000000000000000000000602082015250565b60006142e96027836138c4565b91506142f48261428d565b604082019050919050565b60006020820190508181036000830152614318816142dc565b9050919050565b7f4269642076616c7565206973206c657373207468616e2063757272656e74207060008201527f726963652e000000000000000000000000000000000000000000000000000000602082015250565b600061437b6025836138c4565b91506143868261431f565b604082019050919050565b600060208201905081810360008301526143aa8161436e565b9050919050565b7f57696e6e657220686173206265656e2063686f73656e2e204e6f206d6f72652060008201527f62696464696e672e2041756374696f6e20636c6f736564000000000000000000602082015250565b600061440d6037836138c4565b9150614418826143b1565b604082019050919050565b6000602082019050818103600083015261443c81614400565b9050919050565b60006060820190506144586000830186613a00565b6144656020830185613a00565b6144726040830184613a96565b949350505050565b60008151905061448981613d92565b92915050565b6000602082840312156144a5576144a46137f4565b5b60006144b38482850161447a565b91505092915050565b7f555550535570677261646561626c653a206d757374206e6f742062652063616c60008201527f6c6564207468726f7567682064656c656761746563616c6c0000000000000000602082015250565b60006145186038836138c4565b9150614523826144bc565b604082019050919050565b600060208201905081810360008301526145478161450b565b9050919050565b7f4552433732313a20696e76616c696420746f6b656e2049440000000000000000600082015250565b60006145846018836138c4565b915061458f8261454e565b602082019050919050565b600060208201905081810360008301526145b381614577565b9050919050565b7f4552433732313a2061646472657373207a65726f206973206e6f74206120766160008201527f6c6964206f776e65720000000000000000000000000000000000000000000000602082015250565b60006146166029836138c4565b9150614621826145ba565b604082019050919050565b6000602082019050818103600083015261464581614609565b9050919050565b7f496e697469616c697a61626c653a20636f6e747261637420697320616c72656160008201527f647920696e697469616c697a6564000000000000000000000000000000000000602082015250565b60006146a8602e836138c4565b91506146b38261464c565b604082019050919050565b600060208201905081810360008301526146d78161469b565b9050919050565b7f4e487b7100000000000000000000000000000000000000000000000000000000600052601160045260246000fd5b60006147188261396b565b91506147238361396b565b92508282026147318161396b565b91508282048414831517614748576147476146de565b5b5092915050565b600061475a8261396b565b91506147658361396b565b925082820190508082111561477d5761477c6146de565b5b92915050565b6000819050919050565b600060ff82169050919050565b6000819050919050565b60006147bf6147ba6147b584614783565b61479a565b61478d565b9050919050565b6147cf816147a4565b82525050565b60006020820190506147ea60008301846147c6565b92915050565b600081905092915050565b6000614806826138b9565b61481081856147f0565b93506148208185602086016138d5565b80840191505092915050565b600061483882856147fb565b915061484482846147fb565b91508190509392505050565b7f4f776e61626c653a206e6577206f776e657220697320746865207a65726f206160008201527f6464726573730000000000000000000000000000000000000000000000000000602082015250565b60006148ac6026836138c4565b91506148b782614850565b604082019050919050565b600060208201905081810360008301526148db8161489f565b9050919050565b7f4552433732313a207472616e736665722066726f6d20696e636f72726563742060008201527f6f776e6572000000000000000000000000000000000000000000000000000000602082015250565b600061493e6025836138c4565b9150614949826148e2565b604082019050919050565b6000602082019050818103600083015261496d81614931565b9050919050565b7f4552433732313a207472616e7366657220746f20746865207a65726f2061646460008201527f7265737300000000000000000000000000000000000000000000000000000000602082015250565b60006149d06024836138c4565b91506149db82614974565b604082019050919050565b600060208201905081810360008301526149ff816149c3565b9050919050565b614a0f81613cd1565b8114614a1a57600080fd5b50565b600081519050614a2c81614a06565b92915050565b600060208284031215614a4857614a476137f4565b5b6000614a5684828501614a1d565b91505092915050565b7f45524331393637557067726164653a206e657720696d706c656d656e7461746960008201527f6f6e206973206e6f742055555053000000000000000000000000000000000000602082015250565b6000614abb602e836138c4565b9150614ac682614a5f565b604082019050919050565b60006020820190508181036000830152614aea81614aae565b9050919050565b7f45524331393637557067726164653a20756e737570706f727465642070726f7860008201527f6961626c65555549440000000000000000000000000000000000000000000000602082015250565b6000614b4d6029836138c4565b9150614b5882614af1565b604082019050919050565b60006020820190508181036000830152614b7c81614b40565b9050919050565b7f4f776e61626c653a2063616c6c6572206973206e6f7420746865206f776e6572600082015250565b6000614bb96020836138c4565b9150614bc482614b83565b602082019050919050565b60006020820190508181036000830152614be881614bac565b9050919050565b7f496e697469616c697a61626c653a20636f6e7472616374206973206e6f74206960008201527f6e697469616c697a696e67000000000000000000000000000000000000000000602082015250565b6000614c4b602b836138c4565b9150614c5682614bef565b604082019050919050565b60006020820190508181036000830152614c7a81614c3e565b9050919050565b7f4552433732313a20617070726f766520746f2063616c6c657200000000000000600082015250565b6000614cb76019836138c4565b9150614cc282614c81565b602082019050919050565b60006020820190508181036000830152614ce681614caa565b9050919050565b7f4552433732313a207472616e7366657220746f206e6f6e20455243373231526560008201527f63656976657220696d706c656d656e7465720000000000000000000000000000602082015250565b6000614d496032836138c4565b9150614d5482614ced565b604082019050919050565b60006020820190508181036000830152614d7881614d3c565b9050919050565b7f4e487b7100000000000000000000000000000000000000000000000000000000600052601260045260246000fd5b6000614db98261396b565b9150614dc48361396b565b9250828203905081811115614ddc57614ddb6146de565b5b92915050565b7f455243313936373a206e657720696d706c656d656e746174696f6e206973206e60008201527f6f74206120636f6e747261637400000000000000000000000000000000000000602082015250565b6000614e3e602d836138c4565b9150614e4982614de2565b604082019050919050565b60006020820190508181036000830152614e6d81614e31565b9050919050565b600081519050919050565b600082825260208201905092915050565b6000614e9b82614e74565b614ea58185614e7f565b9350614eb58185602086016138d5565b614ebe816138ff565b840191505092915050565b6000608082019050614ede6000830187613a00565b614eeb6020830186613a00565b614ef86040830185613a96565b8181036060830152614f0a8184614e90565b905095945050505050565b600081519050614f248161382a565b92915050565b600060208284031215614f4057614f3f6137f4565b5b6000614f4e84828501614f15565b91505092915050565b7f416464726573733a2064656c65676174652063616c6c20746f206e6f6e2d636f60008201527f6e74726163740000000000000000000000000000000000000000000000000000602082015250565b6000614fb36026836138c4565b9150614fbe82614f57565b604082019050919050565b60006020820190508181036000830152614fe281614fa6565b9050919050565b600081905092915050565b6000614fff82614e74565b6150098185614fe9565b93506150198185602086016138d5565b80840191505092915050565b60006150318284614ff4565b91508190509291505056fe416464726573733a206c6f772d6c6576656c2064656c65676174652063616c6c206661696c6564a264697066735822122076285043448533d41693199787de58c671978a651976d1b5056a7b1d427dc45d64736f6c63430008110033",
  "linkReferences": {},
  "deployedLinkReferences": {}
}