{
  "_format": "hh-sol-artifact-1",
  "contractName": "NFTDutchAuction",
  "sourceName": "contracts/NFTDutchAuction.sol",
  "abi": [
    {
      "inputs": [
        {
          "internalType": "address",
          "name": "_erc721TokenAddress",
          "type": "address"
        },
        {
          "internalType": "uint256",
          "name": "_nftTokenId",
          "type": "uint256"
        },
        {
          "internalType": "uint256",
          "name": "_reservePrice",
          "type": "uint256"
        },
        {
          "internalType": "uint256",
          "name": "_numBlocksAuctionOpen",
          "type": "uint256"
        },
        {
          "internalType": "uint256",
          "name": "_offerPriceDecrement",
          "type": "uint256"
        }
      ],
      "stateMutability": "nonpayable",
      "type": "constructor"
    },
    {
      "anonymous": false,
      "inputs": [
        {
          "indexed": false,
          "internalType": "uint8",
          "name": "version",
          "type": "uint8"
        }
      ],
      "name": "Initialized",
      "type": "event"
    },
    {
      "inputs": [],
      "name": "auctionClosed",
      "outputs": [
        {
          "internalType": "bool",
          "name": "",
          "type": "bool"
        }
      ],
      "stateMutability": "view",
      "type": "function"
    },
    {
      "inputs": [],
      "name": "auctionEnd",
      "outputs": [
        {
          "internalType": "uint256",
          "name": "",
          "type": "uint256"
        }
      ],
      "stateMutability": "view",
      "type": "function"
    },
    {
      "inputs": [],
      "name": "auction_winner",
      "outputs": [
        {
          "internalType": "address",
          "name": "",
          "type": "address"
        }
      ],
      "stateMutability": "view",
      "type": "function"
    },
    {
      "inputs": [],
      "name": "bid",
      "outputs": [
        {
          "internalType": "address",
          "name": "",
          "type": "address"
        }
      ],
      "stateMutability": "payable",
      "type": "function"
    },
    {
      "inputs": [],
      "name": "currentPrice",
      "outputs": [
        {
          "internalType": "uint256",
          "name": "",
          "type": "uint256"
        }
      ],
      "stateMutability": "view",
      "type": "function"
    },
    {
      "inputs": [],
      "name": "erc721TokenAddress",
      "outputs": [
        {
          "internalType": "address",
          "name": "",
          "type": "address"
        }
      ],
      "stateMutability": "view",
      "type": "function"
    },
    {
      "inputs": [],
      "name": "initialPrice",
      "outputs": [
        {
          "internalType": "uint256",
          "name": "",
          "type": "uint256"
        }
      ],
      "stateMutability": "view",
      "type": "function"
    },
    {
      "inputs": [],
      "name": "seller",
      "outputs": [
        {
          "internalType": "address",
          "name": "",
          "type": "address"
        }
      ],
      "stateMutability": "view",
      "type": "function"
    },
    {
      "inputs": [
        {
          "internalType": "contract IMintContract",
          "name": "_mintContract",
          "type": "address"
        }
      ],
      "name": "setMintContract",
      "outputs": [],
      "stateMutability": "nonpayable",
      "type": "function"
    }
  ],
  "bytecode": "0x60806040523480156200001157600080fd5b506040516200151d3803806200151d83398181016040528101906200003791906200062d565b6200006b7f8179094f54fe712a7431adf245958ebc7014d049efd799e025e5cdce8d0ccbc660001b6200058560201b60201c565b6200009f7fae9e7d4743ea1bfa9a32df9b3231476ccdcc71344631f8e1d829d957c8e0258b60001b6200058560201b60201c565b620000d37fe9885f34678a5e0a4a11e0d946a09b033b5b102882b5e4640aaf9d9c241ba97a60001b6200058560201b60201c565b84600b60006101000a81548173ffffffffffffffffffffffffffffffffffffffff021916908373ffffffffffffffffffffffffffffffffffffffff160217905550620001487f325942b61aa32e0f8a51caaabdcbe994accab488231d5e24d6fb05644946c51960001b6200058560201b60201c565b6200017c7feb7be50f7ec374b92373987e6a855885c44d82c04a13b4b1549b3136b242220160001b6200058560201b60201c565b83600981905550620001b77f0772a2c7e746d4f8d401be4b18d455a5153d84c34225565c0cdb30d3920b33a760001b6200058560201b60201c565b620001eb7f4d76710f48838bc65797e150ede6f4d7cd04c070583cd28dd97d73b51e5dee5060001b6200058560201b60201c565b82600181905550620002267fb2edc690b219874bcd457215dc768ad01173f63ad943ca1d1d712de57fb4916860001b6200058560201b60201c565b6200025a7fa8e6d8c6ca8929b81f1e16200d04bb9f9d83b4ffd4093ee3cf0e5e63e7bf937360001b6200058560201b60201c565b81600281905550620002957f77209c5df76f61feb57b1ac0584a5dca41d9cf788ad7e78e202b9816c7f8a3e760001b6200058560201b60201c565b620002c97fd32b0ccbd6937d2489b1fc543b68bbc99988cfa0f30b22c0abf40e3ad16bcf3360001b6200058560201b60201c565b80600381905550620003047fad683d7ba2d9bbecc857f31f89b009760b7bb3ebdcbd08d1ede234031feeda4460001b6200058560201b60201c565b620003387f661ca6fc35186764cfc7c5d80d33c9ce6d09231d8ebfa9e000d8897bdce9366d60001b6200058560201b60201c565b6003546002546200034a9190620006e4565b6001546200035991906200072f565b600481905550620003937f2a0dcdee7b25c3fd9b1d1959f757b083780aa920a3f25a7ce5683b5e9aa6c4c660001b6200058560201b60201c565b620003c77f2cfd142826dd4e2b274b4c85883331fb68577eef6fbb59551e88893c211ba41c60001b6200058560201b60201c565b600454600a81905550620004047ff3432c6744a6d497c44d07359a45a47473b30bac15ff15f603fb9b8b9ea516f760001b6200058560201b60201c565b620004387fbfc7351ee35313c3fa6e7068279080c714a05b10cdb3bfdd9d4bfa42f67ef72260001b6200058560201b60201c565b600254436200044891906200072f565b600781905550620004827fea5cc70b30c2b04036a98106d6c48703756bd5b1e1fb232e5a39b4fca8e4680160001b6200058560201b60201c565b620004b67f322d6b8400a39e4df4de8f4f835a4083e5767a33af1355c0df016f7d94a9adc160001b6200058560201b60201c565b6000600860006101000a81548160ff021916908315150217905550620005057fbea0191ab599701d9d5b777c76ec2a7312ab8ebe1c1282dad91d83d051260d8d60001b6200058560201b60201c565b620005397f4029bdf292e50d12b076582cfcfad651a81eb48e15e95ea9e12c03a420359a5c60001b6200058560201b60201c565b33600560006101000a81548173ffffffffffffffffffffffffffffffffffffffff021916908373ffffffffffffffffffffffffffffffffffffffff16021790555050505050506200076a565b50565b600080fd5b600073ffffffffffffffffffffffffffffffffffffffff82169050919050565b6000620005ba826200058d565b9050919050565b620005cc81620005ad565b8114620005d857600080fd5b50565b600081519050620005ec81620005c1565b92915050565b6000819050919050565b6200060781620005f2565b81146200061357600080fd5b50565b6000815190506200062781620005fc565b92915050565b600080600080600060a086880312156200064c576200064b62000588565b5b60006200065c88828901620005db565b95505060206200066f8882890162000616565b9450506040620006828882890162000616565b9350506060620006958882890162000616565b9250506080620006a88882890162000616565b9150509295509295909350565b7f4e487b7100000000000000000000000000000000000000000000000000000000600052601160045260246000fd5b6000620006f182620005f2565b9150620006fe83620005f2565b92508282026200070e81620005f2565b91508282048414831517620007285762000727620006b5565b5b5092915050565b60006200073c82620005f2565b91506200074983620005f2565b9250828201905080821115620007645762000763620006b5565b5b92915050565b610da3806200077a6000396000f3fe6080604052600436106100865760003560e01c80633dfe1df9116100595780633dfe1df91461012a5780635fb64a6a146101555780639d1b464a1461017e578063aeaaa299146101a9578063df241cb9146101d457610086565b806308551a531461008b5780631998aeef146100b65780631d0806ae146100d45780632a24f46c146100ff575b600080fd5b34801561009757600080fd5b506100a06101ff565b6040516100ad9190610a7a565b60405180910390f35b6100be610225565b6040516100cb9190610a7a565b60405180910390f35b3480156100e057600080fd5b506100e96108fd565b6040516100f69190610aae565b60405180910390f35b34801561010b57600080fd5b50610114610903565b6040516101219190610aae565b60405180910390f35b34801561013657600080fd5b5061013f610909565b60405161014c9190610a7a565b60405180910390f35b34801561016157600080fd5b5061017c60048036038101906101779190610b0c565b61092f565b005b34801561018a57600080fd5b506101936109f7565b6040516101a09190610aae565b60405180910390f35b3480156101b557600080fd5b506101be6109fd565b6040516101cb9190610b54565b60405180910390f35b3480156101e057600080fd5b506101e9610a10565b6040516101f69190610a7a565b60405180910390f35b600560009054906101000a900473ffffffffffffffffffffffffffffffffffffffff1681565b60006102537f73e489e1088f95fab91b7858b886cfe3de822a32cbdb13b0073091627f290f6660001b610a36565b61027f7f9846b6eef710ccf6c1fefd9b4d012e1e36453c8eb5c8127e8c4094707cf3889260001b610a36565b6102ab7f54306a64547afdd42e15a64c8ef1e3efbfce8f404bed3697cbe6490cad20a3b960001b610a36565b6102d77f1f6f54146c404fe2a10fa8a9834d74d2dfc9368fcb785da0e3362be038dc30df60001b610a36565b60075443111561031c576040517f08c379a000000000000000000000000000000000000000000000000000000000815260040161031390610bf2565b60405180910390fd5b6103487f35953e31e1f5762e8ccca8a2730863d5fb74b9651f13e036c0daeb327d6caf3060001b610a36565b6103747f1661f9214adde78ff99befae7a02da221cdd65e9a634713df4036cafb1ad69e160001b610a36565b6103a07ff38dccba0d321ae294efdade5cca0f33761c780fb90ccd01b18cbf9822362b9e60001b610a36565b6103cc7f4a6751920306470b1de25335670276b29d5c36c587b1551212a6feb28f0f33bd60001b610a36565b600454341015610411576040517f08c379a000000000000000000000000000000000000000000000000000000000815260040161040890610c84565b60405180910390fd5b61043d7f6996d51d8456002bb6bddaa840486681bfdb5033cd4c63534959ec3c038ea52f60001b610a36565b6104697fdf1b98141649be5ef78ed1646f61f19bd837b81ed95b8fe032465f1e5bd8e82160001b610a36565b6104957faaa41f000d39c39f285bd91043d35874f527650bc3f6158ff8a68f76ba163aee60001b610a36565b6104c17f0ede2034d2ba8d26e1fffb88ae331f09f762e4861d23c903c8b84e4ce7cb0ae760001b610a36565b60001515600860009054906101000a900460ff16151514610517576040517f08c379a000000000000000000000000000000000000000000000000000000000815260040161050e90610d16565b60405180910390fd5b6105437f61e04a4164d31a34aac305debe7ac6a259c79402346713a9aa5868c57c4d0aed60001b610a36565b61056f7f78c31a7a23a0665bc54ade1e7bf7cb4d948484378e16b155c9250542032450db60001b610a36565b61059b7fda136000b8ac7425ca0a89cdf8d8d106415b4661f60ba6ee2b463ae7615b710460001b610a36565b33600660006101000a81548173ffffffffffffffffffffffffffffffffffffffff021916908373ffffffffffffffffffffffffffffffffffffffff1602179055506106087f0d24fa5f1758452a27807d964737af016b8d8ebcf6cf9992af41832c525a009c60001b610a36565b6106347f2fdb04e7de1be2d71610f474dd9e9f603975d5c926f4a866eff2693b379082f660001b610a36565b60006004819055506106687fdbde218fc56f1651ec045ed4dfc08efde37ea522753b8738f991bb0f00c2ea5d60001b610a36565b6106947f17756e531a9ad9f60be927c785cf64e150719ff4f59f675b7a076b163dea6bf560001b610a36565b6001600860006101000a81548160ff0219169083151502179055506106db7f218b1f27427e364ae6b01346c4c31765d8e6334b7fdceaa3e4dbff814df021fb60001b610a36565b6107077f29ae1b97375c2eafa95d9d82368f0230b3ffd34e76cfa009c379eb3cbaefed4c60001b610a36565b3373ffffffffffffffffffffffffffffffffffffffff166108fc349081150290604051600060405180830381858888f1935050505015801561074d573d6000803e3d6000fd5b5061077a7f5c4b094ed3ec8330ad58f886de577f9cc510d87f680586eae59ab94aaa292b7460001b610a36565b6107a67ffc3891e197054f37ef6282397a178ac9911ebb6d18a6c1f1c8b99760cee1a5b260001b610a36565b600060029054906101000a900473ffffffffffffffffffffffffffffffffffffffff1673ffffffffffffffffffffffffffffffffffffffff166342842e0e600560009054906101000a900473ffffffffffffffffffffffffffffffffffffffff16600660009054906101000a900473ffffffffffffffffffffffffffffffffffffffff166009546040518463ffffffff1660e01b815260040161084b93929190610d36565b600060405180830381600087803b15801561086557600080fd5b505af1158015610879573d6000803e3d6000fd5b505050506108a97f2e35494488399ab40b6bc402e3bc67e21d38951ebc555b87dc3a80904c5dce2c60001b610a36565b6108d57f8ccbe9c518e322cd84ec89a909041f11044544370fce2793d53a1cb19ac5fd9a60001b610a36565b600660009054906101000a900473ffffffffffffffffffffffffffffffffffffffff16905090565b60045481565b60075481565b600660009054906101000a900473ffffffffffffffffffffffffffffffffffffffff1681565b61095b7fdb113f3231c95e39667d50c27b192a3b0aa2f79554d9392fceb72243981c251c60001b610a36565b6109877f11c648d353b30eed2a587844d87ba9a8f6489198284b91e755145170db382b9060001b610a36565b6109b37f2b0bf72b5a46e47e8f396cf081bdc33303d9ed59b466891fd5204ce9f269a1d560001b610a36565b80600060026101000a81548173ffffffffffffffffffffffffffffffffffffffff021916908373ffffffffffffffffffffffffffffffffffffffff16021790555050565b600a5481565b600860009054906101000a900460ff1681565b600b60009054906101000a900473ffffffffffffffffffffffffffffffffffffffff1681565b50565b600073ffffffffffffffffffffffffffffffffffffffff82169050919050565b6000610a6482610a39565b9050919050565b610a7481610a59565b82525050565b6000602082019050610a8f6000830184610a6b565b92915050565b6000819050919050565b610aa881610a95565b82525050565b6000602082019050610ac36000830184610a9f565b92915050565b600080fd5b6000610ad982610a59565b9050919050565b610ae981610ace565b8114610af457600080fd5b50565b600081359050610b0681610ae0565b92915050565b600060208284031215610b2257610b21610ac9565b5b6000610b3084828501610af7565b91505092915050565b60008115159050919050565b610b4e81610b39565b82525050565b6000602082019050610b696000830184610b45565b92915050565b600082825260208201905092915050565b7f41756374696f6e2068617320616c726561647920656e6465642e204e6f206d6f60008201527f7265206269647300000000000000000000000000000000000000000000000000602082015250565b6000610bdc602783610b6f565b9150610be782610b80565b604082019050919050565b60006020820190508181036000830152610c0b81610bcf565b9050919050565b7f4269642076616c7565206973206c657373207468616e2063757272656e74207060008201527f726963652e000000000000000000000000000000000000000000000000000000602082015250565b6000610c6e602583610b6f565b9150610c7982610c12565b604082019050919050565b60006020820190508181036000830152610c9d81610c61565b9050919050565b7f57696e6e657220686173206265656e2063686f73656e2e204e6f206d6f72652060008201527f62696464696e672e2041756374696f6e20636c6f736564000000000000000000602082015250565b6000610d00603783610b6f565b9150610d0b82610ca4565b604082019050919050565b60006020820190508181036000830152610d2f81610cf3565b9050919050565b6000606082019050610d4b6000830186610a6b565b610d586020830185610a6b565b610d656040830184610a9f565b94935050505056fea264697066735822122027512a87196b5545ed3493c736064f26756ac23e04633afdf2a2a12862dec55264736f6c63430008110033",
  "linkReferences": {},
  "deployedLinkReferences": {}
}