{
  "_format": "hh-sol-artifact-1",
  "contractName": "MintContract",
  "sourceName": "contracts/MintContract.sol",
  "abi": [
    {
      "anonymous": false,
      "inputs": [
        {
          "indexed": true,
          "internalType": "address",
          "name": "owner",
          "type": "address"
        },
        {
          "indexed": true,
          "internalType": "address",
          "name": "approved",
          "type": "address"
        },
        {
          "indexed": true,
          "internalType": "uint256",
          "name": "tokenId",
          "type": "uint256"
        }
      ],
      "name": "Approval",
      "type": "event"
    },
    {
      "anonymous": false,
      "inputs": [
        {
          "indexed": true,
          "internalType": "address",
          "name": "owner",
          "type": "address"
        },
        {
          "indexed": true,
          "internalType": "address",
          "name": "operator",
          "type": "address"
        },
        {
          "indexed": false,
          "internalType": "bool",
          "name": "approved",
          "type": "bool"
        }
      ],
      "name": "ApprovalForAll",
      "type": "event"
    },
    {
      "anonymous": false,
      "inputs": [
        {
          "indexed": false,
          "internalType": "uint8",
          "name": "version",
          "type": "uint8"
        }
      ],
      "name": "Initialized",
      "type": "event"
    },
    {
      "anonymous": false,
      "inputs": [
        {
          "indexed": true,
          "internalType": "address",
          "name": "from",
          "type": "address"
        },
        {
          "indexed": true,
          "internalType": "address",
          "name": "to",
          "type": "address"
        },
        {
          "indexed": true,
          "internalType": "uint256",
          "name": "tokenId",
          "type": "uint256"
        }
      ],
      "name": "Transfer",
      "type": "event"
    },
    {
      "inputs": [
        {
          "internalType": "address",
          "name": "to",
          "type": "address"
        },
        {
          "internalType": "uint256",
          "name": "tokenId",
          "type": "uint256"
        }
      ],
      "name": "approve",
      "outputs": [],
      "stateMutability": "nonpayable",
      "type": "function"
    },
    {
      "inputs": [
        {
          "internalType": "address",
          "name": "owner",
          "type": "address"
        }
      ],
      "name": "balanceOf",
      "outputs": [
        {
          "internalType": "uint256",
          "name": "",
          "type": "uint256"
        }
      ],
      "stateMutability": "view",
      "type": "function"
    },
    {
      "inputs": [],
      "name": "count",
      "outputs": [
        {
          "internalType": "uint256",
          "name": "",
          "type": "uint256"
        }
      ],
      "stateMutability": "view",
      "type": "function"
    },
    {
      "inputs": [
        {
          "internalType": "uint256",
          "name": "tokenId",
          "type": "uint256"
        }
      ],
      "name": "getApproved",
      "outputs": [
        {
          "internalType": "address",
          "name": "",
          "type": "address"
        }
      ],
      "stateMutability": "view",
      "type": "function"
    },
    {
      "inputs": [
        {
          "internalType": "uint256",
          "name": "_maxTokens",
          "type": "uint256"
        }
      ],
      "name": "initialize",
      "outputs": [],
      "stateMutability": "nonpayable",
      "type": "function"
    },
    {
      "inputs": [
        {
          "internalType": "address",
          "name": "owner",
          "type": "address"
        },
        {
          "internalType": "address",
          "name": "operator",
          "type": "address"
        }
      ],
      "name": "isApprovedForAll",
      "outputs": [
        {
          "internalType": "bool",
          "name": "",
          "type": "bool"
        }
      ],
      "stateMutability": "view",
      "type": "function"
    },
    {
      "inputs": [],
      "name": "maxTokens",
      "outputs": [
        {
          "internalType": "uint256",
          "name": "",
          "type": "uint256"
        }
      ],
      "stateMutability": "view",
      "type": "function"
    },
    {
      "inputs": [],
      "name": "name",
      "outputs": [
        {
          "internalType": "string",
          "name": "",
          "type": "string"
        }
      ],
      "stateMutability": "view",
      "type": "function"
    },
    {
      "inputs": [
        {
          "internalType": "uint256",
          "name": "tokenId",
          "type": "uint256"
        }
      ],
      "name": "ownerOf",
      "outputs": [
        {
          "internalType": "address",
          "name": "",
          "type": "address"
        }
      ],
      "stateMutability": "view",
      "type": "function"
    },
    {
      "inputs": [
        {
          "internalType": "address",
          "name": "to",
          "type": "address"
        },
        {
          "internalType": "uint256",
          "name": "tokenId",
          "type": "uint256"
        }
      ],
      "name": "safeMint",
      "outputs": [],
      "stateMutability": "nonpayable",
      "type": "function"
    },
    {
      "inputs": [
        {
          "internalType": "address",
          "name": "from",
          "type": "address"
        },
        {
          "internalType": "address",
          "name": "to",
          "type": "address"
        },
        {
          "internalType": "uint256",
          "name": "tokenId",
          "type": "uint256"
        }
      ],
      "name": "safeTransferFrom",
      "outputs": [],
      "stateMutability": "nonpayable",
      "type": "function"
    },
    {
      "inputs": [
        {
          "internalType": "address",
          "name": "from",
          "type": "address"
        },
        {
          "internalType": "address",
          "name": "to",
          "type": "address"
        },
        {
          "internalType": "uint256",
          "name": "tokenId",
          "type": "uint256"
        },
        {
          "internalType": "bytes",
          "name": "data",
          "type": "bytes"
        }
      ],
      "name": "safeTransferFrom",
      "outputs": [],
      "stateMutability": "nonpayable",
      "type": "function"
    },
    {
      "inputs": [
        {
          "internalType": "address",
          "name": "operator",
          "type": "address"
        },
        {
          "internalType": "bool",
          "name": "approved",
          "type": "bool"
        }
      ],
      "name": "setApprovalForAll",
      "outputs": [],
      "stateMutability": "nonpayable",
      "type": "function"
    },
    {
      "inputs": [
        {
          "internalType": "bytes4",
          "name": "interfaceId",
          "type": "bytes4"
        }
      ],
      "name": "supportsInterface",
      "outputs": [
        {
          "internalType": "bool",
          "name": "",
          "type": "bool"
        }
      ],
      "stateMutability": "view",
      "type": "function"
    },
    {
      "inputs": [],
      "name": "symbol",
      "outputs": [
        {
          "internalType": "string",
          "name": "",
          "type": "string"
        }
      ],
      "stateMutability": "view",
      "type": "function"
    },
    {
      "inputs": [
        {
          "internalType": "uint256",
          "name": "tokenId",
          "type": "uint256"
        }
      ],
      "name": "tokenURI",
      "outputs": [
        {
          "internalType": "string",
          "name": "",
          "type": "string"
        }
      ],
      "stateMutability": "view",
      "type": "function"
    },
    {
      "inputs": [
        {
          "internalType": "address",
          "name": "from",
          "type": "address"
        },
        {
          "internalType": "address",
          "name": "to",
          "type": "address"
        },
        {
          "internalType": "uint256",
          "name": "tokenId",
          "type": "uint256"
        }
      ],
      "name": "transferFrom",
      "outputs": [],
      "stateMutability": "nonpayable",
      "type": "function"
    }
  ],
  "bytecode": "0x608060405234801561001057600080fd5b5061314e806100206000396000f3fe608060405234801561001057600080fd5b506004361061010b5760003560e01c806370a08231116100a2578063b88d4fde11610071578063b88d4fde146102b6578063c87b56dd146102d2578063e831574214610302578063e985e9c514610320578063fe4b84df146103505761010b565b806370a082311461023057806395d89b4114610260578063a14481941461027e578063a22cb4651461029a5761010b565b8063095ea7b3116100de578063095ea7b3146101ac57806323b872dd146101c857806342842e0e146101e45780636352211e146102005761010b565b806301ffc9a71461011057806306661abd1461014057806306fdde031461015e578063081812fc1461017c575b600080fd5b61012a60048036038101906101259190611f1c565b61036c565b6040516101379190611f64565b60405180910390f35b61014861044e565b6040516101559190611f98565b60405180910390f35b610166610454565b6040516101739190612043565b60405180910390f35b61019660048036038101906101919190612091565b6104e6565b6040516101a391906120ff565b60405180910390f35b6101c660048036038101906101c19190612146565b61052c565b005b6101e260048036038101906101dd9190612186565b610643565b005b6101fe60048036038101906101f99190612186565b6106a3565b005b61021a60048036038101906102159190612091565b6106c3565b60405161022791906120ff565b60405180910390f35b61024a600480360381019061024591906121d9565b610749565b6040516102579190611f98565b60405180910390f35b610268610800565b6040516102759190612043565b60405180910390f35b61029860048036038101906102939190612146565b610892565b005b6102b460048036038101906102af9190612232565b610a87565b005b6102d060048036038101906102cb91906123a7565b610a9d565b005b6102ec60048036038101906102e79190612091565b610aff565b6040516102f99190612043565b60405180910390f35b61030a610b67565b6040516103179190611f98565b60405180910390f35b61033a6004803603810190610335919061242a565b610b6d565b6040516103479190611f64565b60405180910390f35b61036a60048036038101906103659190612091565b610c01565b005b60007f80ac58cd000000000000000000000000000000000000000000000000000000007bffffffffffffffffffffffffffffffffffffffffffffffffffffffff1916827bffffffffffffffffffffffffffffffffffffffffffffffffffffffff1916148061043757507f5b5e139f000000000000000000000000000000000000000000000000000000007bffffffffffffffffffffffffffffffffffffffffffffffffffffffff1916827bffffffffffffffffffffffffffffffffffffffffffffffffffffffff1916145b80610447575061044682610eef565b5b9050919050565b60985481565b60606065805461046390612499565b80601f016020809104026020016040519081016040528092919081815260200182805461048f90612499565b80156104dc5780601f106104b1576101008083540402835291602001916104dc565b820191906000526020600020905b8154815290600101906020018083116104bf57829003601f168201915b5050505050905090565b60006104f182610f59565b6069600083815260200190815260200160002060009054906101000a900473ffffffffffffffffffffffffffffffffffffffff169050919050565b6000610537826106c3565b90508073ffffffffffffffffffffffffffffffffffffffff168373ffffffffffffffffffffffffffffffffffffffff16036105a7576040517f08c379a000000000000000000000000000000000000000000000000000000000815260040161059e9061253c565b60405180910390fd5b8073ffffffffffffffffffffffffffffffffffffffff166105c6610fa4565b73ffffffffffffffffffffffffffffffffffffffff1614806105f557506105f4816105ef610fa4565b610b6d565b5b610634576040517f08c379a000000000000000000000000000000000000000000000000000000000815260040161062b906125ce565b60405180910390fd5b61063e8383610fac565b505050565b61065461064e610fa4565b82611065565b610693576040517f08c379a000000000000000000000000000000000000000000000000000000000815260040161068a90612660565b60405180910390fd5b61069e8383836110fa565b505050565b6106be83838360405180602001604052806000815250610a9d565b505050565b6000806106cf836113f3565b9050600073ffffffffffffffffffffffffffffffffffffffff168173ffffffffffffffffffffffffffffffffffffffff1603610740576040517f08c379a0000000000000000000000000000000000000000000000000000000008152600401610737906126cc565b60405180910390fd5b80915050919050565b60008073ffffffffffffffffffffffffffffffffffffffff168273ffffffffffffffffffffffffffffffffffffffff16036107b9576040517f08c379a00000000000000000000000000000000000000000000000000000000081526004016107b09061275e565b60405180910390fd5b606860008373ffffffffffffffffffffffffffffffffffffffff1673ffffffffffffffffffffffffffffffffffffffff168152602001908152602001600020549050919050565b60606066805461080f90612499565b80601f016020809104026020016040519081016040528092919081815260200182805461083b90612499565b80156108885780601f1061085d57610100808354040283529160200191610888565b820191906000526020600020905b81548152906001019060200180831161086b57829003601f168201915b5050505050905090565b6108be7f34e03b101f08ad34d8856ad802b683cbd86a71ac12c2c1f3ce4fd4d2a4b5324560001b611430565b6108ea7f96bafcfddfae2921fc745e6a467fd675fb6cda331358e21f1938e13c57e355c960001b611430565b6109167f555f1b59ea7ac7c8fc8d00707cc14d32ae9a0d3763b9757bd0d04e75a391244860001b611430565b6109427f632523115127d4306e9e8515c83faef86e50cf3bc61e996a3aaaa72db1663fe560001b611430565b60975460985410610988576040517f08c379a000000000000000000000000000000000000000000000000000000000815260040161097f906127f0565b60405180910390fd5b6109b47f5d28f05baf30d39d46dcb85bbf621ab1f323dda83ca938ddb04106c75e390c2060001b611430565b6109e07f9668f958df4c3d612e40ce500c0645b7b5ba3c4d560f4aeceee70a6f3f3a991960001b611430565b610a0c7f875b402b21c349925a2844bbddef0904d7edc0e824dfac5b5e163d87e002fa6260001b611430565b610a168282611433565b610a427f059231b3c1e131068f63ffbf1120509677e7b41cd6ee4769e9206507a4ed844a60001b611430565b610a6e7f93390094b6c962c2a8a41d4b225c2d28ceb6ca6be4d42d43e3dcc85d28d4418660001b611430565b6001609854610a7d919061283f565b6098819055505050565b610a99610a92610fa4565b8383611451565b5050565b610aae610aa8610fa4565b83611065565b610aed576040517f08c379a0000000000000000000000000000000000000000000000000000000008152600401610ae490612660565b60405180910390fd5b610af9848484846115bd565b50505050565b6060610b0a82610f59565b6000610b14611619565b90506000815111610b345760405180602001604052806000815250610b5f565b80610b3e84611630565b604051602001610b4f9291906128af565b6040516020818303038152906040525b915050919050565b60975481565b6000606a60008473ffffffffffffffffffffffffffffffffffffffff1673ffffffffffffffffffffffffffffffffffffffff16815260200190815260200160002060008373ffffffffffffffffffffffffffffffffffffffff1673ffffffffffffffffffffffffffffffffffffffff16815260200190815260200160002060009054906101000a900460ff16905092915050565b60008060019054906101000a900460ff16159050808015610c325750600160008054906101000a900460ff1660ff16105b80610c5f5750610c41306116fe565b158015610c5e5750600160008054906101000a900460ff1660ff16145b5b610c9e576040517f08c379a0000000000000000000000000000000000000000000000000000000008152600401610c9590612945565b60405180910390fd5b60016000806101000a81548160ff021916908360ff1602179055508015610cdb576001600060016101000a81548160ff0219169083151502179055505b610d077feee10f88377409ba2010b5e8215ed0aebfcfb6e6e54d34b5ae43a7a3ea71da5560001b611430565b610d337f328905aaa19fdfa1b5d661e2f868327fc2ea8f29b28fe883f74816cad358faec60001b611430565b610d5f7fb90b7fd0deac730b9d3f5d98f77305757fb888c2290279f579412fdc076ca74e60001b611430565b610dd36040518060400160405280600c81526020017f4d696e74436f6e747261637400000000000000000000000000000000000000008152506040518060400160405280600381526020017f4d544b0000000000000000000000000000000000000000000000000000000000815250611721565b610dff7f2895a0a74c1e7e0068e074231ff95b55fc8d15bc4e60b14c54062f8fc7264b2d60001b611430565b610e2b7f507637c58f23b601a3810504e15a33fb7f77c275c91e626b143dfa9911c589e260001b611430565b81609781905550610e5e7fc071a8e9ef67564ee4cb726aefe7e38c9a91035c75d56e0112de51467bda3c2060001b611430565b610e8a7ffc10300305d7e5ad6ccc08e5f6c14688d45eb1cb7e4a90057ba3089ca4fffd7760001b611430565b60006098819055508015610eeb5760008060016101000a81548160ff0219169083151502179055507f7f26b83ff96e1f2b6a682f133852f6798a09c465da95921460cefb38474024986001604051610ee291906129b7565b60405180910390a15b5050565b60007f01ffc9a7000000000000000000000000000000000000000000000000000000007bffffffffffffffffffffffffffffffffffffffffffffffffffffffff1916827bffffffffffffffffffffffffffffffffffffffffffffffffffffffff1916149050919050565b610f628161177e565b610fa1576040517f08c379a0000000000000000000000000000000000000000000000000000000008152600401610f98906126cc565b60405180910390fd5b50565b600033905090565b816069600083815260200190815260200160002060006101000a81548173ffffffffffffffffffffffffffffffffffffffff021916908373ffffffffffffffffffffffffffffffffffffffff160217905550808273ffffffffffffffffffffffffffffffffffffffff1661101f836106c3565b73ffffffffffffffffffffffffffffffffffffffff167f8c5be1e5ebec7d5bd14f71427d1e84f3dd0314c0f7b2291e5b200ac8c7c3b92560405160405180910390a45050565b600080611071836106c3565b90508073ffffffffffffffffffffffffffffffffffffffff168473ffffffffffffffffffffffffffffffffffffffff1614806110b357506110b28185610b6d565b5b806110f157508373ffffffffffffffffffffffffffffffffffffffff166110d9846104e6565b73ffffffffffffffffffffffffffffffffffffffff16145b91505092915050565b8273ffffffffffffffffffffffffffffffffffffffff1661111a826106c3565b73ffffffffffffffffffffffffffffffffffffffff1614611170576040517f08c379a000000000000000000000000000000000000000000000000000000000815260040161116790612a44565b60405180910390fd5b600073ffffffffffffffffffffffffffffffffffffffff168273ffffffffffffffffffffffffffffffffffffffff16036111df576040517f08c379a00000000000000000000000000000000000000000000000000000000081526004016111d690612ad6565b60405180910390fd5b6111ec83838360016117bf565b8273ffffffffffffffffffffffffffffffffffffffff1661120c826106c3565b73ffffffffffffffffffffffffffffffffffffffff1614611262576040517f08c379a000000000000000000000000000000000000000000000000000000000815260040161125990612a44565b60405180910390fd5b6069600082815260200190815260200160002060006101000a81549073ffffffffffffffffffffffffffffffffffffffff02191690556001606860008573ffffffffffffffffffffffffffffffffffffffff1673ffffffffffffffffffffffffffffffffffffffff168152602001908152602001600020600082825403925050819055506001606860008473ffffffffffffffffffffffffffffffffffffffff1673ffffffffffffffffffffffffffffffffffffffff16815260200190815260200160002060008282540192505081905550816067600083815260200190815260200160002060006101000a81548173ffffffffffffffffffffffffffffffffffffffff021916908373ffffffffffffffffffffffffffffffffffffffff160217905550808273ffffffffffffffffffffffffffffffffffffffff168473ffffffffffffffffffffffffffffffffffffffff167fddf252ad1be2c89b69c2b068fc378daa952ba7f163c4a11628f55a4df523b3ef60405160405180910390a46113ee83838360016118e5565b505050565b60006067600083815260200190815260200160002060009054906101000a900473ffffffffffffffffffffffffffffffffffffffff169050919050565b50565b61144d8282604051806020016040528060008152506118eb565b5050565b8173ffffffffffffffffffffffffffffffffffffffff168373ffffffffffffffffffffffffffffffffffffffff16036114bf576040517f08c379a00000000000000000000000000000000000000000000000000000000081526004016114b690612b42565b60405180910390fd5b80606a60008573ffffffffffffffffffffffffffffffffffffffff1673ffffffffffffffffffffffffffffffffffffffff16815260200190815260200160002060008473ffffffffffffffffffffffffffffffffffffffff1673ffffffffffffffffffffffffffffffffffffffff16815260200190815260200160002060006101000a81548160ff0219169083151502179055508173ffffffffffffffffffffffffffffffffffffffff168373ffffffffffffffffffffffffffffffffffffffff167f17307eab39ab6107e8899845ad3d59bd9653f200f220920489ca2b5937696c31836040516115b09190611f64565b60405180910390a3505050565b6115c88484846110fa565b6115d484848484611946565b611613576040517f08c379a000000000000000000000000000000000000000000000000000000000815260040161160a90612bd4565b60405180910390fd5b50505050565b606060405180602001604052806000815250905090565b60606000600161163f84611acd565b01905060008167ffffffffffffffff81111561165e5761165d61227c565b5b6040519080825280601f01601f1916602001820160405280156116905781602001600182028036833780820191505090505b509050600082602001820190505b6001156116f3578080600190039150507f3031323334353637383961626364656600000000000000000000000000000000600a86061a8153600a85816116e7576116e6612bf4565b5b0494506000850361169e575b819350505050919050565b6000808273ffffffffffffffffffffffffffffffffffffffff163b119050919050565b600060019054906101000a900460ff16611770576040517f08c379a000000000000000000000000000000000000000000000000000000000815260040161176790612c95565b60405180910390fd5b61177a8282611c20565b5050565b60008073ffffffffffffffffffffffffffffffffffffffff166117a0836113f3565b73ffffffffffffffffffffffffffffffffffffffff1614159050919050565b60018111156118df57600073ffffffffffffffffffffffffffffffffffffffff168473ffffffffffffffffffffffffffffffffffffffff16146118535780606860008673ffffffffffffffffffffffffffffffffffffffff1673ffffffffffffffffffffffffffffffffffffffff168152602001908152602001600020600082825461184b9190612cb5565b925050819055505b600073ffffffffffffffffffffffffffffffffffffffff168373ffffffffffffffffffffffffffffffffffffffff16146118de5780606860008573ffffffffffffffffffffffffffffffffffffffff1673ffffffffffffffffffffffffffffffffffffffff16815260200190815260200160002060008282546118d6919061283f565b925050819055505b5b50505050565b50505050565b6118f58383611c93565b6119026000848484611946565b611941576040517f08c379a000000000000000000000000000000000000000000000000000000000815260040161193890612bd4565b60405180910390fd5b505050565b60006119678473ffffffffffffffffffffffffffffffffffffffff166116fe565b15611ac0578373ffffffffffffffffffffffffffffffffffffffff1663150b7a02611990610fa4565b8786866040518563ffffffff1660e01b81526004016119b29493929190612d3e565b6020604051808303816000875af19250505080156119ee57506040513d601f19601f820116820180604052508101906119eb9190612d9f565b60015b611a70573d8060008114611a1e576040519150601f19603f3d011682016040523d82523d6000602084013e611a23565b606091505b506000815103611a68576040517f08c379a0000000000000000000000000000000000000000000000000000000008152600401611a5f90612bd4565b60405180910390fd5b805181602001fd5b63150b7a0260e01b7bffffffffffffffffffffffffffffffffffffffffffffffffffffffff1916817bffffffffffffffffffffffffffffffffffffffffffffffffffffffff191614915050611ac5565b600190505b949350505050565b600080600090507a184f03e93ff9f4daa797ed6e38ed64bf6a1f0100000000000000008310611b2b577a184f03e93ff9f4daa797ed6e38ed64bf6a1f0100000000000000008381611b2157611b20612bf4565b5b0492506040810190505b6d04ee2d6d415b85acef81000000008310611b68576d04ee2d6d415b85acef81000000008381611b5e57611b5d612bf4565b5b0492506020810190505b662386f26fc100008310611b9757662386f26fc100008381611b8d57611b8c612bf4565b5b0492506010810190505b6305f5e1008310611bc0576305f5e1008381611bb657611bb5612bf4565b5b0492506008810190505b6127108310611be5576127108381611bdb57611bda612bf4565b5b0492506004810190505b60648310611c085760648381611bfe57611bfd612bf4565b5b0492506002810190505b600a8310611c17576001810190505b80915050919050565b600060019054906101000a900460ff16611c6f576040517f08c379a0000000000000000000000000000000000000000000000000000000008152600401611c6690612c95565b60405180910390fd5b8160659081611c7e9190612f6e565b508060669081611c8e9190612f6e565b505050565b600073ffffffffffffffffffffffffffffffffffffffff168273ffffffffffffffffffffffffffffffffffffffff1603611d02576040517f08c379a0000000000000000000000000000000000000000000000000000000008152600401611cf99061308c565b60405180910390fd5b611d0b8161177e565b15611d4b576040517f08c379a0000000000000000000000000000000000000000000000000000000008152600401611d42906130f8565b60405180910390fd5b611d596000838360016117bf565b611d628161177e565b15611da2576040517f08c379a0000000000000000000000000000000000000000000000000000000008152600401611d99906130f8565b60405180910390fd5b6001606860008473ffffffffffffffffffffffffffffffffffffffff1673ffffffffffffffffffffffffffffffffffffffff16815260200190815260200160002060008282540192505081905550816067600083815260200190815260200160002060006101000a81548173ffffffffffffffffffffffffffffffffffffffff021916908373ffffffffffffffffffffffffffffffffffffffff160217905550808273ffffffffffffffffffffffffffffffffffffffff16600073ffffffffffffffffffffffffffffffffffffffff167fddf252ad1be2c89b69c2b068fc378daa952ba7f163c4a11628f55a4df523b3ef60405160405180910390a4611eac6000838360016118e5565b5050565b6000604051905090565b600080fd5b600080fd5b60007fffffffff0000000000000000000000000000000000000000000000000000000082169050919050565b611ef981611ec4565b8114611f0457600080fd5b50565b600081359050611f1681611ef0565b92915050565b600060208284031215611f3257611f31611eba565b5b6000611f4084828501611f07565b91505092915050565b60008115159050919050565b611f5e81611f49565b82525050565b6000602082019050611f796000830184611f55565b92915050565b6000819050919050565b611f9281611f7f565b82525050565b6000602082019050611fad6000830184611f89565b92915050565b600081519050919050565b600082825260208201905092915050565b60005b83811015611fed578082015181840152602081019050611fd2565b60008484015250505050565b6000601f19601f8301169050919050565b600061201582611fb3565b61201f8185611fbe565b935061202f818560208601611fcf565b61203881611ff9565b840191505092915050565b6000602082019050818103600083015261205d818461200a565b905092915050565b61206e81611f7f565b811461207957600080fd5b50565b60008135905061208b81612065565b92915050565b6000602082840312156120a7576120a6611eba565b5b60006120b58482850161207c565b91505092915050565b600073ffffffffffffffffffffffffffffffffffffffff82169050919050565b60006120e9826120be565b9050919050565b6120f9816120de565b82525050565b600060208201905061211460008301846120f0565b92915050565b612123816120de565b811461212e57600080fd5b50565b6000813590506121408161211a565b92915050565b6000806040838503121561215d5761215c611eba565b5b600061216b85828601612131565b925050602061217c8582860161207c565b9150509250929050565b60008060006060848603121561219f5761219e611eba565b5b60006121ad86828701612131565b93505060206121be86828701612131565b92505060406121cf8682870161207c565b9150509250925092565b6000602082840312156121ef576121ee611eba565b5b60006121fd84828501612131565b91505092915050565b61220f81611f49565b811461221a57600080fd5b50565b60008135905061222c81612206565b92915050565b6000806040838503121561224957612248611eba565b5b600061225785828601612131565b92505060206122688582860161221d565b9150509250929050565b600080fd5b600080fd5b7f4e487b7100000000000000000000000000000000000000000000000000000000600052604160045260246000fd5b6122b482611ff9565b810181811067ffffffffffffffff821117156122d3576122d261227c565b5b80604052505050565b60006122e6611eb0565b90506122f282826122ab565b919050565b600067ffffffffffffffff8211156123125761231161227c565b5b61231b82611ff9565b9050602081019050919050565b82818337600083830152505050565b600061234a612345846122f7565b6122dc565b90508281526020810184848401111561236657612365612277565b5b612371848285612328565b509392505050565b600082601f83011261238e5761238d612272565b5b813561239e848260208601612337565b91505092915050565b600080600080608085870312156123c1576123c0611eba565b5b60006123cf87828801612131565b94505060206123e087828801612131565b93505060406123f18782880161207c565b925050606085013567ffffffffffffffff81111561241257612411611ebf565b5b61241e87828801612379565b91505092959194509250565b6000806040838503121561244157612440611eba565b5b600061244f85828601612131565b925050602061246085828601612131565b9150509250929050565b7f4e487b7100000000000000000000000000000000000000000000000000000000600052602260045260246000fd5b600060028204905060018216806124b157607f821691505b6020821081036124c4576124c361246a565b5b50919050565b7f4552433732313a20617070726f76616c20746f2063757272656e74206f776e6560008201527f7200000000000000000000000000000000000000000000000000000000000000602082015250565b6000612526602183611fbe565b9150612531826124ca565b604082019050919050565b6000602082019050818103600083015261255581612519565b9050919050565b7f4552433732313a20617070726f76652063616c6c6572206973206e6f7420746f60008201527f6b656e206f776e6572206f7220617070726f76656420666f7220616c6c000000602082015250565b60006125b8603d83611fbe565b91506125c38261255c565b604082019050919050565b600060208201905081810360008301526125e7816125ab565b9050919050565b7f4552433732313a2063616c6c6572206973206e6f7420746f6b656e206f776e6560008201527f72206f7220617070726f76656400000000000000000000000000000000000000602082015250565b600061264a602d83611fbe565b9150612655826125ee565b604082019050919050565b600060208201905081810360008301526126798161263d565b9050919050565b7f4552433732313a20696e76616c696420746f6b656e2049440000000000000000600082015250565b60006126b6601883611fbe565b91506126c182612680565b602082019050919050565b600060208201905081810360008301526126e5816126a9565b9050919050565b7f4552433732313a2061646472657373207a65726f206973206e6f74206120766160008201527f6c6964206f776e65720000000000000000000000000000000000000000000000602082015250565b6000612748602983611fbe565b9150612753826126ec565b604082019050919050565b600060208201905081810360008301526127778161273b565b9050919050565b7f4d6178696d756d206e756d626572206f6620746f6b656e7320616c726561647960008201527f206d696e74656400000000000000000000000000000000000000000000000000602082015250565b60006127da602783611fbe565b91506127e58261277e565b604082019050919050565b60006020820190508181036000830152612809816127cd565b9050919050565b7f4e487b7100000000000000000000000000000000000000000000000000000000600052601160045260246000fd5b600061284a82611f7f565b915061285583611f7f565b925082820190508082111561286d5761286c612810565b5b92915050565b600081905092915050565b600061288982611fb3565b6128938185612873565b93506128a3818560208601611fcf565b80840191505092915050565b60006128bb828561287e565b91506128c7828461287e565b91508190509392505050565b7f496e697469616c697a61626c653a20636f6e747261637420697320616c72656160008201527f647920696e697469616c697a6564000000000000000000000000000000000000602082015250565b600061292f602e83611fbe565b915061293a826128d3565b604082019050919050565b6000602082019050818103600083015261295e81612922565b9050919050565b6000819050919050565b600060ff82169050919050565b6000819050919050565b60006129a161299c61299784612965565b61297c565b61296f565b9050919050565b6129b181612986565b82525050565b60006020820190506129cc60008301846129a8565b92915050565b7f4552433732313a207472616e736665722066726f6d20696e636f72726563742060008201527f6f776e6572000000000000000000000000000000000000000000000000000000602082015250565b6000612a2e602583611fbe565b9150612a39826129d2565b604082019050919050565b60006020820190508181036000830152612a5d81612a21565b9050919050565b7f4552433732313a207472616e7366657220746f20746865207a65726f2061646460008201527f7265737300000000000000000000000000000000000000000000000000000000602082015250565b6000612ac0602483611fbe565b9150612acb82612a64565b604082019050919050565b60006020820190508181036000830152612aef81612ab3565b9050919050565b7f4552433732313a20617070726f766520746f2063616c6c657200000000000000600082015250565b6000612b2c601983611fbe565b9150612b3782612af6565b602082019050919050565b60006020820190508181036000830152612b5b81612b1f565b9050919050565b7f4552433732313a207472616e7366657220746f206e6f6e20455243373231526560008201527f63656976657220696d706c656d656e7465720000000000000000000000000000602082015250565b6000612bbe603283611fbe565b9150612bc982612b62565b604082019050919050565b60006020820190508181036000830152612bed81612bb1565b9050919050565b7f4e487b7100000000000000000000000000000000000000000000000000000000600052601260045260246000fd5b7f496e697469616c697a61626c653a20636f6e7472616374206973206e6f74206960008201527f6e697469616c697a696e67000000000000000000000000000000000000000000602082015250565b6000612c7f602b83611fbe565b9150612c8a82612c23565b604082019050919050565b60006020820190508181036000830152612cae81612c72565b9050919050565b6000612cc082611f7f565b9150612ccb83611f7f565b9250828203905081811115612ce357612ce2612810565b5b92915050565b600081519050919050565b600082825260208201905092915050565b6000612d1082612ce9565b612d1a8185612cf4565b9350612d2a818560208601611fcf565b612d3381611ff9565b840191505092915050565b6000608082019050612d5360008301876120f0565b612d6060208301866120f0565b612d6d6040830185611f89565b8181036060830152612d7f8184612d05565b905095945050505050565b600081519050612d9981611ef0565b92915050565b600060208284031215612db557612db4611eba565b5b6000612dc384828501612d8a565b91505092915050565b60008190508160005260206000209050919050565b60006020601f8301049050919050565b600082821b905092915050565b600060088302612e2e7fffffffffffffffffffffffffffffffffffffffffffffffffffffffffffffffff82612df1565b612e388683612df1565b95508019841693508086168417925050509392505050565b6000612e6b612e66612e6184611f7f565b61297c565b611f7f565b9050919050565b6000819050919050565b612e8583612e50565b612e99612e9182612e72565b848454612dfe565b825550505050565b600090565b612eae612ea1565b612eb9818484612e7c565b505050565b5b81811015612edd57612ed2600082612ea6565b600181019050612ebf565b5050565b601f821115612f2257612ef381612dcc565b612efc84612de1565b81016020851015612f0b578190505b612f1f612f1785612de1565b830182612ebe565b50505b505050565b600082821c905092915050565b6000612f4560001984600802612f27565b1980831691505092915050565b6000612f5e8383612f34565b9150826002028217905092915050565b612f7782611fb3565b67ffffffffffffffff811115612f9057612f8f61227c565b5b612f9a8254612499565b612fa5828285612ee1565b600060209050601f831160018114612fd85760008415612fc6578287015190505b612fd08582612f52565b865550613038565b601f198416612fe686612dcc565b60005b8281101561300e57848901518255600182019150602085019450602081019050612fe9565b8683101561302b5784890151613027601f891682612f34565b8355505b6001600288020188555050505b505050505050565b7f4552433732313a206d696e7420746f20746865207a65726f2061646472657373600082015250565b6000613076602083611fbe565b915061308182613040565b602082019050919050565b600060208201905081810360008301526130a581613069565b9050919050565b7f4552433732313a20746f6b656e20616c7265616479206d696e74656400000000600082015250565b60006130e2601c83611fbe565b91506130ed826130ac565b602082019050919050565b60006020820190508181036000830152613111816130d5565b905091905056fea26469706673582212207cf202aafd850e5490c139ec19a6e1819bafad70b4a97bd2f78f245d98332e9b64736f6c63430008110033",
  "linkReferences": {},
  "deployedLinkReferences": {}
}